{"abi":[{"type":"constructor","inputs":[{"name":"_lpToken","type":"address","internalType":"address"}],"stateMutability":"nonpayable"},{"type":"function","name":"PRICE_LOOKBACK_SECONDS","inputs":[],"outputs":[{"name":"","type":"uint64","internalType":"uint64"}],"stateMutability":"view"},{"type":"function","name":"PRICE_STALENESS_THRESHOLD","inputs":[],"outputs":[{"name":"","type":"uint64","internalType":"uint64"}],"stateMutability":"view"},{"type":"function","name":"accumulatedRewards","inputs":[{"name":"","type":"uint256","internalType":"uint256"},{"name":"","type":"address","internalType":"address"}],"outputs":[{"name":"","type":"uint256","internalType":"uint256"}],"stateMutability":"view"},{"type":"function","name":"addPool","inputs":[{"name":"stakedToken","type":"address","internalType":"address"},{"name":"rewardToken","type":"address","internalType":"address"},{"name":"rewardRate","type":"uint256","internalType":"uint256"}],"outputs":[],"stateMutability":"nonpayable"},{"type":"function","name":"availableReserve","inputs":[{"name":"token","type":"address","internalType":"address"}],"outputs":[{"name":"totalReserve","type":"uint256","internalType":"uint256"}],"stateMutability":"view"},{"type":"function","name":"batchClaimReward","inputs":[{"name":"poolIds","type":"uint256[]","internalType":"uint256[]"}],"outputs":[],"stateMutability":"nonpayable"},{"type":"function","name":"batchLockStake","inputs":[{"name":"poolIds","type":"uint256[]","internalType":"uint256[]"},{"name":"amounts","type":"uint256[]","internalType":"uint256[]"},{"name":"lockBlocks","type":"uint256[]","internalType":"uint256[]"},{"name":"boostMultipliers","type":"uint256[]","internalType":"uint256[]"}],"outputs":[],"stateMutability":"nonpayable"},{"type":"function","name":"batchStake","inputs":[{"name":"poolIds","type":"uint256[]","internalType":"uint256[]"},{"name":"amounts","type":"uint256[]","internalType":"uint256[]"}],"outputs":[],"stateMutability":"nonpayable"},{"type":"function","name":"batchUnlockStake","inputs":[{"name":"poolIds","type":"uint256[]","internalType":"uint256[]"}],"outputs":[],"stateMutability":"nonpayable"},{"type":"function","name":"batchUnstake","inputs":[{"name":"poolIds","type":"uint256[]","internalType":"uint256[]"},{"name":"amounts","type":"uint256[]","internalType":"uint256[]"}],"outputs":[],"stateMutability":"nonpayable"},{"type":"function","name":"claimProtocolFees","inputs":[],"outputs":[],"stateMutability":"nonpayable"},{"type":"function","name":"claimReward","inputs":[{"name":"poolId","type":"uint256","internalType":"uint256"}],"outputs":[],"stateMutability":"nonpayable"},{"type":"function","name":"earned","inputs":[{"name":"poolId","type":"uint256","internalType":"uint256"},{"name":"account","type":"address","internalType":"address"}],"outputs":[{"name":"","type":"uint256","internalType":"uint256"}],"stateMutability":"view"},{"type":"function","name":"getTokenTwap","inputs":[{"name":"token","type":"address","internalType":"address"}],"outputs":[{"name":"price","type":"uint256","internalType":"uint256"},{"name":"oracleLastUpdate","type":"int64","internalType":"int64"}],"stateMutability":"view"},{"type":"function","name":"getTwap","inputs":[{"name":"denom","type":"string","internalType":"string"}],"outputs":[{"name":"price","type":"uint256","internalType":"uint256"},{"name":"lastUpdateTimestamp","type":"int64","internalType":"int64"}],"stateMutability":"view"},{"type":"function","name":"governance","inputs":[],"outputs":[{"name":"","type":"address","internalType":"address"}],"stateMutability":"view"},{"type":"function","name":"isAuthorizedLender","inputs":[{"name":"","type":"address","internalType":"address"}],"outputs":[{"name":"","type":"bool","internalType":"bool"}],"stateMutability":"view"},{"type":"function","name":"lendOut","inputs":[{"name":"token","type":"address","internalType":"address"},{"name":"to","type":"address","internalType":"address"},{"name":"amount","type":"uint256","internalType":"uint256"}],"outputs":[],"stateMutability":"nonpayable"},{"type":"function","name":"lockStake","inputs":[{"name":"poolId","type":"uint256","internalType":"uint256"},{"name":"amount","type":"uint256","internalType":"uint256"},{"name":"lockBlocks","type":"uint256","internalType":"uint256"},{"name":"boostMultiplier","type":"uint256","internalType":"uint256"}],"outputs":[],"stateMutability":"nonpayable"},{"type":"function","name":"lockups","inputs":[{"name":"","type":"uint256","internalType":"uint256"},{"name":"","type":"address","internalType":"address"}],"outputs":[{"name":"amount","type":"uint256","internalType":"uint256"},{"name":"unlockBlock","type":"uint256","internalType":"uint256"},{"name":"boostMultiplier","type":"uint256","internalType":"uint256"}],"stateMutability":"view"},{"type":"function","name":"lpToken","inputs":[],"outputs":[{"name":"","type":"address","internalType":"contract IERC20"}],"stateMutability":"view"},{"type":"function","name":"pause","inputs":[],"outputs":[],"stateMutability":"nonpayable"},{"type":"function","name":"paused","inputs":[],"outputs":[{"name":"","type":"bool","internalType":"bool"}],"stateMutability":"view"},{"type":"function","name":"pools","inputs":[{"name":"","type":"uint256","internalType":"uint256"}],"outputs":[{"name":"stakedToken","type":"address","internalType":"contract IERC20"},{"name":"rewardToken","type":"address","internalType":"contract IERC20"},{"name":"rewardRate","type":"uint256","internalType":"uint256"},{"name":"lastUpdateBlock","type":"uint256","internalType":"uint256"},{"name":"rewardPerTokenStored","type":"uint256","internalType":"uint256"},{"name":"totalStaked","type":"uint256","internalType":"uint256"}],"stateMutability":"view"},{"type":"function","name":"protocolFeeBps","inputs":[],"outputs":[{"name":"","type":"uint256","internalType":"uint256"}],"stateMutability":"view"},{"type":"function","name":"protocolFeesAccrued","inputs":[],"outputs":[{"name":"","type":"uint256","internalType":"uint256"}],"stateMutability":"view"},{"type":"function","name":"protocolTreasury","inputs":[],"outputs":[{"name":"","type":"address","internalType":"address"}],"stateMutability":"view"},{"type":"function","name":"rewardPerToken","inputs":[{"name":"poolId","type":"uint256","internalType":"uint256"}],"outputs":[{"name":"","type":"uint256","internalType":"uint256"}],"stateMutability":"view"},{"type":"function","name":"setAuthorizedLender","inputs":[{"name":"lender","type":"address","internalType":"address"},{"name":"authorized","type":"bool","internalType":"bool"}],"outputs":[],"stateMutability":"nonpayable"},{"type":"function","name":"setGovernance","inputs":[{"name":"newGovernance","type":"address","internalType":"address"}],"outputs":[],"stateMutability":"nonpayable"},{"type":"function","name":"setProtocolFee","inputs":[{"name":"newFeeBps","type":"uint256","internalType":"uint256"},{"name":"newTreasury","type":"address","internalType":"address"}],"outputs":[],"stateMutability":"nonpayable"},{"type":"function","name":"setTokenDenom","inputs":[{"name":"token","type":"address","internalType":"address"},{"name":"denom","type":"string","internalType":"string"}],"outputs":[],"stateMutability":"nonpayable"},{"type":"function","name":"stake","inputs":[{"name":"poolId","type":"uint256","internalType":"uint256"},{"name":"amount","type":"uint256","internalType":"uint256"}],"outputs":[],"stateMutability":"nonpayable"},{"type":"function","name":"staked","inputs":[{"name":"","type":"uint256","internalType":"uint256"},{"name":"","type":"address","internalType":"address"}],"outputs":[{"name":"","type":"uint256","internalType":"uint256"}],"stateMutability":"view"},{"type":"function","name":"tokenDenoms","inputs":[{"name":"","type":"address","internalType":"address"}],"outputs":[{"name":"","type":"string","internalType":"string"}],"stateMutability":"view"},{"type":"function","name":"unlockStake","inputs":[{"name":"poolId","type":"uint256","internalType":"uint256"}],"outputs":[],"stateMutability":"nonpayable"},{"type":"function","name":"unpause","inputs":[],"outputs":[],"stateMutability":"nonpayable"},{"type":"function","name":"unstake","inputs":[{"name":"poolId","type":"uint256","internalType":"uint256"},{"name":"amount","type":"uint256","internalType":"uint256"}],"outputs":[],"stateMutability":"nonpayable"},{"type":"function","name":"userRewardPerTokenPaid","inputs":[{"name":"","type":"uint256","internalType":"uint256"},{"name":"","type":"address","internalType":"address"}],"outputs":[{"name":"","type":"uint256","internalType":"uint256"}],"stateMutability":"view"},{"type":"event","name":"AnalyticsClaimReward","inputs":[{"name":"user","type":"address","indexed":true,"internalType":"address"},{"name":"poolId","type":"uint256","indexed":false,"internalType":"uint256"},{"name":"amount","type":"uint256","indexed":false,"internalType":"uint256"},{"name":"blockNumber","type":"uint256","indexed":false,"internalType":"uint256"}],"anonymous":false},{"type":"event","name":"AnalyticsLock","inputs":[{"name":"user","type":"address","indexed":true,"internalType":"address"},{"name":"poolId","type":"uint256","indexed":false,"internalType":"uint256"},{"name":"amount","type":"uint256","indexed":false,"internalType":"uint256"},{"name":"unlockBlock","type":"uint256","indexed":false,"internalType":"uint256"},{"name":"boostMultiplier","type":"uint256","indexed":false,"internalType":"uint256"},{"name":"blockNumber","type":"uint256","indexed":false,"internalType":"uint256"}],"anonymous":false},{"type":"event","name":"AnalyticsPoolAdded","inputs":[{"name":"poolId","type":"uint256","indexed":true,"internalType":"uint256"},{"name":"stakedToken","type":"address","indexed":false,"internalType":"address"},{"name":"rewardToken","type":"address","indexed":false,"internalType":"address"},{"name":"rewardRate","type":"uint256","indexed":false,"internalType":"uint256"},{"name":"blockNumber","type":"uint256","indexed":false,"internalType":"uint256"}],"anonymous":false},{"type":"event","name":"AnalyticsStake","inputs":[{"name":"user","type":"address","indexed":true,"internalType":"address"},{"name":"poolId","type":"uint256","indexed":false,"internalType":"uint256"},{"name":"amount","type":"uint256","indexed":false,"internalType":"uint256"},{"name":"blockNumber","type":"uint256","indexed":false,"internalType":"uint256"}],"anonymous":false},{"type":"event","name":"AnalyticsUnlock","inputs":[{"name":"user","type":"address","indexed":true,"internalType":"address"},{"name":"poolId","type":"uint256","indexed":false,"internalType":"uint256"},{"name":"amount","type":"uint256","indexed":false,"internalType":"uint256"},{"name":"blockNumber","type":"uint256","indexed":false,"internalType":"uint256"}],"anonymous":false},{"type":"event","name":"AnalyticsUnstake","inputs":[{"name":"user","type":"address","indexed":true,"internalType":"address"},{"name":"poolId","type":"uint256","indexed":false,"internalType":"uint256"},{"name":"amount","type":"uint256","indexed":false,"internalType":"uint256"},{"name":"blockNumber","type":"uint256","indexed":false,"internalType":"uint256"}],"anonymous":false},{"type":"event","name":"BatchClaimReward","inputs":[{"name":"user","type":"address","indexed":true,"internalType":"address"},{"name":"count","type":"uint256","indexed":false,"internalType":"uint256"}],"anonymous":false},{"type":"event","name":"BatchLockStake","inputs":[{"name":"user","type":"address","indexed":true,"internalType":"address"},{"name":"count","type":"uint256","indexed":false,"internalType":"uint256"}],"anonymous":false},{"type":"event","name":"BatchStake","inputs":[{"name":"user","type":"address","indexed":true,"internalType":"address"},{"name":"count","type":"uint256","indexed":false,"internalType":"uint256"}],"anonymous":false},{"type":"event","name":"BatchUnlockStake","inputs":[{"name":"user","type":"address","indexed":true,"internalType":"address"},{"name":"count","type":"uint256","indexed":false,"internalType":"uint256"}],"anonymous":false},{"type":"event","name":"BatchUnstake","inputs":[{"name":"user","type":"address","indexed":true,"internalType":"address"},{"name":"count","type":"uint256","indexed":false,"internalType":"uint256"}],"anonymous":false},{"type":"event","name":"GovernanceTransferred","inputs":[{"name":"previousGovernance","type":"address","indexed":true,"internalType":"address"},{"name":"newGovernance","type":"address","indexed":true,"internalType":"address"}],"anonymous":false},{"type":"event","name":"Locked","inputs":[{"name":"user","type":"address","indexed":true,"internalType":"address"},{"name":"poolId","type":"uint256","indexed":false,"internalType":"uint256"},{"name":"amount","type":"uint256","indexed":false,"internalType":"uint256"},{"name":"unlockBlock","type":"uint256","indexed":false,"internalType":"uint256"},{"name":"boostMultiplier","type":"uint256","indexed":false,"internalType":"uint256"}],"anonymous":false},{"type":"event","name":"Paused","inputs":[{"name":"by","type":"address","indexed":true,"internalType":"address"}],"anonymous":false},{"type":"event","name":"PoolAdded","inputs":[{"name":"poolId","type":"uint256","indexed":true,"internalType":"uint256"},{"name":"stakedToken","type":"address","indexed":false,"internalType":"address"},{"name":"rewardToken","type":"address","indexed":false,"internalType":"address"},{"name":"rewardRate","type":"uint256","indexed":false,"internalType":"uint256"}],"anonymous":false},{"type":"event","name":"ProtocolFeeAccrued","inputs":[{"name":"treasury","type":"address","indexed":true,"internalType":"address"},{"name":"amount","type":"uint256","indexed":false,"internalType":"uint256"}],"anonymous":false},{"type":"event","name":"ProtocolFeeClaimed","inputs":[{"name":"treasury","type":"address","indexed":true,"internalType":"address"},{"name":"amount","type":"uint256","indexed":false,"internalType":"uint256"}],"anonymous":false},{"type":"event","name":"ProtocolFeeSet","inputs":[{"name":"newFeeBps","type":"uint256","indexed":false,"internalType":"uint256"},{"name":"newTreasury","type":"address","indexed":false,"internalType":"address"}],"anonymous":false},{"type":"event","name":"RewardClaimed","inputs":[{"name":"user","type":"address","indexed":true,"internalType":"address"},{"name":"amount","type":"uint256","indexed":false,"internalType":"uint256"}],"anonymous":false},{"type":"event","name":"Staked","inputs":[{"name":"user","type":"address","indexed":true,"internalType":"address"},{"name":"amount","type":"uint256","indexed":false,"internalType":"uint256"}],"anonymous":false},{"type":"event","name":"TokenDenomSet","inputs":[{"name":"token","type":"address","indexed":true,"internalType":"address"},{"name":"denom","type":"string","indexed":false,"internalType":"string"}],"anonymous":false},{"type":"event","name":"Unlocked","inputs":[{"name":"user","type":"address","indexed":true,"internalType":"address"},{"name":"poolId","type":"uint256","indexed":false,"internalType":"uint256"},{"name":"amount","type":"uint256","indexed":false,"internalType":"uint256"}],"anonymous":false},{"type":"event","name":"Unpaused","inputs":[{"name":"by","type":"address","indexed":true,"internalType":"address"}],"anonymous":false},{"type":"event","name":"Unstaked","inputs":[{"name":"user","type":"address","indexed":true,"internalType":"address"},{"name":"amount","type":"uint256","indexed":false,"internalType":"uint256"}],"anonymous":false}],"bytecode":{"object":"0x60a060405234610038576100196100146100fd565b61020b565b61002161003d565b614d156102308239608051816109c70152614d1590f35b610043565b60405190565b5f80fd5b601f801991011690565b634e487b7160e01b5f52604160045260245ffd5b9061006f90610047565b810190811060018060401b0382111761008757604052565b610051565b9061009f61009861003d565b9283610065565b565b5f80fd5b60018060a01b031690565b6100b9906100a5565b90565b6100c5816100b0565b036100cc57565b5f80fd5b905051906100dd826100bc565b565b906020828203126100f8576100f5915f016100d0565b90565b6100a1565b61011b614f45803803806101108161008c565b9283398101906100df565b90565b5f1b90565b9061012f5f199161011e565b9181191691161790565b90565b90565b90565b61015661015161015b92610139565b61013f565b61013c565b90565b90565b9061017661017161017d92610142565b61015e565b8254610123565b9055565b61019561019061019a926100a5565b61013f565b6100a5565b90565b6101a690610181565b90565b6101b29061019d565b90565b906101c660018060a01b039161011e565b9181191691161790565b6101d990610181565b90565b6101e5906101d0565b90565b90565b906102006101fb610207926101dc565b6101e8565b82546101b5565b9055565b6102209061021b60056007610161565b6101a9565b60805261022d335f6101eb565b56fe60806040526004361015610013575b6116e5565b61001d5f3561028b565b8062a47ddd1461028657806315cd521114610281578063277cb4ec1461027c57806335659fb814610277578063369b49b8146102725780633b3dcc461461026d5780633f4ba83a146102685780634a7d0369146102635780634b1da4c91461025e578063559f9dda146102595780635aa6e675146102545780635c975abb1461024f5780635fcbd2851461024a578063634babc3146102455780637b0472f0146102405780637b123e841461023b5780637e29d6c2146102365780637ee43c8a14610231578063803db96d1461022c57806380b67fe014610227578063815b3c74146102225780638456cb591461021d578063874c120b1461021857806397cf739f146102135780639e2c8a5b1461020e578063ab033ea914610209578063ac4afa3814610204578063ae169a50146101ff578063b347ba59146101fa578063b621e75a146101f5578063c760da04146101f0578063ccdb987f146101eb578063cd94deb0146101e6578063d49fab8a146101e1578063d9ab90b4146101dc578063e39c08fc146101d7578063ea289d00146101d2578063ecd8c06a146101cd5763f25b9caa0361000e576116b0565b611665565b611631565b6115fb565b6115c6565b611560565b61152b565b611490565b611296565b611261565b61121c565b6111c8565b61118c565b611019565b610fe5565b610faf565b610f7a565b610f29565b610ef4565b610ea0565b610d19565b610cd6565b610c52565b610c1e565b610b65565b610afb565b610a17565b610990565b6108f9565b610864565b6107f8565b6107a4565b610771565b61073d565b6106cc565b610651565b6105fc565b610514565b61041f565b60e01c90565b60405190565b5f80fd5b5f80fd5b5f80fd5b90565b6102af816102a3565b036102b657565b5f80fd5b905035906102c7826102a6565b565b60018060a01b031690565b6102dd906102c9565b90565b6102e9816102d4565b036102f057565b5f80fd5b90503590610301826102e0565b565b919060408382031261032b578061031f610328925f86016102ba565b936020016102f4565b90565b61029b565b90565b61034761034261034c926102a3565b610330565b6102a3565b90565b9061035990610333565b5f5260205260405f2090565b61037961037461037e926102c9565b610330565b6102c9565b90565b61038a90610365565b90565b61039690610381565b90565b906103a39061038d565b5f5260205260405f2090565b1c90565b90565b6103c69060086103cb93026103af565b6103b3565b90565b906103d991546103b6565b90565b6103f56103fa926103f06003935f9461034f565b610399565b6103ce565b90565b610406906102a3565b9052565b919061041d905f602085019401906103fd565b565b346104505761044c61043b610435366004610303565b906103dc565b610443610291565b9182918261040a565b0390f35b610297565b9061045f90610333565b5f5260205260405f2090565b906104759061038d565b5f5260205260405f2090565b5f1c90565b61049261049791610481565b6103b3565b90565b6104a49054610486565b90565b906104b66104bb926006610455565b61046b565b6104c65f820161049a565b916104df60026104d86001850161049a565b930161049a565b90565b60409061050b610512949695939661050160608401985f8501906103fd565b60208301906103fd565b01906103fd565b565b346105485761054461053061052a366004610303565b906104a7565b61053b939193610291565b938493846104e2565b0390f35b610297565b5f80fd5b5f80fd5b5f80fd5b909182601f830112156105935781359167ffffffffffffffff831161058e57602001926020830284011161058957565b610555565b610551565b61054d565b90916040828403126105f2575f82013567ffffffffffffffff81116105ed57836105c3918401610559565b929093602082013567ffffffffffffffff81116105e8576105e49201610559565b9091565b61029f565b61029f565b61029b565b5f0190565b3461062e5761061861060f366004610598565b929190916117bf565b610620610291565b8061062a816105f7565b0390f35b610297565b5f91031261063d57565b61029b565b61064e60075f906103ce565b90565b3461068157610661366004610633565b61067d61066c610642565b610674610291565b9182918261040a565b0390f35b610297565b6080818303126106c75761069c825f83016102ba565b926106c46106ad84602085016102ba565b936106bb81604086016102ba565b936060016102ba565b90565b61029b565b346106fe576106e86106df366004610686565b92919091611dc2565b6106f0610291565b806106fa816105f7565b0390f35b610297565b90916060828403126107385761073561071e845f85016102f4565b9361072c81602086016102f4565b936040016102ba565b90565b61029b565b3461076c57610756610750366004610703565b91611fa0565b61075e610291565b80610768816105f7565b0390f35b610297565b3461079f57610781366004610633565b6107896121d3565b610791610291565b8061079b816105f7565b0390f35b610297565b346107d2576107b4366004610633565b6107bc6122e1565b6107c4610291565b806107ce816105f7565b0390f35b610297565b6107f06107f5926107eb6002935f9461034f565b610399565b6103ce565b90565b346108295761082561081461080e366004610303565b906107d7565b61081c610291565b9182918261040a565b0390f35b610297565b9060208282031261085f575f82013567ffffffffffffffff811161085a576108569201610559565b9091565b61029f565b61029b565b346108935761087d61087736600461082e565b90612428565b610885610291565b8061088f816105f7565b0390f35b610297565b60018060a01b031690565b6108b39060086108b893026103af565b610898565b90565b906108c691546108a3565b90565b6108d45f5f906108bb565b90565b6108e0906102d4565b9052565b91906108f7905f602085019401906108d7565b565b3461092957610909366004610633565b6109256109146108c9565b61091c610291565b918291826108e4565b0390f35b610297565b60ff1690565b61094490600861094993026103af565b61092e565b90565b906109579154610934565b90565b6109665f60149061094c565b90565b151590565b61097790610969565b9052565b919061098e905f6020850194019061096e565b565b346109c0576109a0366004610633565b6109bc6109ab61095a565b6109b3610291565b9182918261097b565b0390f35b610297565b7f000000000000000000000000000000000000000000000000000000000000000090565b6109f290610381565b90565b6109fe906109e9565b9052565b9190610a15905f602085019401906109f5565b565b34610a4757610a27366004610633565b610a43610a326109c5565b610a3a610291565b91829182610a02565b0390f35b610297565b9091608082840312610af6575f82013567ffffffffffffffff8111610af15783610a77918401610559565b929093602082013567ffffffffffffffff8111610aec5781610a9a918401610559565b929093604082013567ffffffffffffffff8111610ae75783610abd918401610559565b929093606082013567ffffffffffffffff8111610ae257610ade9201610559565b9091565b61029f565b61029f565b61029f565b61029f565b61029b565b34610b3357610b1d610b0e366004610a4c565b969590959491949392936124d5565b610b25610291565b80610b2f816105f7565b0390f35b610297565b9190604083820312610b605780610b54610b5d925f86016102ba565b936020016102ba565b90565b61029b565b34610b9457610b7e610b78366004610b38565b90612943565b610b86610291565b80610b90816105f7565b0390f35b610297565b909182601f83011215610bd35781359167ffffffffffffffff8311610bce576020019260018302840111610bc957565b610555565b610551565b61054d565b919091604081840312610c1957610bf1835f83016102f4565b92602082013567ffffffffffffffff8111610c1457610c109201610b99565b9091565b61029f565b61029b565b34610c4d57610c37610c31366004610bd8565b91612c04565b610c3f610291565b80610c49816105f7565b0390f35b610297565b34610c8157610c6b610c65366004610703565b91613110565b610c73610291565b80610c7d816105f7565b0390f35b610297565b610c8f81610969565b03610c9657565b5f80fd5b90503590610ca782610c86565b565b9190604083820312610cd15780610cc5610cce925f86016102f4565b93602001610c9a565b90565b61029b565b34610d0557610cef610ce9366004610ca9565b90613199565b610cf7610291565b80610d01816105f7565b0390f35b610297565b610d1660085f906108bb565b90565b34610d4957610d29366004610633565b610d45610d34610d0a565b610d3c610291565b918291826108e4565b0390f35b610297565b5f80fd5b601f801991011690565b634e487b7160e01b5f52604160045260245ffd5b90610d7a90610d52565b810190811067ffffffffffffffff821117610d9457604052565b610d5c565b90610dac610da5610291565b9283610d70565b565b67ffffffffffffffff8111610dcc57610dc8602091610d52565b0190565b610d5c565b90825f939282370152565b90929192610df1610dec82610dae565b610d99565b93818552602085019082840111610e0d57610e0b92610dd1565b565b610d4e565b9080601f83011215610e3057816020610e2d93359101610ddc565b90565b61054d565b90602082820312610e65575f82013567ffffffffffffffff8111610e6057610e5d9201610e12565b90565b61029f565b61029b565b60070b90565b610e7990610e6a565b9052565b916020610e9e929493610e9760408201965f8301906103fd565b0190610e70565b565b34610ed157610eb8610eb3366004610e35565b61345a565b90610ecd610ec4610291565b92839283610e7d565b0390f35b610297565b90602082820312610eef57610eec915f016102f4565b90565b61029b565b34610f2457610f20610f0f610f0a366004610ed6565b613613565b610f17610291565b9182918261040a565b0390f35b610297565b34610f5757610f39366004610633565b610f416137d8565b610f49610291565b80610f53816105f7565b0390f35b610297565b90602082820312610f7557610f72915f016102ba565b90565b61029b565b34610faa57610fa6610f95610f90366004610f5c565b61386c565b610f9d610291565b9182918261040a565b0390f35b610297565b34610fe057610fc7610fc2366004610ed6565b613afc565b90610fdc610fd3610291565b92839283610e7d565b0390f35b610297565b3461101457610ffe610ff8366004610b38565b90613e2c565b611006610291565b80611010816105f7565b0390f35b610297565b346110475761103161102c366004610ed6565b613f90565b611039610291565b80611043816105f7565b0390f35b610297565b634e487b7160e01b5f52603260045260245ffd5b5490565b5f5260205f2090565b61107681611060565b82101561109057611088600691611064565b910201905f90565b61104c565b60018060a01b031690565b6110ac6110b191610481565b611095565b90565b6110be90546110a0565b90565b6001906110cd82611060565b81101561112d576110dd9161106d565b50906110ea5f83016110b4565b916110f7600182016110b4565b916111046002830161049a565b916111116003820161049a565b9161112a60056111236004850161049a565b930161049a565b90565b5f80fd5b91946111796111839298979561116f60a09661116561118a9a61115b60c08a019e5f8b01906109f5565b60208901906109f5565b60408701906103fd565b60608501906103fd565b60808301906103fd565b01906103fd565b565b346111c3576111bf6111a76111a2366004610f5c565b6110c1565b926111b6969496929192610291565b96879687611131565b0390f35b610297565b346111f6576111e06111db366004610f5c565b6142d0565b6111e8610291565b806111f2816105f7565b0390f35b610297565b6112146112199261120f6004935f9461034f565b610399565b6103ce565b90565b3461124d57611249611238611232366004610303565b906111fb565b611240610291565b9182918261040a565b0390f35b610297565b61125e60095f906103ce565b90565b3461129157611271366004610633565b61128d61127c611252565b611284610291565b9182918261040a565b0390f35b610297565b346112c5576112af6112a936600461082e565b906142db565b6112b7610291565b806112c1816105f7565b0390f35b610297565b906112d49061038d565b5f5260205260405f2090565b634e487b7160e01b5f525f60045260245ffd5b634e487b7160e01b5f52602260045260245ffd5b9060016002830492168015611327575b602083101461132257565b6112f3565b91607f1691611317565b60209181520190565b5f5260205f2090565b905f929180549061135d61135683611307565b8094611331565b916001811690815f146113b45750600114611378575b505050565b611385919293945061133a565b915f925b81841061139c57505001905f8080611373565b60018160209295939554848601520191019290611389565b92949550505060ff19168252151560200201905f8080611373565b906113d991611343565b90565b906113fc6113f5926113ec610291565b938480926113cf565b0383610d70565b565b905f106114115761140e906113dc565b90565b6112e0565b61142c906114276005915f926112ca565b6113fe565b90565b5190565b60209181520190565b90825f9392825e0152565b61146661146f6020936114749361145d8161142f565b93848093611433565b9586910161143c565b610d52565b0190565b61148d9160208201915f818403910152611447565b90565b346114c0576114bc6114ab6114a6366004610ed6565b611416565b6114b3610291565b91829182611478565b0390f35b610297565b90565b67ffffffffffffffff1690565b6114e96114e46114ee926114c5565b610330565b6114c8565b90565b6114fb603c6114d5565b90565b6115066114f1565b90565b611512906114c8565b9052565b9190611529905f60208501940190611509565b565b3461155b5761153b366004610633565b6115576115466114fe565b61154e610291565b91829182611516565b0390f35b610297565b346115925761157c611573366004610598565b92919091614388565b611584610291565b8061158e816105f7565b0390f35b610297565b906115a19061038d565b5f5260205260405f2090565b6115c3906115be600a915f92611597565b61094c565b90565b346115f6576115f26115e16115dc366004610ed6565b6115ad565b6115e9610291565b9182918261097b565b0390f35b610297565b3461162c57611628611617611611366004610303565b9061449f565b61161f610291565b9182918261040a565b0390f35b610297565b346116605761164a611644366004610303565b90614767565b611652610291565b8061165c816105f7565b0390f35b610297565b346116935761167d611678366004610f5c565b614a93565b611685610291565b8061168f816105f7565b0390f35b610297565b6116a2603c6114d5565b90565b6116ad611698565b90565b346116e0576116c0366004610633565b6116dc6116cb6116a5565b6116d3610291565b91829182611516565b0390f35b610297565b5f80fd5b5090565b5f7f4c656e677468206d69736d617463680000000000000000000000000000000000910152565b611721600f602092611433565b61172a816116ed565b0190565b6117439060208101905f818303910152611714565b90565b1561174d57565b611755610291565b62461bcd60e51b81528061176b6004820161172e565b0390fd5b90565b61178661178161178b9261176f565b610330565b6102a3565b90565b600161179a91016102a3565b90565b91908110156117ad576020020190565b61104c565b356117bc816102a6565b90565b939291936117f36117d18284906116e9565b6117ed6117e76117e28988906116e9565b6102a3565b916102a3565b14611746565b6117fc5f611772565b5b8061181a61181461180f8587906116e9565b6102a3565b916102a3565b101561185f5761185a9061185561183b6118368587859161179d565b6117b2565b61184f61184a8a89869161179d565b6117b2565b90613e2c565b61178e565b6117fd565b5092935061186f915033926116e9565b906118af61189d7ff643ca40bcfd34b2d177e8b35e99ed5b290ab31062827532226361ca229070149261038d565b926118a6610291565b9182918261040a565b0390a2565b90565b5f1b90565b906118c85f19916118b7565b9181191691161790565b90565b906118ea6118e56118f192610333565b6118d2565b82546118bc565b9055565b61190961190461190e9261176f565b610330565b6102c9565b90565b61191a906118f5565b90565b9061198793929180339061193c6119366001839061106d565b506118b4565b6119516119488361386c565b600483016118d5565b61195e43600383016118d5565b8261197961197361196e5f611911565b6102d4565b916102d4565b03611989575b505050611c03565b565b6119d9926119cf6119c760046119d4946119c16119a788879061449f565b6119bc6119b5858b9061034f565b8890610399565b6118d5565b0161049a565b93600361034f565b610399565b6118d5565b5f808061197f565b5f7f496e76616c696420706f6f6c4964000000000000000000000000000000000000910152565b611a15600e602092611433565b611a1e816119e1565b0190565b611a379060208101905f818303910152611a08565b90565b15611a4157565b611a49610291565b62461bcd60e51b815280611a5f60048201611a22565b0390fd5b5f7f496e73756666696369656e74207374616b656400000000000000000000000000910152565b611a976013602092611433565b611aa081611a63565b0190565b611ab99060208101905f818303910152611a8a565b90565b15611ac357565b611acb610291565b62461bcd60e51b815280611ae160048201611aa4565b0390fd5b5f7f5a65726f206c6f636b20706572696f6400000000000000000000000000000000910152565b611b196010602092611433565b611b2281611ae5565b0190565b611b3b9060208101905f818303910152611b0c565b90565b15611b4557565b611b4d610291565b62461bcd60e51b815280611b6360048201611b26565b0390fd5b634e487b7160e01b5f52601160045260245ffd5b611b8a611b90919392936102a3565b926102a3565b8203918211611b9b57565b611b67565b611baf611bb5919392936102a3565b926102a3565b8201809211611bc057565b611b67565b611bfa611c0194611bf0606094989795611be6608086019a5f8701906103fd565b60208501906103fd565b60408301906103fd565b01906103fd565b565b9091611cdc611cfa91611c3184611c2b611c25611c206001611060565b6102a3565b916102a3565b10611a3a565b84611c44611c3e5f611772565b916102a3565b1180611d85575b611c5490611abc565b611c7081611c6a611c645f611772565b916102a3565b11611b3e565b611ca285611c9c611c8d611c866002899061034f565b3390610399565b91611c978361049a565b611b7b565b906118d5565b611cd685611cd05f611cc0611cb960068a90610455565b339061046b565b0191611ccb8361049a565b611ba0565b906118d5565b43611ba0565b6001611cf4611ced60068690610455565b339061046b565b016118d5565b611d1c836002611d16611d0f60068690610455565b339061046b565b016118d5565b3391611d80611d436001611d3d611d368695966006610455565b339061046b565b0161049a565b94611d6e7fc1126f780558d178a12a5cf08c087496f33400d9b431b6530eb0001f3c34fa999561038d565b95611d77610291565b94859485611bc5565b0390a2565b50611c54611da7611da2611d9b6002889061034f565b3390610399565b61049a565b611db9611db3886102a3565b916102a3565b10159050611c4b565b90611dce93929161191d565b565b611ddc611de191610481565b61092e565b90565b611dee9054611dd0565b90565b5f7f4e6f7420617574686f72697a6564000000000000000000000000000000000000910152565b611e25600e602092611433565b611e2e81611df1565b0190565b611e479060208101905f818303910152611e18565b90565b15611e5157565b611e59610291565b62461bcd60e51b815280611e6f60048201611e32565b0390fd5b90611e9a9291611e95611e90611e8b600a3390611597565b611de4565b611e4a565b611f1a565b565b611ea590610365565b90565b611eb190611e9c565b90565b60e01b90565b90505190611ec782610c86565b565b90602082820312611ee257611edf915f01611eba565b90565b61029b565b916020611f08929493611f0160408201965f8301906108d7565b01906103fd565b565b611f12610291565b3d5f823e3d90fd5b91611f2f611f2a60209394611ea8565b6109e9565b611f525f63a9059cbb959395611f5d611f46610291565b97889687958694611eb4565b845260048401611ee7565b03925af18015611f9b57611f6f575b50565b611f8f9060203d8111611f94575b611f878183610d70565b810190611ec9565b611f6c565b503d611f7d565b611f0a565b90611fab9291611e73565b565b611fb9611fbe91610481565b610898565b90565b611fcb9054611fad565b90565b5f7f4e6f7420676f7665726e616e6365000000000000000000000000000000000000910152565b612002600e602092611433565b61200b81611fce565b0190565b6120249060208101905f818303910152611ff5565b90565b1561202e57565b612036610291565b62461bcd60e51b81528061204c6004820161200f565b0390fd5b6120743361206e6120686120635f611fc1565b6102d4565b916102d4565b14612027565b61207c612175565b565b60a01c90565b6120906120959161207e565b61092e565b90565b6120a29054612084565b90565b5f7f4e6f742070617573656400000000000000000000000000000000000000000000910152565b6120d9600a602092611433565b6120e2816120a5565b0190565b6120fb9060208101905f8183039101526120cc565b90565b1561210557565b61210d610291565b62461bcd60e51b815280612123600482016120e6565b0390fd5b60a01b90565b9061213c60ff60a01b91612127565b9181191691161790565b61214f90610969565b90565b90565b9061216a61216561217192612146565b612152565b825461212d565b9055565b6121866121815f612098565b6120fe565b6121905f5f612155565b336121bb7f5db9ee0a495bf2e6ff9c91a7834c1ba4fdd244a5e8aa4e537bd38aeae4b073aa9161038d565b906121c4610291565b806121ce816105f7565b0390a2565b6121db612050565b565b5f7f4e6f742074726561737572790000000000000000000000000000000000000000910152565b612211600c602092611433565b61221a816121dd565b0190565b6122339060208101905f818303910152612204565b90565b1561223d57565b612245610291565b62461bcd60e51b81528061225b6004820161221e565b0390fd5b5f7f4e6f206665657300000000000000000000000000000000000000000000000000910152565b6122936007602092611433565b61229c8161225f565b0190565b6122b59060208101905f818303910152612286565b90565b156122bf57565b6122c7610291565b62461bcd60e51b8152806122dd600482016122a0565b0390fd5b612306336123006122fa6122f56008611fc1565b6102d4565b916102d4565b14612236565b612310600961049a565b61232c816123266123205f611772565b916102a3565b116122b8565b61233f6123385f611772565b60096118d5565b61235e6123596001612352815f9061106d565b50016110b4565b6109e9565b602063a9059cbb916123706008611fc1565b9061238e5f8695612399612382610291565b97889687958694611eb4565b845260048401611ee7565b03925af18015612423576123f7575b506123b36008611fc1565b6123f26123e07f0f7f5b155b0b0ac6890709a2c7bf1b8bb3f675fff1e7840b4dd3c9acde59048b9261038d565b926123e9610291565b9182918261040a565b0390a2565b6124179060203d811161241c575b61240f8183610d70565b810190611ec9565b6123a8565b503d612405565b611f0a565b9190916124345f611772565b5b8061245261244c6124478588906116e9565b6102a3565b916102a3565b10156124825761247d9061247861247361246e8588859161179d565b6117b2565b614a93565b61178e565b612435565b5090916124909033926116e9565b906124d06124be7fb9a7d30d1265b76cbe2b946bc30f14960befdced8d513c997d9263ef1a0a9d3c9261038d565b926124c7610291565b9182918261040a565b0390a2565b969290959491956124e78882906116e9565b6125036124fd6124f88a86906116e9565b6102a3565b916102a3565b1480612639575b80612606575b61251990611746565b6125225f611772565b5b8061254061253a6125358c86906116e9565b6102a3565b916102a3565b10156125ae576125a9906125a461256161255c8c86859161179d565b6117b2565b6125756125708c88869161179d565b6117b2565b6125896125848b8a879161179d565b6117b2565b9061259e6125998d8c889161179d565b6117b2565b92611dc2565b61178e565b612523565b509450505050506125c1915033926116e9565b906126016125ef7f57bd2831d93c067e075459d7f629afdd4dab7c63e9feb91eaffac79fb0feffb19261038d565b926125f8610291565b9182918261040a565b0390a2565b506125196126158685906116e9565b61263161262b6126268a89906116e9565b6102a3565b916102a3565b149050612510565b506126458783906116e9565b61266161265b6126568887906116e9565b6102a3565b916102a3565b1461250a565b906126cf9180339061268461267e6001839061106d565b506118b4565b6126996126908361386c565b600483016118d5565b6126a643600383016118d5565b826126c16126bb6126b65f611911565b6102d4565b916102d4565b036126d1575b5050506127e9565b565b6127219261271761270f600461271c946127096126ef88879061449f565b6127046126fd858b9061034f565b8890610399565b6118d5565b0161049a565b93600361034f565b610399565b6118d5565b5f80806126c7565b5f7f5a65726f20616d6f756e74000000000000000000000000000000000000000000910152565b61275d600b602092611433565b61276681612729565b0190565b61277f9060208101905f818303910152612750565b90565b1561278957565b612791610291565b62461bcd60e51b8152806127a76004820161276a565b0390fd5b6127b490610381565b90565b6040906127e06127e794969593966127d660608401985f8501906108d7565b60208301906108d7565b01906103fd565b565b612805826127ff6127f95f611772565b916102a3565b11612782565b61281a6128146001839061106d565b506118b4565b61282d6128285f83016110b4565b6109e9565b9160206323b872dd93339061285e5f612845306127ab565b976128698a612852610291565b9a8b9788968795611eb4565b8552600485016127b7565b03925af190811561293e576128cd936128b092612912575b506128aa61289b6128948793600261034f565b3390610399565b916128a58361049a565b611ba0565b906118d5565b6128c76005849201916128c28361049a565b611ba0565b906118d5565b3361290d6128fb7f9e71bc8eea02a63969f509818f2dafb9254532904319f9dbda79b67bd34a5f3d9261038d565b92612904610291565b9182918261040a565b0390a2565b6129329060203d8111612937575b61292a8183610d70565b810190611ec9565b612881565b503d612920565b611f0a565b9061294d91612667565b565b9061297e92916129793361297361296d6129685f611fc1565b6102d4565b916102d4565b14612027565b612ba7565b565b5090565b601f602091010490565b1b90565b919060086129ad9102916129a75f198461298e565b9261298e565b9181191691161790565b91906129cd6129c86129d593610333565b6118d2565b908354612992565b9055565b5f90565b6129ef916129e96129d9565b916129b7565b565b5b8181106129fd575050565b80612a0a5f6001936129dd565b016129f2565b9190601f8111612a20575b505050565b612a2c612a519361133a565b906020612a3884612984565b83019310612a59575b612a4a90612984565b01906129f1565b5f8080612a1b565b9150612a4a81929050612a41565b90612a77905f19906008026103af565b191690565b81612a8691612a67565b906002021790565b91612a999082612980565b9067ffffffffffffffff8211612b5857612abd82612ab78554611307565b85612a10565b5f90601f8311600114612af057918091612adf935f92612ae4575b5050612a7c565b90555b565b90915001355f80612ad8565b601f19831691612aff8561133a565b925f5b818110612b4057509160029391856001969410612b26575b50505002019055612ae2565b612b36910135601f841690612a67565b90555f8080612b1a565b91936020600181928787013581550195019201612b02565b610d5c565b90612b689291612a8e565b565b9190612b8481612b7d81612b8995611433565b8095610dd1565b610d52565b0190565b9091612ba49260208301925f818503910152612b6a565b90565b612bbe828490612bb9600585906112ca565b612b5d565b9091612bea7f3aef37e65dd9a1bdeaf86293131fd470f231e87f3c0426a1a43b3fa8a789f6359261038d565b92612bff612bf6610291565b92839283612b8d565b0390a2565b90612c0f929161294f565b565b90612c409291612c3b33612c35612c2f612c2a5f611fc1565b6102d4565b916102d4565b14612027565b612f9a565b565b5f7f5a65726f207374616b656420746f6b656e000000000000000000000000000000910152565b612c766011602092611433565b612c7f81612c42565b0190565b612c989060208101905f818303910152612c69565b90565b15612ca257565b612caa610291565b62461bcd60e51b815280612cc060048201612c83565b0390fd5b5f7f5a65726f2072657761726420746f6b656e000000000000000000000000000000910152565b612cf86011602092611433565b612d0181612cc4565b0190565b612d1a9060208101905f818303910152612ceb565b90565b15612d2457565b612d2c610291565b62461bcd60e51b815280612d4260048201612d05565b0390fd5b5f7f5a65726f20726577617264207261746500000000000000000000000000000000910152565b612d7a6010602092611433565b612d8381612d46565b0190565b612d9c9060208101905f818303910152612d6d565b90565b15612da657565b612dae610291565b62461bcd60e51b815280612dc460048201612d87565b0390fd5b90565b612dd560c0610d99565b90565b612de1906102d4565b90565b90612dee90612dd8565b9052565b90612dfc906102a3565b9052565b5f5260205f2090565b5490565b612e1681612e09565b821015612e3057612e28600691612e00565b910201905f90565b61104c565b612e3f9051612dd8565b90565b90612e5360018060a01b03916118b7565b9181191691161790565b612e6690611e9c565b90565b90565b90612e81612e7c612e8892612e5d565b612e69565b8254612e42565b9055565b612e9690516102a3565b90565b90612f2860a06005612f2e94612ebc5f8201612eb65f8801612e35565b90612e6c565b612ed560018201612ecf60208801612e35565b90612e6c565b612eee60028201612ee860408801612e8c565b906118d5565b612f0760038201612f0160608801612e8c565b906118d5565b612f2060048201612f1a60808801612e8c565b906118d5565b019201612e8c565b906118d5565b565b9190612f4157612f3f91612e99565b565b6112e0565b9081549168010000000000000000831015612f765782612f6e916001612f7495018155612e0d565b90612f30565b565b610d5c565b90565b612f92612f8d612f9792612f7b565b610330565b6102a3565b90565b9091815f612fa790611911565b612fb0906102d4565b90612fba906102d4565b1415612fc590612c9b565b825f612fd090611911565b612fd9906102d4565b90612fe3906102d4565b1415612fee90612d1d565b805f612ff990611772565b90613003906102a3565b1161300d90612d9f565b600161301890612dc8565b8261302290611ea8565b8461302c90611ea8565b83435f915f9361303a612dcb565b955f87019061304891612de4565b602086019061305691612de4565b604085019061306491612df2565b606084019061307291612df2565b61307b90611772565b608083019061308991612df2565b61309290611772565b60a08201906130a091612df2565b6130a991612f46565b60016130b490611060565b60016130bf90612f7e565b6130c891611b7b565b91927f32a60bdf9445a75fb5c95e4fb9c0131216cc2970d2dc89dd6a1babe40459c53c926130f590610333565b936130fe610291565b92839261310b92846127b7565b0390a2565b9061311b9291612c11565b565b9061314b916131463361314061313a6131355f611fc1565b6102d4565b916102d4565b14612027565b613183565b565b9061315960ff916118b7565b9181191691161790565b9061317861317361317f92612146565b612152565b825461314d565b9055565b6131926131979291600a611597565b613163565b565b906131a39161311d565b565b5f90565b6131b290610365565b90565b6131be906131a9565b90565b6131cc6110086131b5565b90565b6131d890610381565b90565b67ffffffffffffffff81116131f35760208091020190565b610d5c565b5f80fd5b5f80fd5b9092919261321561321082610dae565b610d99565b938185526020850190828401116132315761322f9261143c565b565b610d4e565b9080601f830112156132545781602061325193519101613200565b90565b61054d565b61326281610e6a565b0361326957565b5f80fd5b9050519061327a82613259565b565b9190916060818403126132f9576132936060610d99565b925f82015167ffffffffffffffff81116132f457816132b3918401613236565b5f85015260208201519167ffffffffffffffff83116132ef576132db826132e8948301613236565b602086015260400161326d565b6040830152565b6131fc565b6131fc565b6131f8565b92919061331261330d826131db565b610d99565b93818552602080860192028101918383116133695781905b838210613338575050505050565b815167ffffffffffffffff811161336457602091613359878493870161327c565b81520191019061332a565b61054d565b610555565b9080601f8301121561338c57816020613389935191016132fe565b90565b61054d565b906020828203126133c1575f82015167ffffffffffffffff81116133bc576133b9920161336e565b90565b61029f565b61029b565b5190565b906133d4826133c6565b8110156133e5576020809102010190565b61104c565b905090565b61341461340b926020926134028161142f565b948580936133ea565b9384910161143c565b0190565b613421916133ef565b90565b60200190565b5190565b90565b61343b9051610e6a565b90565b61345261344d6134579261176f565b610330565b610e6a565b90565b6134626129d9565b5061346b6131a5565b506134b15f61348061347b6131c1565b6131cf565b63cd44a658906134a66134916114f1565b9261349a610291565b95869485938493611eb4565b835260048301611516565b03915afa90811561360e575f916135ec575b50916134ce5f611772565b5b806134ea6134e46134df876133c6565b6102a3565b916102a3565b10156135d0576135196135285f6135028785906133ca565b51015161350d610291565b92839160208301613418565b60208201810382520382610d70565b61353a6135348261342a565b91613424565b2061358961358361355c61356b87613550610291565b92839160208301613418565b60208201810382520382610d70565b61357d6135778261342a565b91613424565b2061342e565b9161342e565b1461359c576135979061178e565b6134cf565b6135cd9192506135c66040916135c060206135b88884906133ca565b510151614bd0565b956133ca565b5101613431565b90565b509150505f906135e96135e35f93611772565b9261343e565b90565b61360891503d805f833e6136008183610d70565b810190613391565b5f6134c3565b611f0a565b9061361c6129d9565b916136265f611772565b5b8061364361363d6136386001611060565b6102a3565b916102a3565b10156136bc576136686136635f61365c6001859061106d565b50016110b4565b6109e9565b61367a613674846102d4565b916102d4565b1461368e575b6136899061178e565b613627565b926136b4613689916136ae60056136a76001899061106d565b500161049a565b90611ba0565b939050613680565b5050565b6136e4336136de6136d86136d35f611fc1565b6102d4565b916102d4565b14612027565b6136ec613770565b565b5f7f416c726561647920706175736564000000000000000000000000000000000000910152565b613722600e602092611433565b61372b816136ee565b0190565b6137449060208101905f818303910152613715565b90565b1561374e57565b613756610291565b62461bcd60e51b81528061376c6004820161372f565b0390fd5b61378a61378561377f5f612098565b15610969565b613747565b61379560015f612155565b336137c07f62e78cea01bee320cd4e420270b5ea74000d11b0c9f74754ebdbfc544b05a2589161038d565b906137c9610291565b806137d3816105f7565b0390a2565b6137e06136c0565b565b6137f16137f7919392936102a3565b926102a3565b916138038382026102a3565b92818404149015171561381257565b611b67565b90565b61382e61382961383392613817565b610330565b6102a3565b90565b634e487b7160e01b5f52601260045260245ffd5b61385661385c916102a3565b916102a3565b908115613867570490565b613836565b6138836138899161387b6129d9565b50600161106d565b506118b4565b6138956005820161049a565b6138a76138a15f611772565b916102a3565b1461392057806139176138bf600461391d940161049a565b91613911600561390a6138f36138d76002860161049a565b6138ed436138e76003890161049a565b90611b7b565b906137e2565b613904670de0b6b3a764000061381a565b906137e2565b920161049a565b9061384a565b90611ba0565b90565b600461392c910161049a565b90565b613938906113dc565b90565b90565b5f7f4e6f2064656e6f6d207365740000000000000000000000000000000000000000910152565b613972600c602092611433565b61397b8161393e565b0190565b6139949060208101905f818303910152613965565b90565b1561399e57565b6139a6610291565b62461bcd60e51b8152806139bc6004820161397f565b0390fd5b5f7f4e6f207072696365000000000000000000000000000000000000000000000000910152565b6139f46008602092611433565b6139fd816139c0565b0190565b613a169060208101905f8183039101526139e7565b90565b15613a2057565b613a28610291565b62461bcd60e51b815280613a3e60048201613a01565b0390fd5b613a56613a51613a5b92610e6a565b610330565b6114c8565b90565b613a72613a6d613a77926114c8565b610330565b6102a3565b90565b5f7f5374616c65207072696365000000000000000000000000000000000000000000910152565b613aae600b602092611433565b613ab781613a7a565b0190565b613ad09060208101905f818303910152613aa1565b90565b15613ada57565b613ae2610291565b62461bcd60e51b815280613af860048201613abb565b0390fd5b613b24613b1f613b5592613b0e6129d9565b50613b176131a5565b5060056112ca565b61392f565b613b50613b38613b338361393b565b61342a565b613b4a613b445f611772565b916102a3565b11613997565b61345a565b9091613b7383613b6d613b675f611772565b916102a3565b11613a19565b613bb1613b9142613b8b613b8686613a42565b613a5e565b90611b7b565b613baa613ba4613b9f611698565b613a5e565b916102a3565b1115613ad3565b565b90613c1b91803390613bd0613bca6001839061106d565b506118b4565b613be5613bdc8361386c565b600483016118d5565b613bf243600383016118d5565b82613c0d613c07613c025f611911565b6102d4565b916102d4565b03613c1d575b505050613c75565b565b613c6d92613c63613c5b6004613c6894613c55613c3b88879061449f565b613c50613c49858b9061034f565b8890610399565b6118d5565b0161049a565b93600361034f565b610399565b6118d5565b5f8080613c13565b613d325f613d3792613ca281613c9c613c96613c916001611060565b6102a3565b916102a3565b10611a3a565b84613cb5613caf84611772565b916102a3565b1180613def575b613cc590611abc565b613d0c613cdd613cd76001849061106d565b506118b4565b91613d06613cf7613cf08993600261034f565b3390610399565b91613d018361049a565b611b7b565b906118d5565b613d2c85613d266005840191613d218361049a565b611b7b565b906118d5565b016110b4565b6109e9565b602063a9059cbb913390613d5e5f8695613d69613d52610291565b97889687958694611eb4565b845260048401611ee7565b03925af18015613dea57613dbe575b5033613db9613da77f0f5bb82176feb1b5e747e28471aa92156a04d9f3ab9f45f28e2d704232b93f759261038d565b92613db0610291565b9182918261040a565b0390a2565b613dde9060203d8111613de3575b613dd68183610d70565b810190611ec9565b613d78565b503d613dcc565b611f0a565b50613cc5613e11613e0c613e056002859061034f565b3390610399565b61049a565b613e23613e1d886102a3565b916102a3565b10159050613cbc565b90613e3691613bb3565b565b613e6590613e6033613e5a613e54613e4f5f611fc1565b6102d4565b916102d4565b14612027565b613f0c565b565b5f7f5a65726f20616464726573730000000000000000000000000000000000000000910152565b613e9b600c602092611433565b613ea481613e67565b0190565b613ebd9060208101905f818303910152613e8e565b90565b15613ec757565b613ecf610291565b62461bcd60e51b815280613ee560048201613ea8565b0390fd5b90565b90613f01613efc613f089261038d565b613ee9565b8254612e42565b9055565b613f8e90613f3581613f2e613f28613f235f611911565b6102d4565b916102d4565b1415613ec0565b613f3e5f611fc1565b81613f72613f6c7f5f56bee8cffbe9a78652a74a60705edede02af10b0bbb888ca44b79a0d42ce809361038d565b9161038d565b91613f7b610291565b80613f85816105f7565b0390a35f613eec565b565b613f9990613e38565b565b61400290803390613fb7613fb16001839061106d565b506118b4565b613fcc613fc38361386c565b600483016118d5565b613fd943600383016118d5565b82613ff4613fee613fe95f611911565b6102d4565b916102d4565b03614004575b5050506140fd565b565b6140549261404a614042600461404f9461403c61402288879061449f565b614037614030858b9061034f565b8890610399565b6118d5565b0161049a565b93600361034f565b610399565b6118d5565b5f8080613ffa565b5f7f4e6f207265776172640000000000000000000000000000000000000000000000910152565b6140906009602092611433565b6140998161405c565b0190565b6140b29060208101905f818303910152614083565b90565b156140bc57565b6140c4610291565b62461bcd60e51b8152806140da6004820161409d565b0390fd5b90565b6140f56140f06140fa926140de565b610330565b6102a3565b90565b614218614213600161420c6141de61412961412461411d6004899061034f565b3390610399565b61049a565b6141458161413f6141395f611772565b916102a3565b116140b5565b61416d61415c82614156600761049a565b906137e2565b6141676127106140e1565b9061384a565b9061418b6141848361417f600961049a565b611ba0565b60096118d5565b6141956008611fc1565b82906141d66141c47f7ed908ff2e40b254ea911b86a8497222ab54394e5961796285735f1e6306179d9261038d565b926141cd610291565b9182918261040a565b0390a2611b7b565b946142066141eb5f611772565b6142016141fa6004859061034f565b3390610399565b6118d5565b8261106d565b50016110b4565b6109e9565b602063a9059cbb91339061423f5f869561424a614233610291565b97889687958694611eb4565b845260048401611ee7565b03925af180156142cb5761429f575b503361429a6142887f106f923f993c2149d49b4255ff723acafa1f2d94393f561d3eda32ae348f72419261038d565b92614291610291565b9182918261040a565b0390a2565b6142bf9060203d81116142c4575b6142b78183610d70565b810190611ec9565b614259565b503d6142ad565b611f0a565b6142d990613f9b565b565b9190916142e75f611772565b5b806143056142ff6142fa8588906116e9565b6102a3565b916102a3565b1015614335576143309061432b6143266143218588859161179d565b6117b2565b6142d0565b61178e565b6142e8565b5090916143439033926116e9565b906143836143717f044bc37604d21701e4e8d7c8cedad91031e37372f43b9e395093995f4bae6e6f9261038d565b9261437a610291565b9182918261040a565b0390a2565b939291936143bc61439a8284906116e9565b6143b66143b06143ab8988906116e9565b6102a3565b916102a3565b14611746565b6143c55f611772565b5b806143e36143dd6143d88587906116e9565b6102a3565b916102a3565b1015614428576144239061441e6144046143ff8587859161179d565b6117b2565b6144186144138a89869161179d565b6117b2565b90612943565b61178e565b6143c6565b50929350614438915033926116e9565b906144786144667f048d4c3e9039f9f2dedf885aa39400640beca71e39ba203a15280faf6ae6b15d9261038d565b9261446f610291565b9182918261040a565b0390a2565b90565b90565b61449761449261449c92614480565b610330565b6102a3565b90565b6144a76129d9565b5061454061451c6145056144cf6144ca6144c36002879061034f565b8790610399565b61049a565b6144ff6144db8661386c565b6144f96144f46144ed60038a9061034f565b8a90610399565b61049a565b90611b7b565b906137e2565b614516670de0b6b3a764000061381a565b9061384a565b61453a61453561452e6004869061034f565b8690610399565b61049a565b90611ba0565b9161455f61455a61455360068590610455565b839061046b565b61447d565b9161456b5f840161049a565b61457d6145775f611772565b916102a3565b11614589575b50505090565b826145fe60026145f76145e0614614966145da614604976145d46145cf6145b55f61461a9f9e0161049a565b946145ca6145c28561386c565b94600361034f565b610399565b61049a565b90611b7b565b906137e2565b6145f1670de0b6b3a764000061381a565b9061384a565b920161049a565b906137e2565b61460e6064614483565b9061384a565b90611ba0565b5f8080614583565b906146509161464b3361464561463f61463a5f611fc1565b6102d4565b916102d4565b14612027565b6146f7565b565b5f7f46656520746f6f20686967680000000000000000000000000000000000000000910152565b614686600c602092611433565b61468f81614652565b0190565b6146a89060208101905f818303910152614679565b90565b156146b257565b6146ba610291565b62461bcd60e51b8152806146d060048201614693565b0390fd5b9160206146f59294936146ee60408201965f8301906103fd565b01906108d7565b565b6147158161470e6147086064614483565b916102a3565b11156146ab565b6147208160076118d5565b61472b826008613eec565b907f644dd1c61188bb408757e77aa2a9eb9f05e0211bbaabda871801653333d1451d91614762614759610291565b928392836146d4565b0390a1565b9061477191614622565b565b6147da9080339061478f6147896001839061106d565b506118b4565b6147a461479b8361386c565b600483016118d5565b6147b143600383016118d5565b826147cc6147c66147c15f611911565b6102d4565b916102d4565b036147dc575b50505061495b565b565b61482c9261482261481a6004614827946148146147fa88879061449f565b61480f614808858b9061034f565b8890610399565b6118d5565b0161049a565b93600361034f565b610399565b6118d5565b5f80806147d2565b5f7f4e6f206c6f636b6564207374616b650000000000000000000000000000000000910152565b614868600f602092611433565b61487181614834565b0190565b61488a9060208101905f81830391015261485b565b90565b1561489457565b61489c610291565b62461bcd60e51b8152806148b260048201614875565b0390fd5b5f7f5374696c6c206c6f636b65640000000000000000000000000000000000000000910152565b6148ea600c602092611433565b6148f3816148b6565b0190565b61490c9060208101905f8183039101526148dd565b90565b1561491657565b61491e610291565b62461bcd60e51b815280614934600482016148f7565b0390fd5b91602061495992949361495260408201965f8301906103fd565b01906103fd565b565b614a919061497d61497861497160068490610455565b339061046b565b61447d565b906149a461498c5f840161049a565b61499e6149985f611772565b916102a3565b1161488d565b6149cc436149c56149bf6149ba6001870161049a565b6102a3565b916102a3565b101561490f565b614a086149da5f840161049a565b614a026149f36149ec6002869061034f565b3390610399565b916149fd8361049a565b611ba0565b906118d5565b33614a145f840161049a565b614a3e7f3f2f29fa02cc34566ac167b446be0be9e0254cac18eda93b2dfe6a7a7c8affb99261038d565b92614a53614a4a610291565b92839283614938565b0390a2614a6a614a625f611772565b5f83016118d5565b614a7f614a765f611772565b600183016118d5565b6002614a8a5f611772565b91016118d5565b565b614a9c90614773565b565b90614aa88261342a565b811015614aba57600160209102010190565b61104c565b60ff60f81b1690565b614ad29051614abf565b90565b90565b60f81b90565b614af2614aed614af792614ad5565b614ad8565b614abf565b90565b90565b614b11614b0c614b1692614afa565b614ad8565b614abf565b90565b90565b614b30614b2b614b3592614b19565b610330565b6102a3565b90565b60f81c90565b60ff1690565b614b58614b53614b5d92614b3e565b610330565b614b3e565b90565b614b6c614b7191614b38565b614b44565b90565b614b88614b83614b8d92614ad5565b610330565b614b3e565b90565b614b9c614ba291614b3e565b91614b3e565b90039060ff8211614baf57565b611b67565b614bc8614bc3614bcd92614b3e565b610330565b6102a3565b90565b90614be2614bdc6129d9565b9261393b565b614beb5f611772565b5b80614c07614c01614bfc8561342a565b6102a3565b916102a3565b1015614cdb57614c20614c1b838390614a9e565b614ac8565b614c33614c2d6030614ade565b91614abf565b101580614cad575b614c4e575b614c499061178e565b614bec565b92614ca5614c69614c4992614c63600a614b1c565b906137e2565b614c9f614c9a614c8a614c85614c80888b90614a9e565b614ac8565b614b60565b614c946030614b74565b90614b90565b614bb4565b90611ba0565b939050614c40565b50614cc1614cbc838390614a9e565b614ac8565b614cd4614cce6039614afd565b91614abf565b1115614c3b565b505056fea26469706673582212207c8686ab4369ecd09a7446e69cddabf36f5e8341bdf099aab1b735bb695e9b0764736f6c634300081e0033","linkReferences":{}},"methodIdentifiers":{"PRICE_LOOKBACK_SECONDS()":"cd94deb0","PRICE_STALENESS_THRESHOLD()":"f25b9caa","accumulatedRewards(uint256,address)":"b347ba59","addPool(address,address,uint256)":"7e29d6c2","availableReserve(address)":"815b3c74","batchClaimReward(uint256[])":"c760da04","batchLockStake(uint256[],uint256[],uint256[],uint256[])":"634babc3","batchStake(uint256[],uint256[])":"d49fab8a","batchUnlockStake(uint256[])":"559f9dda","batchUnstake(uint256[],uint256[])":"277cb4ec","claimProtocolFees()":"4a7d0369","claimReward(uint256)":"ae169a50","earned(uint256,address)":"e39c08fc","getTokenTwap(address)":"97cf739f","getTwap(string)":"80b67fe0","governance()":"5aa6e675","isAuthorizedLender(address)":"d9ab90b4","lendOut(address,address,uint256)":"3b3dcc46","lockStake(uint256,uint256,uint256,uint256)":"369b49b8","lockups(uint256,address)":"15cd5211","lpToken()":"5fcbd285","pause()":"8456cb59","paused()":"5c975abb","pools(uint256)":"ac4afa38","protocolFeeBps()":"35659fb8","protocolFeesAccrued()":"b621e75a","protocolTreasury()":"803db96d","rewardPerToken(uint256)":"874c120b","setAuthorizedLender(address,bool)":"7ee43c8a","setGovernance(address)":"ab033ea9","setProtocolFee(uint256,address)":"ea289d00","setTokenDenom(address,string)":"7b123e84","stake(uint256,uint256)":"7b0472f0","staked(uint256,address)":"4b1da4c9","tokenDenoms(address)":"ccdb987f","unlockStake(uint256)":"ecd8c06a","unpause()":"3f4ba83a","unstake(uint256,uint256)":"9e2c8a5b","userRewardPerTokenPaid(uint256,address)":"00a47ddd"},"id":29}