{"abi":[{"type":"constructor","inputs":[{"name":"_yieldFarm","type":"address","internalType":"address"}],"stateMutability":"nonpayable"},{"type":"function","name":"COLLATERAL_FACTOR","inputs":[],"outputs":[{"name":"","type":"uint256","internalType":"uint256"}],"stateMutability":"view"},{"type":"function","name":"PRICE_LOOKBACK_SECONDS","inputs":[],"outputs":[{"name":"","type":"uint64","internalType":"uint64"}],"stateMutability":"view"},{"type":"function","name":"PRICE_STALENESS_THRESHOLD","inputs":[],"outputs":[{"name":"","type":"uint64","internalType":"uint64"}],"stateMutability":"view"},{"type":"function","name":"availableLiquidity","inputs":[{"name":"token","type":"address","internalType":"address"}],"outputs":[{"name":"","type":"uint256","internalType":"uint256"}],"stateMutability":"view"},{"type":"function","name":"borrow","inputs":[{"name":"asset","type":"address","internalType":"address"},{"name":"amount","type":"uint256","internalType":"uint256"},{"name":"collateral","type":"address","internalType":"address"}],"outputs":[],"stateMutability":"nonpayable"},{"type":"function","name":"borrows","inputs":[{"name":"","type":"address","internalType":"address"},{"name":"","type":"address","internalType":"address"}],"outputs":[{"name":"","type":"uint256","internalType":"uint256"}],"stateMutability":"view"},{"type":"function","name":"claimProtocolFees","inputs":[],"outputs":[],"stateMutability":"nonpayable"},{"type":"function","name":"deposit","inputs":[{"name":"asset","type":"address","internalType":"address"},{"name":"amount","type":"uint256","internalType":"uint256"}],"outputs":[],"stateMutability":"nonpayable"},{"type":"function","name":"depositAndBorrow","inputs":[{"name":"collateral","type":"address","internalType":"address"},{"name":"depositAmount","type":"uint256","internalType":"uint256"},{"name":"asset","type":"address","internalType":"address"},{"name":"borrowAmount","type":"uint256","internalType":"uint256"}],"outputs":[],"stateMutability":"nonpayable"},{"type":"function","name":"deposits","inputs":[{"name":"","type":"address","internalType":"address"},{"name":"","type":"address","internalType":"address"}],"outputs":[{"name":"","type":"uint256","internalType":"uint256"}],"stateMutability":"view"},{"type":"function","name":"getBorrowValue","inputs":[{"name":"asset","type":"address","internalType":"address"},{"name":"amount","type":"uint256","internalType":"uint256"}],"outputs":[{"name":"","type":"uint256","internalType":"uint256"}],"stateMutability":"view"},{"type":"function","name":"getCollateralValue","inputs":[{"name":"user","type":"address","internalType":"address"},{"name":"collateral","type":"address","internalType":"address"}],"outputs":[{"name":"","type":"uint256","internalType":"uint256"}],"stateMutability":"view"},{"type":"function","name":"getTokenTwap","inputs":[{"name":"token","type":"address","internalType":"address"}],"outputs":[{"name":"price","type":"uint256","internalType":"uint256"},{"name":"oracleLastUpdate","type":"int64","internalType":"int64"}],"stateMutability":"view"},{"type":"function","name":"getTwap","inputs":[{"name":"denom","type":"string","internalType":"string"}],"outputs":[{"name":"price","type":"uint256","internalType":"uint256"},{"name":"oracleLastUpdate","type":"int64","internalType":"int64"}],"stateMutability":"view"},{"type":"function","name":"governance","inputs":[],"outputs":[{"name":"","type":"address","internalType":"address"}],"stateMutability":"view"},{"type":"function","name":"healthFactor","inputs":[{"name":"user","type":"address","internalType":"address"},{"name":"collateral","type":"address","internalType":"address"}],"outputs":[{"name":"","type":"uint256","internalType":"uint256"}],"stateMutability":"view"},{"type":"function","name":"liquidate","inputs":[{"name":"user","type":"address","internalType":"address"},{"name":"collateral","type":"address","internalType":"address"}],"outputs":[],"stateMutability":"nonpayable"},{"type":"function","name":"pause","inputs":[],"outputs":[],"stateMutability":"nonpayable"},{"type":"function","name":"paused","inputs":[],"outputs":[{"name":"","type":"bool","internalType":"bool"}],"stateMutability":"view"},{"type":"function","name":"protocolFeeBps","inputs":[],"outputs":[{"name":"","type":"uint256","internalType":"uint256"}],"stateMutability":"view"},{"type":"function","name":"protocolFeesAccrued","inputs":[],"outputs":[{"name":"","type":"uint256","internalType":"uint256"}],"stateMutability":"view"},{"type":"function","name":"protocolTreasury","inputs":[],"outputs":[{"name":"","type":"address","internalType":"address"}],"stateMutability":"view"},{"type":"function","name":"repay","inputs":[{"name":"asset","type":"address","internalType":"address"},{"name":"amount","type":"uint256","internalType":"uint256"}],"outputs":[],"stateMutability":"nonpayable"},{"type":"function","name":"setGovernance","inputs":[{"name":"newGovernance","type":"address","internalType":"address"}],"outputs":[],"stateMutability":"nonpayable"},{"type":"function","name":"setProtocolFee","inputs":[{"name":"newFeeBps","type":"uint256","internalType":"uint256"},{"name":"newTreasury","type":"address","internalType":"address"}],"outputs":[],"stateMutability":"nonpayable"},{"type":"function","name":"setTokenDenom","inputs":[{"name":"token","type":"address","internalType":"address"},{"name":"denom","type":"string","internalType":"string"}],"outputs":[],"stateMutability":"nonpayable"},{"type":"function","name":"tokenDenoms","inputs":[{"name":"","type":"address","internalType":"address"}],"outputs":[{"name":"","type":"string","internalType":"string"}],"stateMutability":"view"},{"type":"function","name":"unpause","inputs":[],"outputs":[],"stateMutability":"nonpayable"},{"type":"function","name":"yieldFarm","inputs":[],"outputs":[{"name":"","type":"address","internalType":"contract BarukYieldFarm"}],"stateMutability":"view"},{"type":"event","name":"Borrowed","inputs":[{"name":"user","type":"address","indexed":true,"internalType":"address"},{"name":"asset","type":"address","indexed":true,"internalType":"address"},{"name":"amount","type":"uint256","indexed":false,"internalType":"uint256"},{"name":"collateral","type":"address","indexed":false,"internalType":"address"}],"anonymous":false},{"type":"event","name":"Deposited","inputs":[{"name":"user","type":"address","indexed":true,"internalType":"address"},{"name":"asset","type":"address","indexed":true,"internalType":"address"},{"name":"amount","type":"uint256","indexed":false,"internalType":"uint256"}],"anonymous":false},{"type":"event","name":"GovernanceTransferred","inputs":[{"name":"previousGovernance","type":"address","indexed":true,"internalType":"address"},{"name":"newGovernance","type":"address","indexed":true,"internalType":"address"}],"anonymous":false},{"type":"event","name":"Liquidated","inputs":[{"name":"user","type":"address","indexed":true,"internalType":"address"},{"name":"collateral","type":"address","indexed":true,"internalType":"address"},{"name":"amount","type":"uint256","indexed":false,"internalType":"uint256"}],"anonymous":false},{"type":"event","name":"Paused","inputs":[{"name":"by","type":"address","indexed":true,"internalType":"address"}],"anonymous":false},{"type":"event","name":"ProtocolFeeAccrued","inputs":[{"name":"treasury","type":"address","indexed":true,"internalType":"address"},{"name":"amount","type":"uint256","indexed":false,"internalType":"uint256"}],"anonymous":false},{"type":"event","name":"ProtocolFeeClaimed","inputs":[{"name":"treasury","type":"address","indexed":true,"internalType":"address"},{"name":"amount","type":"uint256","indexed":false,"internalType":"uint256"}],"anonymous":false},{"type":"event","name":"ProtocolFeeSet","inputs":[{"name":"newFeeBps","type":"uint256","indexed":false,"internalType":"uint256"},{"name":"newTreasury","type":"address","indexed":false,"internalType":"address"}],"anonymous":false},{"type":"event","name":"Repaid","inputs":[{"name":"user","type":"address","indexed":true,"internalType":"address"},{"name":"asset","type":"address","indexed":true,"internalType":"address"},{"name":"amount","type":"uint256","indexed":false,"internalType":"uint256"}],"anonymous":false},{"type":"event","name":"TokenDenomSet","inputs":[{"name":"token","type":"address","indexed":true,"internalType":"address"},{"name":"denom","type":"string","indexed":false,"internalType":"string"}],"anonymous":false},{"type":"event","name":"Unpaused","inputs":[{"name":"by","type":"address","indexed":true,"internalType":"address"}],"anonymous":false}],"bytecode":{"object":"0x60806040523461002f576100196100146100f4565b610231565b610021610034565b61388b61025c823961388b90f35b61003a565b60405190565b5f80fd5b601f801991011690565b634e487b7160e01b5f52604160045260245ffd5b906100669061003e565b810190811060018060401b0382111761007e57604052565b610048565b9061009661008f610034565b928361005c565b565b5f80fd5b60018060a01b031690565b6100b09061009c565b90565b6100bc816100a7565b036100c357565b5f80fd5b905051906100d4826100b3565b565b906020828203126100ef576100ec915f016100c7565b90565b610098565b610112613ae78038038061010781610083565b9283398101906100d6565b90565b5f1b90565b906101265f1991610115565b9181191691161790565b90565b90565b90565b61014d61014861015292610130565b610136565b610133565b90565b90565b9061016d61016861017492610139565b610155565b825461011a565b9055565b9061018960018060a01b0391610115565b9181191691161790565b6101a76101a26101ac9261009c565b610136565b61009c565b90565b6101b890610193565b90565b6101c4906101af565b90565b90565b906101df6101da6101e6926101bb565b6101c7565b8254610178565b9055565b6101f390610193565b90565b6101ff906101ea565b90565b61020b906101ea565b90565b90565b9061022661022161022d92610202565b61020e565b8254610178565b9055565b61025261025991610243600580610158565b61024d335f6101ca565b6101f6565b6003610211565b56fe60806040526004361015610013575b611049565b61001d5f356101ec565b806317f49e05146101e7578063181f37c8146101e25780631e092efb146101dd5780631eee3aa3146101d857806322867d78146101d357806335659fb8146101ce5780633f4ba83a146101c957806347e7ef24146101c45780634a7d0369146101bf578063576f5c40146101ba5780635aa6e675146101b55780635c975abb146101b05780636ae096cc146101ab5780636c29219c146101a65780636c665a55146101a15780637b123e841461019c578063803db96d1461019757806380b67fe0146101925780638456cb591461018d57806386b9d81f146101885780638f601f661461018357806397cf739f1461017e578063ab033ea914610179578063b621e75a14610174578063ccdb987f1461016f578063cd94deb01461016a578063ea289d0014610165578063f25b9caa146101605763f978a5ee0361000e57611012565b610f97565b610f4b565b610ee9565b610e4e565b610c53565b610c11565b610bdb565b610ba5565b610b50565b610b1d565b610ae7565b610960565b61091d565b610858565b6107e8565b610759565b610724565b61068d565b6105f6565b6105c3565b61058f565b61055c565b610527565b6104bb565b610430565b6103ce565b6102ff565b61026e565b60e01c90565b60405190565b5f80fd5b5f80fd5b5f91031261020a57565b6101fc565b90565b90565b90565b61022c6102276102319261020f565b610215565b610212565b90565b61023e6096610218565b90565b610249610234565b90565b61025590610212565b9052565b919061026c905f6020850194019061024c565b565b3461029e5761027e366004610200565b61029a610289610241565b6102916101f2565b91829182610259565b0390f35b6101f8565b5f80fd5b60018060a01b031690565b6102bb906102a7565b90565b6102c7816102b2565b036102ce57565b5f80fd5b905035906102df826102be565b565b906020828203126102fa576102f7915f016102d2565b90565b6101fc565b3461032f5761032b61031a6103153660046102e1565b6110be565b6103226101f2565b91829182610259565b0390f35b6101f8565b1c90565b60018060a01b031690565b6103539060086103589302610334565b610338565b90565b906103669154610343565b90565b61037560035f9061035b565b90565b61038c610387610391926102a7565b610215565b6102a7565b90565b61039d90610378565b90565b6103a990610394565b90565b6103b5906103a0565b9052565b91906103cc905f602085019401906103ac565b565b346103fe576103de366004610200565b6103fa6103e9610369565b6103f16101f2565b918291826103b9565b0390f35b6101f8565b919060408382031261042b578061041f610428925f86016102d2565b936020016102d2565b90565b6101fc565b346104615761045d61044c610446366004610403565b9061120e565b6104546101f2565b91829182610259565b0390f35b6101f8565b61046f81610212565b0361047657565b5f80fd5b9050359061048782610466565b565b91906040838203126104b157806104a56104ae925f86016102d2565b9360200161047a565b90565b6101fc565b5f0190565b346104ea576104d46104ce366004610489565b9061171e565b6104dc6101f2565b806104e6816104b6565b0390f35b6101f8565b90565b6105029060086105079302610334565b6104ef565b90565b9061051591546104f2565b90565b61052460055f9061050a565b90565b3461055757610537366004610200565b610553610542610518565b61054a6101f2565b91829182610259565b0390f35b6101f8565b3461058a5761056c366004610200565b610574611901565b61057c6101f2565b80610586816104b6565b0390f35b6101f8565b346105be576105a86105a2366004610489565b90611a5f565b6105b06101f2565b806105ba816104b6565b0390f35b6101f8565b346105f1576105d3366004610200565b6105db611b93565b6105e36101f2565b806105ed816104b6565b0390f35b6101f8565b346106275761062361061261060c366004610403565b90611c9a565b61061a6101f2565b91829182610259565b0390f35b6101f8565b60018060a01b031690565b61064790600861064c9302610334565b61062c565b90565b9061065a9154610637565b90565b6106685f5f9061064f565b90565b610674906102b2565b9052565b919061068b905f6020850194019061066b565b565b346106bd5761069d366004610200565b6106b96106a861065d565b6106b06101f2565b91829182610678565b0390f35b6101f8565b60ff1690565b6106d89060086106dd9302610334565b6106c2565b90565b906106eb91546106c8565b90565b6106fa60085f906106e0565b90565b151590565b61070b906106fd565b9052565b9190610722905f60208501940190610702565b565b3461075457610734366004610200565b61075061073f6106ee565b6107476101f2565b9182918261070f565b0390f35b6101f8565b3461078a5761078661077561076f366004610489565b90611d3f565b61077d6101f2565b91829182610259565b0390f35b6101f8565b61079890610394565b90565b906107a59061078f565b5f5260205260405f2090565b906107bb9061078f565b5f5260205260405f2090565b6107e06107e5926107db6002935f9461079b565b6107b1565b61050a565b90565b34610819576108156108046107fe366004610403565b906107c7565b61080c6101f2565b91829182610259565b0390f35b6101f8565b909160608284031261085357610850610839845f85016102d2565b93610847816020860161047a565b936040016102d2565b90565b6101fc565b346108875761087161086b36600461081e565b91612185565b6108796101f2565b80610883816104b6565b0390f35b6101f8565b5f80fd5b5f80fd5b5f80fd5b909182601f830112156108d25781359167ffffffffffffffff83116108cd5760200192600183028401116108c857565b610894565b610890565b61088c565b919091604081840312610918576108f0835f83016102d2565b92602082013567ffffffffffffffff81116109135761090f9201610898565b9091565b6102a3565b6101fc565b3461094c576109366109303660046108d7565b91612443565b61093e6101f2565b80610948816104b6565b0390f35b6101f8565b61095d60065f9061064f565b90565b3461099057610970366004610200565b61098c61097b610951565b6109836101f2565b91829182610678565b0390f35b6101f8565b5f80fd5b601f801991011690565b634e487b7160e01b5f52604160045260245ffd5b906109c190610999565b810190811067ffffffffffffffff8211176109db57604052565b6109a3565b906109f36109ec6101f2565b92836109b7565b565b67ffffffffffffffff8111610a1357610a0f602091610999565b0190565b6109a3565b90825f939282370152565b90929192610a38610a33826109f5565b6109e0565b93818552602085019082840111610a5457610a5292610a18565b565b610995565b9080601f83011215610a7757816020610a7493359101610a23565b90565b61088c565b90602082820312610aac575f82013567ffffffffffffffff8111610aa757610aa49201610a59565b90565b6102a3565b6101fc565b60070b90565b610ac090610ab1565b9052565b916020610ae5929493610ade60408201965f83019061024c565b0190610ab7565b565b34610b1857610aff610afa366004610a7c565b612728565b90610b14610b0b6101f2565b92839283610ac4565b0390f35b6101f8565b34610b4b57610b2d366004610200565b610b356129fb565b610b3d6101f2565b80610b47816104b6565b0390f35b6101f8565b34610b7f57610b69610b63366004610403565b90612b7e565b610b716101f2565b80610b7b816104b6565b0390f35b6101f8565b610b9d610ba292610b986001935f9461079b565b6107b1565b61050a565b90565b34610bd657610bd2610bc1610bbb366004610403565b90610b84565b610bc96101f2565b91829182610259565b0390f35b6101f8565b34610c0c57610bf3610bee3660046102e1565b612d57565b90610c08610bff6101f2565b92839283610ac4565b0390f35b6101f8565b34610c3f57610c29610c243660046102e1565b612fa9565b610c316101f2565b80610c3b816104b6565b0390f35b6101f8565b610c5060075f9061050a565b90565b34610c8357610c63366004610200565b610c7f610c6e610c44565b610c766101f2565b91829182610259565b0390f35b6101f8565b90610c929061078f565b5f5260205260405f2090565b634e487b7160e01b5f525f60045260245ffd5b634e487b7160e01b5f52602260045260245ffd5b9060016002830492168015610ce5575b6020831014610ce057565b610cb1565b91607f1691610cd5565b60209181520190565b5f5260205f2090565b905f9291805490610d1b610d1483610cc5565b8094610cef565b916001811690815f14610d725750600114610d36575b505050565b610d439192939450610cf8565b915f925b818410610d5a57505001905f8080610d31565b60018160209295939554848601520191019290610d47565b92949550505060ff19168252151560200201905f8080610d31565b90610d9791610d01565b90565b90610dba610db392610daa6101f2565b93848092610d8d565b03836109b7565b565b905f10610dcf57610dcc90610d9a565b90565b610c9e565b610dea90610de56004915f92610c88565b610dbc565b90565b5190565b60209181520190565b90825f9392825e0152565b610e24610e2d602093610e3293610e1b81610ded565b93848093610df1565b95869101610dfa565b610999565b0190565b610e4b9160208201915f818403910152610e05565b90565b34610e7e57610e7a610e69610e643660046102e1565b610dd4565b610e716101f2565b91829182610e36565b0390f35b6101f8565b90565b67ffffffffffffffff1690565b610ea7610ea2610eac92610e83565b610215565b610e86565b90565b610eb9603c610e93565b90565b610ec4610eaf565b90565b610ed090610e86565b9052565b9190610ee7905f60208501940190610ec7565b565b34610f1957610ef9366004610200565b610f15610f04610ebc565b610f0c6101f2565b91829182610ed4565b0390f35b6101f8565b9190604083820312610f465780610f3a610f43925f860161047a565b936020016102d2565b90565b6101fc565b34610f7a57610f64610f5e366004610f1e565b906130d6565b610f6c6101f2565b80610f76816104b6565b0390f35b6101f8565b610f89603c610e93565b90565b610f94610f7f565b90565b34610fc757610fa7366004610200565b610fc3610fb2610f8c565b610fba6101f2565b91829182610ed4565b0390f35b6101f8565b60808183031261100d57610fe2825f83016102d2565b9261100a610ff3846020850161047a565b9361100181604086016102d2565b9360600161047a565b90565b6101fc565b346110445761102e611025366004610fcc565b92919091613606565b6110366101f2565b80611040816104b6565b0390f35b6101f8565b5f80fd5b5f90565b5f1c90565b61106261106791611051565b610338565b90565b6110749054611056565b90565b5f80fd5b60e01b90565b9050519061108e82610466565b565b906020828203126110a9576110a6915f01611081565b90565b6101fc565b6110b66101f2565b3d5f823e3d90fd5b6020611106916110cc61104d565b506110df6110da600361106a565b6103a0565b6110fb63815b3c746110ef6101f2565b9586948593849361107b565b835260048301610678565b03915afa90811561114a575f9161111c575b5090565b61113d915060203d8111611143575b61113581836109b7565b810190611090565b5f611118565b503d61112b565b6110ae565b61115b61116091611051565b6104ef565b90565b61116d905461114f565b90565b634e487b7160e01b5f52601160045260245ffd5b61119361119991939293610212565b92610212565b916111a5838202610212565b9281840414901517156111b457565b611170565b90565b6111d06111cb6111d5926111b9565b610215565b610212565b90565b634e487b7160e01b5f52601260045260245ffd5b6111f86111fe91610212565b91610212565b908115611209570490565b6111d8565b6112499061124461123f6112609461122461104d565b5061123a61123182612d57565b5094600161079b565b6107b1565b611163565b611184565b61125a670de0b6b3a76400006111bc565b906111ec565b90565b61126f61127491611051565b6106c2565b90565b6112819054611263565b90565b5f7f5061757365640000000000000000000000000000000000000000000000000000910152565b6112b86006602092610df1565b6112c181611284565b0190565b6112da9060208101905f8183039101526112ab565b90565b156112e457565b6112ec6101f2565b62461bcd60e51b815280611302600482016112c5565b0390fd5b9061132b9161132661132161131b6008611277565b156106fd565b6112dd565b611555565b565b90565b61134461133f6113499261132d565b610215565b610212565b90565b5f7f5a65726f20616d6f756e74000000000000000000000000000000000000000000910152565b611380600b602092610df1565b6113898161134c565b0190565b6113a29060208101905f818303910152611373565b90565b156113ac57565b6113b46101f2565b62461bcd60e51b8152806113ca6004820161138d565b0390fd5b90565b6113e56113e06113ea926113ce565b610215565b610212565b90565b6113fc61140291939293610212565b92610212565b820180921161140d57565b611170565b5f1b90565b906114235f1991611412565b9181191691161790565b61144161143c61144692610212565b610215565b610212565b90565b90565b9061146161145c6114689261142d565b611449565b8254611417565b9055565b61147861147d91611051565b61062c565b90565b61148a905461146c565b90565b61149c6114a291939293610212565b92610212565b82039182116114ad57565b611170565b6114bb90610378565b90565b6114c7906114b2565b90565b6114d390610394565b90565b6114df90610394565b90565b6114eb816106fd565b036114f257565b5f80fd5b90505190611503826114e2565b565b9060208282031261151e5761151b915f016114f6565b90565b6101fc565b60409061154c611553949695939661154260608401985f85019061066b565b602083019061066b565b019061024c565b565b906115728161156c6115665f611330565b91610212565b116113a5565b61160e61159d61158c836115866005611163565b90611184565b6115976127106113d1565b906111ec565b6115ba6115b3826115ae6007611163565b6113ed565b600761144c565b6115c46006611480565b81906116056115f37f7ed908ff2e40b254ea911b86a8497222ab54394e5961796285735f1e6306179d9261078f565b926115fc6101f2565b91829182610259565b0390a28261148d565b90602061162261161d856114be565b6114ca565b6323b872dd9061164f5f339361165a61163a306114d6565b976116436101f2565b9889978896879561107b565b855260048501611523565b03925af18015611719576116ed575b5061169c816116966116876116806002339061079b565b86906107b1565b9161169183611163565b61148d565b9061144c565b339190916116e86116d66116d07f0a3fbbea70e93f2daafa3102f5c9a1b8315e6d7a1e43e4bc020bc1162327470a9361078f565b9361078f565b936116df6101f2565b91829182610259565b0390a3565b61170d9060203d8111611712575b61170581836109b7565b810190611505565b611669565b503d6116fb565b6110ae565b9061172891611306565b565b5f7f4e6f7420676f7665726e616e6365000000000000000000000000000000000000910152565b61175e600e602092610df1565b6117678161172a565b0190565b6117809060208101905f818303910152611751565b90565b1561178a57565b6117926101f2565b62461bcd60e51b8152806117a86004820161176b565b0390fd5b6117d0336117ca6117c46117bf5f611480565b6102b2565b916102b2565b14611783565b6117d86118a1565b565b5f7f4e6f742070617573656400000000000000000000000000000000000000000000910152565b61180e600a602092610df1565b611817816117da565b0190565b6118309060208101905f818303910152611801565b90565b1561183a57565b6118426101f2565b62461bcd60e51b8152806118586004820161181b565b0390fd5b9061186860ff91611412565b9181191691161790565b61187b906106fd565b90565b90565b9061189661189161189d92611872565b61187e565b825461185c565b9055565b6118b36118ae6008611277565b611833565b6118be5f6008611881565b336118e97f5db9ee0a495bf2e6ff9c91a7834c1ba4fdd244a5e8aa4e537bd38aeae4b073aa9161078f565b906118f26101f2565b806118fc816104b6565b0390a2565b6119096117ac565b565b906119309161192b6119266119206008611277565b156106fd565b6112dd565b611932565b565b9061194f816119496119435f611330565b91610212565b116113a5565b61196061195b836114be565b6114ca565b60206323b872dd9133906119905f611977306114d6565b9561199b886119846101f2565b9889978896879561107b565b855260048501611523565b03925af18015611a5a57611a2e575b506119dd816119d76119c86119c16001339061079b565b86906107b1565b916119d283611163565b6113ed565b9061144c565b33919091611a29611a17611a117f8752a472e571a816aea92eec8dae9baf628e840f4929fbcc2d155e6233ff68a79361078f565b9361078f565b93611a206101f2565b91829182610259565b0390a3565b611a4e9060203d8111611a53575b611a4681836109b7565b810190611505565b6119aa565b503d611a3c565b6110ae565b90611a699161190b565b565b5f7f4e6f742074726561737572790000000000000000000000000000000000000000910152565b611a9f600c602092610df1565b611aa881611a6b565b0190565b611ac19060208101905f818303910152611a92565b90565b15611acb57565b611ad36101f2565b62461bcd60e51b815280611ae960048201611aac565b0390fd5b5f7f4e6f206665657300000000000000000000000000000000000000000000000000910152565b611b216007602092610df1565b611b2a81611aed565b0190565b611b439060208101905f818303910152611b14565b90565b15611b4d57565b611b556101f2565b62461bcd60e51b815280611b6b60048201611b2e565b0390fd5b611b7890610378565b90565b611b8490611b6f565b90565b611b9090610394565b90565b611bb833611bb2611bac611ba76006611480565b6102b2565b916102b2565b14611ac4565b611bc26007611163565b611bde81611bd8611bd25f611330565b91610212565b11611b46565b611bf1611bea5f611330565b600761144c565b5f808080611c0f611c0a611c056006611480565b611b7b565b611b87565b8590828215611c72575bf115611c6d57611c296006611480565b611c68611c567f0f7f5b155b0b0ac6890709a2c7bf1b8bb3f675fff1e7840b4dd3c9acde59048b9261078f565b92611c5f6101f2565b91829182610259565b0390a2565b6110ae565b506108fc611c19565b90565b611c92611c8d611c9792611c7b565b610215565b610212565b90565b90611ccf611cd491611caa61104d565b50611cca611cb985839061120e565b94611cc261104d565b50600261079b565b6107b1565b611163565b80611ce7611ce15f611330565b91610212565b14611d3857611d2f611d1f611d10611d3594611d0a670de0b6b3a76400006111bc565b90611184565b92611d19610234565b90611184565b611d296064611c7e565b906111ec565b906111ec565b90565b50505f1990565b611d7691611d58611d5f92611d5261104d565b50612d57565b5090611184565b611d70670de0b6b3a76400006111bc565b906111ec565b90565b90611d9f9291611d9a611d95611d8f6008611277565b156106fd565b6112dd565b611ed7565b565b5f7f496e73756666696369656e7420636f6c6c61746572616c000000000000000000910152565b611dd56017602092610df1565b611dde81611da1565b0190565b611df79060208101905f818303910152611dc8565b90565b15611e0157565b611e096101f2565b62461bcd60e51b815280611e1f60048201611de2565b0390fd5b5f7f496e73756666696369656e74206c697175696469747920696e206661726d0000910152565b611e57601e602092610df1565b611e6081611e23565b0190565b611e799060208101905f818303910152611e4a565b90565b15611e8357565b611e8b6101f2565b62461bcd60e51b815280611ea160048201611e64565b0390fd5b5f910312611eaf57565b6101fc565b916020611ed5929493611ece60408201965f83019061024c565b019061066b565b565b90611f6f90611f31611eea33869061120e565b611f2a611f24611f1f611f0f611f01898890611d3f565b611f09610234565b90611184565b611f196064611c7e565b906111ec565b610212565b91610212565b1015611dfa565b6020611f45611f40600361106a565b6103a0565b63815b3c7490611f648692611f586101f2565b9687948593849361107b565b835260048301610678565b03915afa9182156121805761203c92611fa3915f91612152575b50611f9c611f9684610212565b91610212565b1015611e7c565b611fcb611fba82611fb46005611163565b90611184565b611fc56127106113d1565b906111ec565b90611fe9611fe283611fdd6007611163565b6113ed565b600761144c565b611ff36006611480565b82906120346120227f7ed908ff2e40b254ea911b86a8497222ab54394e5961796285735f1e6306179d9261078f565b9261202b6101f2565b91829182610259565b0390a261148d565b9061204f61204a600361106a565b6103a0565b633b3dcc468233928592813b1561214d575f61207e9161208982966120726101f2565b9889978896879561107b565b855260048501611523565b03925af180156121485761211c575b506120cb826120c56120b66120af6002339061079b565b85906107b1565b916120c083611163565b6113ed565b9061144c565b339091926121026120fc7f6307558490eadb9b37b03c11433d50aef004f9316be36f5d959936dfed4d5a729361078f565b9361078f565b9361211761210e6101f2565b92839283611eb4565b0390a3565b61213b905f3d8111612141575b61213381836109b7565b810190611ea5565b5f612098565b503d612129565b6110ae565b611077565b612173915060203d8111612179575b61216b81836109b7565b810190611090565b5f611f89565b503d612161565b6110ae565b906121909291611d79565b565b906121c192916121bc336121b66121b06121ab5f611480565b6102b2565b916102b2565b14611783565b6123e6565b565b5090565b601f602091010490565b1b90565b919060086121f09102916121ea5f19846121d1565b926121d1565b9181191691161790565b919061221061220b6122189361142d565b611449565b9083546121d5565b9055565b61222e9161222861104d565b916121fa565b565b5b81811061223c575050565b806122495f60019361221c565b01612231565b9190601f811161225f575b505050565b61226b61229093610cf8565b906020612277846121c7565b83019310612298575b612289906121c7565b0190612230565b5f808061225a565b915061228981929050612280565b906122b6905f1990600802610334565b191690565b816122c5916122a6565b906002021790565b916122d890826121c3565b9067ffffffffffffffff8211612397576122fc826122f68554610cc5565b8561224f565b5f90601f831160011461232f5791809161231e935f92612323575b50506122bb565b90555b565b90915001355f80612317565b601f1983169161233e85610cf8565b925f5b81811061237f57509160029391856001969410612365575b50505002019055612321565b612375910135601f8416906122a6565b90555f8080612359565b91936020600181928787013581550195019201612341565b6109a3565b906123a792916122cd565b565b91906123c3816123bc816123c895610df1565b8095610a18565b610999565b0190565b90916123e39260208301925f8185039101526123a9565b90565b6123fd8284906123f860048590610c88565b61239c565b90916124297f3aef37e65dd9a1bdeaf86293131fd470f231e87f3c0426a1a43b3fa8a789f6359261078f565b9261243e6124356101f2565b928392836123cc565b0390a2565b9061244e9291612192565b565b5f90565b61245d90610378565b90565b61246990612454565b90565b612477611008612460565b90565b61248390610394565b90565b67ffffffffffffffff811161249e5760208091020190565b6109a3565b5f80fd5b5f80fd5b909291926124c06124bb826109f5565b6109e0565b938185526020850190828401116124dc576124da92610dfa565b565b610995565b9080601f830112156124ff578160206124fc935191016124ab565b90565b61088c565b61250d81610ab1565b0361251457565b5f80fd5b9050519061252582612504565b565b9190916060818403126125a45761253e60606109e0565b925f82015167ffffffffffffffff811161259f578161255e9184016124e1565b5f85015260208201519167ffffffffffffffff831161259a57612586826125939483016124e1565b6020860152604001612518565b6040830152565b6124a7565b6124a7565b6124a3565b9291906125bd6125b882612486565b6109e0565b93818552602080860192028101918383116126145781905b8382106125e3575050505050565b815167ffffffffffffffff811161260f576020916126048784938701612527565b8152019101906125d5565b61088c565b610894565b9080601f8301121561263757816020612634935191016125a9565b90565b61088c565b9060208282031261266c575f82015167ffffffffffffffff8111612667576126649201612619565b90565b6102a3565b6101fc565b600161267d9101610212565b90565b5190565b634e487b7160e01b5f52603260045260245ffd5b906126a282612680565b8110156126b3576020809102010190565b612684565b905090565b6126e26126d9926020926126d081610ded565b948580936126b8565b93849101610dfa565b0190565b6126ef916126bd565b90565b60200190565b5190565b90565b6127099051610ab1565b90565b61272061271b6127259261132d565b610215565b610ab1565b90565b61273061104d565b50612739612450565b5061277f5f61274e61274961246c565b61247a565b63cd44a6589061277461275f610eaf565b926127686101f2565b9586948593849361107b565b835260048301610ed4565b03915afa9081156128dc575f916128ba575b509161279c5f611330565b5b806127b86127b26127ad87612680565b610212565b91610212565b101561289e576127e76127f65f6127d0878590612698565b5101516127db6101f2565b928391602083016126e6565b602082018103825203826109b7565b612808612802826126f8565b916126f2565b2061285761285161282a6128398761281e6101f2565b928391602083016126e6565b602082018103825203826109b7565b61284b612845826126f8565b916126f2565b206126fc565b916126fc565b1461286a5761286590612671565b61279d565b61289b91925061289460409161288e6020612886888490612698565b510151613746565b95612698565b51016126ff565b90565b509150505f906128b76128b15f93611330565b9261270c565b90565b6128d691503d805f833e6128ce81836109b7565b81019061263c565b5f612791565b6110ae565b612905336128ff6128f96128f45f611480565b6102b2565b916102b2565b14611783565b61290d612991565b565b5f7f416c726561647920706175736564000000000000000000000000000000000000910152565b612943600e602092610df1565b61294c8161290f565b0190565b6129659060208101905f818303910152612936565b90565b1561296f57565b6129776101f2565b62461bcd60e51b81528061298d60048201612950565b0390fd5b6129ac6129a76129a16008611277565b156106fd565b612968565b6129b860016008611881565b336129e37f62e78cea01bee320cd4e420270b5ea74000d11b0c9f74754ebdbfc544b05a2589161078f565b906129ec6101f2565b806129f6816104b6565b0390a2565b612a036128e1565b565b90612a3391612a2e33612a28612a22612a1d5f611480565b6102b2565b916102b2565b14611783565b612a35565b565b90612a5a91612a55612a50612a4a6008611277565b156106fd565b6112dd565b612b00565b565b5f7f4865616c74687920706f736974696f6e00000000000000000000000000000000910152565b612a906010602092610df1565b612a9981612a5c565b0190565b612ab29060208101905f818303910152612a83565b90565b15612abc57565b612ac46101f2565b62461bcd60e51b815280612ada60048201612a9d565b0390fd5b612ae790611330565b9052565b9190612afe905f60208501940190612ade565b565b612b2e612b0e828490611c9a565b612b28612b22670de0b6b3a76400006111bc565b91610212565b10612ab5565b905f91612b79612b67612b617fde0aa27286f5cb3a4ed853dc4823ead62d63e92cdf13de09d6aece56970721a49361078f565b9361078f565b93612b706101f2565b91829182612aeb565b0390a3565b90612b8891612a05565b565b612b9390610d9a565b90565b90565b5f7f4e6f2064656e6f6d207365740000000000000000000000000000000000000000910152565b612bcd600c602092610df1565b612bd681612b99565b0190565b612bef9060208101905f818303910152612bc0565b90565b15612bf957565b612c016101f2565b62461bcd60e51b815280612c1760048201612bda565b0390fd5b5f7f4e6f207072696365000000000000000000000000000000000000000000000000910152565b612c4f6008602092610df1565b612c5881612c1b565b0190565b612c719060208101905f818303910152612c42565b90565b15612c7b57565b612c836101f2565b62461bcd60e51b815280612c9960048201612c5c565b0390fd5b612cb1612cac612cb692610ab1565b610215565b610e86565b90565b612ccd612cc8612cd292610e86565b610215565b610212565b90565b5f7f5374616c65207072696365000000000000000000000000000000000000000000910152565b612d09600b602092610df1565b612d1281612cd5565b0190565b612d2b9060208101905f818303910152612cfc565b90565b15612d3557565b612d3d6101f2565b62461bcd60e51b815280612d5360048201612d16565b0390fd5b612d7f612d7a612db092612d6961104d565b50612d72612450565b506004610c88565b612b8a565b612dab612d93612d8e83612b96565b6126f8565b612da5612d9f5f611330565b91610212565b11612bf2565b612728565b9091612dce83612dc8612dc25f611330565b91610212565b11612c74565b612e0c612dec42612de6612de186612c9d565b612cb9565b9061148d565b612e05612dff612dfa610f7f565b612cb9565b91610212565b1115612d2e565b565b612e3b90612e3633612e30612e2a612e255f611480565b6102b2565b916102b2565b14611783565b612f25565b565b612e51612e4c612e569261132d565b610215565b6102a7565b90565b612e6290612e3d565b90565b5f7f5a65726f20616464726573730000000000000000000000000000000000000000910152565b612e99600c602092610df1565b612ea281612e65565b0190565b612ebb9060208101905f818303910152612e8c565b90565b15612ec557565b612ecd6101f2565b62461bcd60e51b815280612ee360048201612ea6565b0390fd5b90612ef860018060a01b0391611412565b9181191691161790565b90565b90612f1a612f15612f219261078f565b612f02565b8254612ee7565b9055565b612fa790612f4e81612f47612f41612f3c5f612e59565b6102b2565b916102b2565b1415612ebe565b612f575f611480565b81612f8b612f857f5f56bee8cffbe9a78652a74a60705edede02af10b0bbb888ca44b79a0d42ce809361078f565b9161078f565b91612f946101f2565b80612f9e816104b6565b0390a35f612f05565b565b612fb290612e0e565b565b90612fe291612fdd33612fd7612fd1612fcc5f611480565b6102b2565b916102b2565b14611783565b613066565b565b5f7f46656520746f6f20686967680000000000000000000000000000000000000000910152565b613018600c602092610df1565b61302181612fe4565b0190565b61303a9060208101905f81830391015261300b565b90565b1561304457565b61304c6101f2565b62461bcd60e51b81528061306260048201613025565b0390fd5b6130848161307d6130776064611c7e565b91610212565b111561303d565b61308f81600561144c565b61309a826006612f05565b907f644dd1c61188bb408757e77aa2a9eb9f05e0211bbaabda871801653333d1451d916130d16130c86101f2565b92839283611eb4565b0390a1565b906130e091612fb4565b565b906131099392916131046130ff6130f96008611277565b156106fd565b6112dd565b61320f565b565b5f7f5a65726f206465706f7369740000000000000000000000000000000000000000910152565b61313f600c602092610df1565b6131488161310b565b0190565b6131619060208101905f818303910152613132565b90565b1561316b57565b6131736101f2565b62461bcd60e51b8152806131896004820161314c565b0390fd5b5f7f5a65726f20626f72726f77000000000000000000000000000000000000000000910152565b6131c1600b602092610df1565b6131ca8161318d565b0190565b6131e39060208101905f8183039101526131b4565b90565b156131ed57565b6131f56101f2565b62461bcd60e51b81528061320b600482016131ce565b0390fd5b9261322c826132266132205f611330565b91610212565b11613164565b6132488161324261323c5f611330565b91610212565b116131e6565b613259613254856114be565b6114ca565b9160206323b872dd93339061328a5f613271306114d6565b976132958761327e6101f2565b9a8b978896879561107b565b855260048501611523565b03925af1928315613601576133bf936135d5575b506132dc816132d66132c76132c06001339061079b565b89906107b1565b916132d183611163565b6113ed565b9061144c565b33908590916133296133176133117f8752a472e571a816aea92eec8dae9baf628e840f4929fbcc2d155e6233ff68a79361078f565b9361078f565b936133206101f2565b91829182610259565b0390a361338161333a33869061120e565b61337a61337461336f61335f613351898890611d3f565b613359610234565b90611184565b6133696064611c7e565b906111ec565b610212565b91610212565b1015611dfa565b6020613395613390600361106a565b6103a0565b63815b3c74906133b486926133a86101f2565b9687948593849361107b565b835260048301610678565b03915afa9182156135d05761348c926133f3915f916135a2575b506133ec6133e684610212565b91610212565b1015611e7c565b61341b61340a826134046005611163565b90611184565b6134156127106113d1565b906111ec565b906134396134328361342d6007611163565b6113ed565b600761144c565b6134436006611480565b82906134846134727f7ed908ff2e40b254ea911b86a8497222ab54394e5961796285735f1e6306179d9261078f565b9261347b6101f2565b91829182610259565b0390a261148d565b9061349f61349a600361106a565b6103a0565b633b3dcc468233928592813b1561359d575f6134ce916134d982966134c26101f2565b9889978896879561107b565b855260048501611523565b03925af180156135985761356c575b5061351b826135156135066134ff6002339061079b565b85906107b1565b9161351083611163565b6113ed565b9061144c565b3390919261355261354c7f6307558490eadb9b37b03c11433d50aef004f9316be36f5d959936dfed4d5a729361078f565b9361078f565b9361356761355e6101f2565b92839283611eb4565b0390a3565b61358b905f3d8111613591575b61358381836109b7565b810190611ea5565b5f6134e8565b503d613579565b6110ae565b611077565b6135c3915060203d81116135c9575b6135bb81836109b7565b810190611090565b5f6133d9565b503d6135b1565b6110ae565b6135f59060203d81116135fa575b6135ed81836109b7565b810190611505565b6132a9565b503d6135e3565b6110ae565b906136129392916130e2565b565b9061361e826126f8565b81101561363057600160209102010190565b612684565b60ff60f81b1690565b6136489051613635565b90565b90565b60f81b90565b61366861366361366d9261364b565b61364e565b613635565b90565b90565b61368761368261368c92613670565b61364e565b613635565b90565b90565b6136a66136a16136ab9261368f565b610215565b610212565b90565b60f81c90565b60ff1690565b6136ce6136c96136d3926136b4565b610215565b6136b4565b90565b6136e26136e7916136ae565b6136ba565b90565b6136fe6136f96137039261364b565b610215565b6136b4565b90565b613712613718916136b4565b916136b4565b90039060ff821161372557565b611170565b61373e613739613743926136b4565b610215565b610212565b90565b9061375861375261104d565b92612b96565b6137615f611330565b5b8061377d613777613772856126f8565b610212565b91610212565b101561385157613796613791838390613614565b61363e565b6137a96137a36030613654565b91613635565b101580613823575b6137c4575b6137bf90612671565b613762565b9261381b6137df6137bf926137d9600a613692565b90611184565b6138156138106138006137fb6137f6888b90613614565b61363e565b6136d6565b61380a60306136ea565b90613706565b61372a565b906113ed565b9390506137b6565b50613837613832838390613614565b61363e565b61384a6138446039613673565b91613635565b11156137b1565b505056fea2646970667358221220dda1c8fb476f25587d7ef6ea57e2b4cc9852a0bfc2415d90cc19bbda77aec44864736f6c634300081e0033","linkReferences":{}},"methodIdentifiers":{"COLLATERAL_FACTOR()":"17f49e05","PRICE_LOOKBACK_SECONDS()":"cd94deb0","PRICE_STALENESS_THRESHOLD()":"f25b9caa","availableLiquidity(address)":"181f37c8","borrow(address,uint256,address)":"6c665a55","borrows(address,address)":"6c29219c","claimProtocolFees()":"4a7d0369","deposit(address,uint256)":"47e7ef24","depositAndBorrow(address,uint256,address,uint256)":"f978a5ee","deposits(address,address)":"8f601f66","getBorrowValue(address,uint256)":"6ae096cc","getCollateralValue(address,address)":"1eee3aa3","getTokenTwap(address)":"97cf739f","getTwap(string)":"80b67fe0","governance()":"5aa6e675","healthFactor(address,address)":"576f5c40","liquidate(address,address)":"86b9d81f","pause()":"8456cb59","paused()":"5c975abb","protocolFeeBps()":"35659fb8","protocolFeesAccrued()":"b621e75a","protocolTreasury()":"803db96d","repay(address,uint256)":"22867d78","setGovernance(address)":"ab033ea9","setProtocolFee(uint256,address)":"ea289d00","setTokenDenom(address,string)":"7b123e84","tokenDenoms(address)":"ccdb987f","unpause()":"3f4ba83a","yieldFarm()":"1e092efb"},"id":27}