{"abi":[{"type":"constructor","inputs":[],"stateMutability":"nonpayable"},{"type":"function","name":"PRICE_LOOKBACK_SECONDS","inputs":[],"outputs":[{"name":"","type":"uint64","internalType":"uint64"}],"stateMutability":"view"},{"type":"function","name":"PRICE_STALENESS_THRESHOLD","inputs":[],"outputs":[{"name":"","type":"uint64","internalType":"uint64"}],"stateMutability":"view"},{"type":"function","name":"addLiquidity","inputs":[{"name":"amount0","type":"uint256","internalType":"uint256"},{"name":"amount1","type":"uint256","internalType":"uint256"},{"name":"to","type":"address","internalType":"address"}],"outputs":[{"name":"liquidity","type":"uint256","internalType":"uint256"}],"stateMutability":"nonpayable"},{"type":"function","name":"allowance","inputs":[{"name":"owner","type":"address","internalType":"address"},{"name":"spender","type":"address","internalType":"address"}],"outputs":[{"name":"","type":"uint256","internalType":"uint256"}],"stateMutability":"view"},{"type":"function","name":"approve","inputs":[{"name":"spender","type":"address","internalType":"address"},{"name":"value","type":"uint256","internalType":"uint256"}],"outputs":[{"name":"","type":"bool","internalType":"bool"}],"stateMutability":"nonpayable"},{"type":"function","name":"balanceOf","inputs":[{"name":"account","type":"address","internalType":"address"}],"outputs":[{"name":"","type":"uint256","internalType":"uint256"}],"stateMutability":"view"},{"type":"function","name":"batchAddLiquidity","inputs":[{"name":"amounts0","type":"uint256[]","internalType":"uint256[]"},{"name":"amounts1","type":"uint256[]","internalType":"uint256[]"}],"outputs":[],"stateMutability":"nonpayable"},{"type":"function","name":"batchRemoveLiquidity","inputs":[{"name":"liquidities","type":"uint256[]","internalType":"uint256[]"}],"outputs":[],"stateMutability":"nonpayable"},{"type":"function","name":"batchSwap","inputs":[{"name":"amountsIn","type":"uint256[]","internalType":"uint256[]"},{"name":"tokensIn","type":"address[]","internalType":"address[]"},{"name":"minAmountsOut","type":"uint256[]","internalType":"uint256[]"}],"outputs":[],"stateMutability":"nonpayable"},{"type":"function","name":"claimLPReward","inputs":[],"outputs":[],"stateMutability":"nonpayable"},{"type":"function","name":"claimProtocolFees","inputs":[],"outputs":[],"stateMutability":"nonpayable"},{"type":"function","name":"decimals","inputs":[],"outputs":[{"name":"","type":"uint8","internalType":"uint8"}],"stateMutability":"view"},{"type":"function","name":"factory","inputs":[],"outputs":[{"name":"","type":"address","internalType":"address"}],"stateMutability":"view"},{"type":"function","name":"flashLoan","inputs":[{"name":"token","type":"address","internalType":"address"},{"name":"amount","type":"uint256","internalType":"uint256"},{"name":"data","type":"bytes","internalType":"bytes"}],"outputs":[],"stateMutability":"nonpayable"},{"type":"function","name":"flashLoanFeeBps","inputs":[],"outputs":[{"name":"","type":"uint256","internalType":"uint256"}],"stateMutability":"view"},{"type":"function","name":"getAmountOut","inputs":[{"name":"amountIn","type":"uint256","internalType":"uint256"},{"name":"reserveIn","type":"uint256","internalType":"uint256"},{"name":"reserveOut","type":"uint256","internalType":"uint256"}],"outputs":[{"name":"","type":"uint256","internalType":"uint256"}],"stateMutability":"pure"},{"type":"function","name":"getReserves","inputs":[],"outputs":[{"name":"reserve0","type":"uint256","internalType":"uint256"},{"name":"reserve1","type":"uint256","internalType":"uint256"}],"stateMutability":"view"},{"type":"function","name":"getTokenTwap","inputs":[{"name":"token","type":"address","internalType":"address"}],"outputs":[{"name":"price","type":"uint256","internalType":"uint256"},{"name":"oracleLastUpdate","type":"int64","internalType":"int64"}],"stateMutability":"view"},{"type":"function","name":"getTwap","inputs":[{"name":"denom","type":"string","internalType":"string"}],"outputs":[{"name":"price","type":"uint256","internalType":"uint256"},{"name":"__lastUpdateTimestamp","type":"int64","internalType":"int64"}],"stateMutability":"view"},{"type":"function","name":"governance","inputs":[],"outputs":[{"name":"","type":"address","internalType":"address"}],"stateMutability":"view"},{"type":"function","name":"initialize","inputs":[{"name":"_token0","type":"address","internalType":"address"},{"name":"_token1","type":"address","internalType":"address"}],"outputs":[],"stateMutability":"nonpayable"},{"type":"function","name":"initialized","inputs":[],"outputs":[{"name":"","type":"bool","internalType":"bool"}],"stateMutability":"view"},{"type":"function","name":"lastUpdateTimestamp","inputs":[],"outputs":[{"name":"","type":"uint32","internalType":"uint32"}],"stateMutability":"view"},{"type":"function","name":"liquidityBalance","inputs":[{"name":"","type":"address","internalType":"address"}],"outputs":[{"name":"","type":"uint256","internalType":"uint256"}],"stateMutability":"view"},{"type":"function","name":"lpFeeBps","inputs":[],"outputs":[{"name":"","type":"uint256","internalType":"uint256"}],"stateMutability":"view"},{"type":"function","name":"lpRewards","inputs":[{"name":"","type":"address","internalType":"address"}],"outputs":[{"name":"","type":"uint256","internalType":"uint256"}],"stateMutability":"view"},{"type":"function","name":"name","inputs":[],"outputs":[{"name":"","type":"string","internalType":"string"}],"stateMutability":"view"},{"type":"function","name":"pause","inputs":[],"outputs":[],"stateMutability":"nonpayable"},{"type":"function","name":"paused","inputs":[],"outputs":[{"name":"","type":"bool","internalType":"bool"}],"stateMutability":"view"},{"type":"function","name":"price0CumulativeLast","inputs":[],"outputs":[{"name":"","type":"uint256","internalType":"uint256"}],"stateMutability":"view"},{"type":"function","name":"price1CumulativeLast","inputs":[],"outputs":[{"name":"","type":"uint256","internalType":"uint256"}],"stateMutability":"view"},{"type":"function","name":"protocolFeeBps","inputs":[],"outputs":[{"name":"","type":"uint256","internalType":"uint256"}],"stateMutability":"view"},{"type":"function","name":"protocolFeesAccrued","inputs":[],"outputs":[{"name":"","type":"uint256","internalType":"uint256"}],"stateMutability":"view"},{"type":"function","name":"protocolTreasury","inputs":[],"outputs":[{"name":"","type":"address","internalType":"address"}],"stateMutability":"view"},{"type":"function","name":"publicSwap","inputs":[{"name":"amountIn","type":"uint256","internalType":"uint256"},{"name":"tokenIn","type":"address","internalType":"address"},{"name":"minAmountOut","type":"uint256","internalType":"uint256"},{"name":"recipient","type":"address","internalType":"address"}],"outputs":[{"name":"amountOut","type":"uint256","internalType":"uint256"}],"stateMutability":"nonpayable"},{"type":"function","name":"removeLiquidity","inputs":[{"name":"liquidity","type":"uint256","internalType":"uint256"}],"outputs":[{"name":"amount0","type":"uint256","internalType":"uint256"},{"name":"amount1","type":"uint256","internalType":"uint256"}],"stateMutability":"nonpayable"},{"type":"function","name":"setGovernance","inputs":[{"name":"newGovernance","type":"address","internalType":"address"}],"outputs":[],"stateMutability":"nonpayable"},{"type":"function","name":"setProtocolFee","inputs":[{"name":"newFeeBps","type":"uint256","internalType":"uint256"},{"name":"newTreasury","type":"address","internalType":"address"}],"outputs":[],"stateMutability":"nonpayable"},{"type":"function","name":"setTokenDenom","inputs":[{"name":"token","type":"address","internalType":"address"},{"name":"denom","type":"string","internalType":"string"}],"outputs":[],"stateMutability":"nonpayable"},{"type":"function","name":"symbol","inputs":[],"outputs":[{"name":"","type":"string","internalType":"string"}],"stateMutability":"view"},{"type":"function","name":"token0","inputs":[],"outputs":[{"name":"","type":"address","internalType":"address"}],"stateMutability":"view"},{"type":"function","name":"token1","inputs":[],"outputs":[{"name":"","type":"address","internalType":"address"}],"stateMutability":"view"},{"type":"function","name":"tokenDenoms","inputs":[{"name":"","type":"address","internalType":"address"}],"outputs":[{"name":"","type":"string","internalType":"string"}],"stateMutability":"view"},{"type":"function","name":"totalLiquidity","inputs":[],"outputs":[{"name":"","type":"uint256","internalType":"uint256"}],"stateMutability":"view"},{"type":"function","name":"totalSupply","inputs":[],"outputs":[{"name":"","type":"uint256","internalType":"uint256"}],"stateMutability":"view"},{"type":"function","name":"transfer","inputs":[{"name":"to","type":"address","internalType":"address"},{"name":"value","type":"uint256","internalType":"uint256"}],"outputs":[{"name":"","type":"bool","internalType":"bool"}],"stateMutability":"nonpayable"},{"type":"function","name":"transferFrom","inputs":[{"name":"from","type":"address","internalType":"address"},{"name":"to","type":"address","internalType":"address"},{"name":"value","type":"uint256","internalType":"uint256"}],"outputs":[{"name":"","type":"bool","internalType":"bool"}],"stateMutability":"nonpayable"},{"type":"function","name":"unpause","inputs":[],"outputs":[],"stateMutability":"nonpayable"},{"type":"event","name":"AnalyticsAddLiquidity","inputs":[{"name":"user","type":"address","indexed":true,"internalType":"address"},{"name":"amount0","type":"uint256","indexed":false,"internalType":"uint256"},{"name":"amount1","type":"uint256","indexed":false,"internalType":"uint256"},{"name":"liquidity","type":"uint256","indexed":false,"internalType":"uint256"},{"name":"blockNumber","type":"uint256","indexed":false,"internalType":"uint256"}],"anonymous":false},{"type":"event","name":"AnalyticsRemoveLiquidity","inputs":[{"name":"user","type":"address","indexed":true,"internalType":"address"},{"name":"amount0","type":"uint256","indexed":false,"internalType":"uint256"},{"name":"amount1","type":"uint256","indexed":false,"internalType":"uint256"},{"name":"liquidity","type":"uint256","indexed":false,"internalType":"uint256"},{"name":"blockNumber","type":"uint256","indexed":false,"internalType":"uint256"}],"anonymous":false},{"type":"event","name":"Approval","inputs":[{"name":"owner","type":"address","indexed":true,"internalType":"address"},{"name":"spender","type":"address","indexed":true,"internalType":"address"},{"name":"value","type":"uint256","indexed":false,"internalType":"uint256"}],"anonymous":false},{"type":"event","name":"BatchAddLiquidity","inputs":[{"name":"user","type":"address","indexed":true,"internalType":"address"},{"name":"count","type":"uint256","indexed":false,"internalType":"uint256"}],"anonymous":false},{"type":"event","name":"BatchRemoveLiquidity","inputs":[{"name":"user","type":"address","indexed":true,"internalType":"address"},{"name":"count","type":"uint256","indexed":false,"internalType":"uint256"}],"anonymous":false},{"type":"event","name":"BatchSwap","inputs":[{"name":"user","type":"address","indexed":true,"internalType":"address"},{"name":"count","type":"uint256","indexed":false,"internalType":"uint256"}],"anonymous":false},{"type":"event","name":"FlashLoan","inputs":[{"name":"borrower","type":"address","indexed":true,"internalType":"address"},{"name":"token","type":"address","indexed":true,"internalType":"address"},{"name":"amount","type":"uint256","indexed":false,"internalType":"uint256"},{"name":"fee","type":"uint256","indexed":false,"internalType":"uint256"}],"anonymous":false},{"type":"event","name":"LPRewardAccrued","inputs":[{"name":"provider","type":"address","indexed":true,"internalType":"address"},{"name":"amount","type":"uint256","indexed":false,"internalType":"uint256"}],"anonymous":false},{"type":"event","name":"LPRewardClaimed","inputs":[{"name":"provider","type":"address","indexed":true,"internalType":"address"},{"name":"amount","type":"uint256","indexed":false,"internalType":"uint256"}],"anonymous":false},{"type":"event","name":"LiquidityAdded","inputs":[{"name":"provider","type":"address","indexed":true,"internalType":"address"},{"name":"amount0","type":"uint256","indexed":false,"internalType":"uint256"},{"name":"amount1","type":"uint256","indexed":false,"internalType":"uint256"},{"name":"liquidity","type":"uint256","indexed":false,"internalType":"uint256"},{"name":"reserve0","type":"uint256","indexed":false,"internalType":"uint256"},{"name":"reserve1","type":"uint256","indexed":false,"internalType":"uint256"}],"anonymous":false},{"type":"event","name":"LiquidityRemoved","inputs":[{"name":"provider","type":"address","indexed":true,"internalType":"address"},{"name":"amount0","type":"uint256","indexed":false,"internalType":"uint256"},{"name":"amount1","type":"uint256","indexed":false,"internalType":"uint256"},{"name":"liquidity","type":"uint256","indexed":false,"internalType":"uint256"},{"name":"reserve0","type":"uint256","indexed":false,"internalType":"uint256"},{"name":"reserve1","type":"uint256","indexed":false,"internalType":"uint256"}],"anonymous":false},{"type":"event","name":"Paused","inputs":[],"anonymous":false},{"type":"event","name":"ProtocolFeeAccrued","inputs":[{"name":"treasury","type":"address","indexed":true,"internalType":"address"},{"name":"amount","type":"uint256","indexed":false,"internalType":"uint256"}],"anonymous":false},{"type":"event","name":"ProtocolFeeClaimed","inputs":[{"name":"treasury","type":"address","indexed":true,"internalType":"address"},{"name":"amount","type":"uint256","indexed":false,"internalType":"uint256"}],"anonymous":false},{"type":"event","name":"ProtocolFeeSet","inputs":[{"name":"newFeeBps","type":"uint256","indexed":false,"internalType":"uint256"},{"name":"newTreasury","type":"address","indexed":false,"internalType":"address"}],"anonymous":false},{"type":"event","name":"Swap","inputs":[{"name":"user","type":"address","indexed":true,"internalType":"address"},{"name":"amountIn","type":"uint256","indexed":false,"internalType":"uint256"},{"name":"amountOut","type":"uint256","indexed":false,"internalType":"uint256"},{"name":"tokenIn","type":"address","indexed":false,"internalType":"address"},{"name":"tokenOut","type":"address","indexed":false,"internalType":"address"}],"anonymous":false},{"type":"event","name":"TokenDenomSet","inputs":[{"name":"token","type":"address","indexed":true,"internalType":"address"},{"name":"denom","type":"string","indexed":false,"internalType":"string"}],"anonymous":false},{"type":"event","name":"Transfer","inputs":[{"name":"from","type":"address","indexed":true,"internalType":"address"},{"name":"to","type":"address","indexed":true,"internalType":"address"},{"name":"value","type":"uint256","indexed":false,"internalType":"uint256"}],"anonymous":false},{"type":"event","name":"Unpaused","inputs":[],"anonymous":false},{"type":"error","name":"ArithmeticOverflow","inputs":[{"name":"operation","type":"string","internalType":"string"}]},{"type":"error","name":"ContractPaused","inputs":[]},{"type":"error","name":"DivisionByZero","inputs":[]},{"type":"error","name":"ERC20InsufficientAllowance","inputs":[{"name":"spender","type":"address","internalType":"address"},{"name":"allowance","type":"uint256","internalType":"uint256"},{"name":"needed","type":"uint256","internalType":"uint256"}]},{"type":"error","name":"ERC20InsufficientBalance","inputs":[{"name":"sender","type":"address","internalType":"address"},{"name":"balance","type":"uint256","internalType":"uint256"},{"name":"needed","type":"uint256","internalType":"uint256"}]},{"type":"error","name":"ERC20InvalidApprover","inputs":[{"name":"approver","type":"address","internalType":"address"}]},{"type":"error","name":"ERC20InvalidReceiver","inputs":[{"name":"receiver","type":"address","internalType":"address"}]},{"type":"error","name":"ERC20InvalidSender","inputs":[{"name":"sender","type":"address","internalType":"address"}]},{"type":"error","name":"ERC20InvalidSpender","inputs":[{"name":"spender","type":"address","internalType":"address"}]},{"type":"error","name":"InsufficientLiquidity","inputs":[]},{"type":"error","name":"InvalidToken","inputs":[]},{"type":"error","name":"NotGovernance","inputs":[]},{"type":"error","name":"ReentrancyGuardReentrantCall","inputs":[]},{"type":"error","name":"SlippageTooHigh","inputs":[]},{"type":"error","name":"TransferFailed","inputs":[]}],"bytecode":{"object":"0x6080604052346100275761001161023f565b61001961002c565b615b2c6105748239615b2c90f35b610032565b60405190565b5f80fd5b601f801991011690565b634e487b7160e01b5f52604160045260245ffd5b9061005e90610036565b810190811060018060401b0382111761007657604052565b610040565b9061008e61008761002c565b9283610054565b565b60018060401b0381116100ac576100a8602091610036565b0190565b610040565b906100c36100be83610090565b61007b565b918252565b5f7f426172756b20414d4d204c500000000000000000000000000000000000000000910152565b6100f9600c6100b1565b90610106602083016100c8565b565b6101106100ef565b90565b5f7f42524b2d4c500000000000000000000000000000000000000000000000000000910152565b61014460066100b1565b9061015160208301610113565b565b61015b61013a565b90565b5f1b90565b9061016f5f199161015e565b9181191691161790565b90565b90565b90565b61019661019161019b92610179565b61017f565b61017c565b90565b90565b906101b66101b16101bd92610182565b61019e565b8254610163565b9055565b90565b6101d86101d36101dd926101c1565b61017f565b61017c565b90565b906101f56101f06101fc926101c4565b61019e565b8254610163565b9055565b90565b61021761021261021c92610200565b61017f565b61017c565b90565b9061023461022f61023b92610203565b61019e565b8254610163565b9055565b61025861024a610108565b610252610153565b906104cc565b610264600860136101a1565b610270601960146101e0565b61027c6005601661021f565b565b5190565b634e487b7160e01b5f52602260045260245ffd5b90600160028304921680156102b6575b60208310146102b157565b610282565b91607f16916102a6565b5f5260205f2090565b601f602091010490565b1b90565b919060086102f29102916102ec5f19846102d3565b926102d3565b9181191691161790565b61031061030b6103159261017c565b61017f565b61017c565b90565b919061032e610329610336936102fc565b61019e565b9083546102d7565b9055565b5f90565b6103509161034a61033a565b91610318565b565b5b81811061035e575050565b8061036b5f60019361033e565b01610353565b9190601f8111610381575b505050565b61038d6103b2936102c0565b906020610399846102c9565b830193106103ba575b6103ab906102c9565b0190610352565b5f808061037c565b91506103ab819290506103a2565b1c90565b906103dc905f19906008026103c8565b191690565b816103eb916103cc565b906002021790565b906103fd8161027e565b9060018060401b0382116104bb5761041f826104198554610296565b85610371565b602090601f831160011461045357918091610442935f92610447575b50506103e1565b90555b565b90915001515f8061043b565b601f19831691610462856102c0565b925f5b8181106104a357509160029391856001969410610489575b50505002019055610445565b610499910151601f8416906103cc565b90555f808061047d565b91936020600181928787015181550195019201610465565b610040565b906104ca916103f3565b565b906104e36104ea926104dc6104ec565b60046104c0565b60056104c0565b565b6104f46104f6565b565b6104fe610500565b565b61050861050a565b565b610512610560565b565b90565b61052b61052661053092610514565b61017f565b61017c565b90565b61053d6001610517565b90565b9061055561055061055c926102fc565b61019e565b8254610163565b9055565b61057161056b610533565b5f610540565b56fe60806040526004361015610013575b611848565b61001d5f3561031c565b8063054d50d41461031757806306fdde03146103125780630902f1ac1461030d578063095ea7b3146103085780630dfe1681146103035780630f393772146102fe5780631391e1ad146102f957806314bcec9f146102f457806315770f92146102ef578063158ef93e146102ea57806318160ddd146102e5578063223751a9146102e057806323b872dd146102db578063313ce567146102d657806334d62e3e146102d157806335659fb8146102cc5780633d5c5068146102c75780633f4ba83a146102c2578063485cc955146102bd5780634a7d0369146102b85780635909c0d5146102b35780635a3d5493146102ae5780635aa6e675146102a95780635c975abb146102a457806370a082311461029f5780637b123e841461029a578063803db96d1461029557806380b67fe0146102905780638456cb591461028b57806387b21efc1461028657806395d89b411461028157806397cf739f1461027c5780639c8f9f2314610277578063a4196d3c14610272578063a9059cbb1461026d578063ab033ea914610268578063b621e75a14610263578063c0c7347e1461025e578063c45a015514610259578063ccdb987f14610254578063cd94deb01461024f578063d21220a71461024a578063dd29648014610245578063dd62ed3e14610240578063e0232b421461023b578063e547bb9114610236578063ea289d00146102315763f25b9caa0361000e57611813565b6117c7565b611767565b611730565b611669565b611634565b6115e6565b6115a2565b611507565b61136d565b611329565b6112e5565b6112a3565b61126d565b611234565b6111b8565b611164565b61112f565b6110f9565b61108c565b611056565b610ed9565b610e96565b610ddc565b610da7565b610d63565b610d1f565b610cea565b610cb7565b610c83565b610c23565b610bee565b610baa565b610b64565b610ad0565b610a72565b6109fe565b610904565b6108cf565b61085e565b61081a565b6107ba565b6106d9565b61061e565b610582565b6104be565b610466565b6103b6565b60e01c90565b60405190565b5f80fd5b5f80fd5b5f80fd5b90565b61034081610334565b0361034757565b5f80fd5b9050359061035882610337565b565b909160608284031261038f5761038c610375845f850161034b565b93610383816020860161034b565b9360400161034b565b90565b61032c565b61039d90610334565b9052565b91906103b4905f60208501940190610394565b565b346103e7576103e36103d26103cc36600461035a565b91611913565b6103da610322565b918291826103a1565b0390f35b610328565b5f9103126103f657565b61032c565b5190565b60209181520190565b90825f9392825e0152565b601f801991011690565b61043c61044560209361044a93610433816103fb565b938480936103ff565b95869101610408565b610413565b0190565b6104639160208201915f81840391015261041d565b90565b34610496576104763660046103ec565b6104926104816119f9565b610489610322565b9182918261044e565b0390f35b610328565b9160206104bc9294936104b560408201965f830190610394565b0190610394565b565b346104ef576104ce3660046103ec565b6104d6611a35565b906104eb6104e2610322565b9283928361049b565b0390f35b610328565b60018060a01b031690565b610508906104f4565b90565b610514816104ff565b0361051b57565b5f80fd5b9050359061052c8261050b565b565b9190604083820312610556578061054a610553925f860161051f565b9360200161034b565b90565b61032c565b151590565b6105699061055b565b9052565b9190610580905f60208501940190610560565b565b346105b3576105af61059e61059836600461052e565b90611a63565b6105a6610322565b9182918261056d565b0390f35b610328565b1c90565b60018060a01b031690565b6105d79060086105dc93026105b8565b6105bc565b90565b906105ea91546105c7565b90565b6105f960065f906105df565b90565b610605906104ff565b9052565b919061061c905f602085019401906105fc565b565b3461064e5761062e3660046103ec565b61064a6106396105ed565b610641610322565b91829182610609565b0390f35b610328565b5f80fd5b5f80fd5b5f80fd5b909182601f830112156106995781359167ffffffffffffffff831161069457602001926020830284011161068f57565b61065b565b610657565b610653565b906020828203126106cf575f82013567ffffffffffffffff81116106ca576106c6920161065f565b9091565b610330565b61032c565b5f0190565b34610708576106f26106ec36600461069e565b90611ace565b6106fa610322565b80610704816106d4565b0390f35b610328565b9060208282031261072657610723915f0161051f565b90565b61032c565b90565b61074261073d610747926104f4565b61072b565b6104f4565b90565b6107539061072e565b90565b61075f9061074a565b90565b9061076c90610756565b5f5260205260405f2090565b90565b61078b90600861079093026105b8565b610778565b90565b9061079e915461077b565b90565b6107b7906107b26015915f92610762565b610793565b90565b346107ea576107e66107d56107d036600461070d565b6107a1565b6107dd610322565b918291826103a1565b0390f35b610328565b63ffffffff1690565b610801906107ef565b9052565b9190610818905f602085019401906107f8565b565b3461084a5761082a3660046103ec565b610846610835611bab565b61083d610322565b91829182610805565b0390f35b610328565b61085b600c5f90610793565b90565b3461088e5761086e3660046103ec565b61088a61087961084f565b610881610322565b918291826103a1565b0390f35b610328565b60ff1690565b6108a99060086108ae93026105b8565b610893565b90565b906108bc9154610899565b90565b6108cc60076014906108b1565b90565b346108ff576108df3660046103ec565b6108fb6108ea6108bf565b6108f2610322565b9182918261056d565b0390f35b610328565b34610934576109143660046103ec565b61093061091f611bc1565b610927610322565b918291826103a1565b0390f35b610328565b909182601f830112156109735781359167ffffffffffffffff831161096e57602001926020830284011161096957565b61065b565b610657565b610653565b906060828203126109f9575f82013567ffffffffffffffff81116109f457816109a291840161065f565b929093602082013567ffffffffffffffff81116109ef57836109c5918401610939565b929093604082013567ffffffffffffffff81116109ea576109e6920161065f565b9091565b610330565b610330565b610330565b61032c565b34610a3357610a1d610a11366004610978565b94939093929192611c7f565b610a25610322565b80610a2f816106d4565b0390f35b610328565b9091606082840312610a6d57610a6a610a53845f850161051f565b93610a61816020860161051f565b9360400161034b565b90565b61032c565b34610aa357610a9f610a8e610a88366004610a38565b91611dc9565b610a96610322565b9182918261056d565b0390f35b610328565b60ff1690565b610ab790610aa8565b9052565b9190610ace905f60208501940190610aae565b565b34610b0057610ae03660046103ec565b610afc610aeb611e1b565b610af3610322565b91829182610abb565b0390f35b610328565b9091604082840312610b5f575f82013567ffffffffffffffff8111610b5a5783610b3091840161065f565b929093602082013567ffffffffffffffff8111610b5557610b51920161065f565b9091565b610330565b610330565b61032c565b34610b9657610b80610b77366004610b05565b92919091611e31565b610b88610322565b80610b92816106d4565b0390f35b610328565b610ba760165f90610793565b90565b34610bda57610bba3660046103ec565b610bd6610bc5610b9b565b610bcd610322565b918291826103a1565b0390f35b610328565b610beb60145f90610793565b90565b34610c1e57610bfe3660046103ec565b610c1a610c09610bdf565b610c11610322565b918291826103a1565b0390f35b610328565b34610c5157610c333660046103ec565b610c3b612087565b610c43610322565b80610c4d816106d4565b0390f35b610328565b9190604083820312610c7e5780610c72610c7b925f860161051f565b9360200161051f565b90565b61032c565b34610cb257610c9c610c96366004610c56565b906121b7565b610ca4610322565b80610cae816106d4565b0390f35b610328565b34610ce557610cc73660046103ec565b610ccf61246f565b610cd7610322565b80610ce1816106d4565b0390f35b610328565b34610d1a57610cfa3660046103ec565b610d16610d056125be565b610d0d610322565b918291826103a1565b0390f35b610328565b34610d4f57610d2f3660046103ec565b610d4b610d3a6125d4565b610d42610322565b918291826103a1565b0390f35b610328565b610d6060095f906105df565b90565b34610d9357610d733660046103ec565b610d8f610d7e610d54565b610d86610322565b91829182610609565b0390f35b610328565b610da4600e5f906108b1565b90565b34610dd757610db73660046103ec565b610dd3610dc2610d98565b610dca610322565b9182918261056d565b0390f35b610328565b34610e0c57610e08610df7610df236600461070d565b6125ea565b610dff610322565b918291826103a1565b0390f35b610328565b909182601f83011215610e4b5781359167ffffffffffffffff8311610e46576020019260018302840111610e4157565b61065b565b610657565b610653565b919091604081840312610e9157610e69835f830161051f565b92602082013567ffffffffffffffff8111610e8c57610e889201610e11565b9091565b610330565b61032c565b34610ec557610eaf610ea9366004610e50565b916128bb565b610eb7610322565b80610ec1816106d4565b0390f35b610328565b610ed660175f906105df565b90565b34610f0957610ee93660046103ec565b610f05610ef4610eca565b610efc610322565b91829182610609565b0390f35b610328565b5f80fd5b634e487b7160e01b5f52604160045260245ffd5b90610f3090610413565b810190811067ffffffffffffffff821117610f4a57604052565b610f12565b90610f62610f5b610322565b9283610f26565b565b67ffffffffffffffff8111610f8257610f7e602091610413565b0190565b610f12565b90825f939282370152565b90929192610fa7610fa282610f64565b610f4f565b93818552602085019082840111610fc357610fc192610f87565b565b610f0e565b9080601f83011215610fe657816020610fe393359101610f92565b90565b610653565b9060208282031261101b575f82013567ffffffffffffffff8111611016576110139201610fc8565b90565b610330565b61032c565b60070b90565b61102f90611020565b9052565b91602061105492949361104d60408201965f830190610394565b0190611026565b565b346110875761106e611069366004610feb565b612b7d565b9061108361107a610322565b92839283611033565b0390f35b610328565b346110ba5761109c3660046103ec565b6110a4612da9565b6110ac610322565b806110b6816106d4565b0390f35b610328565b90916060828403126110f4576110f16110da845f850161034b565b936110e8816020860161034b565b9360400161051f565b90565b61032c565b3461112a5761112661111561110f3660046110bf565b9161366b565b61111d610322565b918291826103a1565b0390f35b610328565b3461115f5761113f3660046103ec565b61115b61114a613681565b611152610322565b9182918261044e565b0390f35b610328565b346111955761117c61117736600461070d565b613858565b90611191611188610322565b92839283611033565b0390f35b610328565b906020828203126111b3576111b0915f0161034b565b90565b61032c565b346111e9576111d06111cb36600461119a565b613f4a565b906111e56111dc610322565b9283928361049b565b0390f35b610328565b60808183031261122f57611204825f830161034b565b9261122c611215846020850161051f565b93611223816040860161034b565b9360600161051f565b90565b61032c565b346112685761126461125361124a3660046111ee565b92919091613fd2565b61125b610322565b918291826103a1565b0390f35b610328565b3461129e5761129a61128961128336600461052e565b90613fe9565b611291610322565b9182918261056d565b0390f35b610328565b346112d1576112bb6112b636600461070d565b6140b5565b6112c3610322565b806112cd816106d4565b0390f35b610328565b6112e260185f90610793565b90565b34611315576112f53660046103ec565b6113116113006112d6565b611308610322565b918291826103a1565b0390f35b610328565b61132660135f90610793565b90565b34611359576113393660046103ec565b61135561134461131a565b61134c610322565b918291826103a1565b0390f35b610328565b61136a60085f906105df565b90565b3461139d5761137d3660046103ec565b61139961138861135e565b611390610322565b91829182610609565b0390f35b610328565b906113ac90610756565b5f5260205260405f2090565b634e487b7160e01b5f525f60045260245ffd5b634e487b7160e01b5f52602260045260245ffd5b90600160028304921680156113ff575b60208310146113fa57565b6113cb565b91607f16916113ef565b60209181520190565b5f5260205f2090565b905f929180549061143561142e836113df565b8094611409565b916001811690815f1461148c5750600114611450575b505050565b61145d9192939450611412565b915f925b81841061147457505001905f808061144b565b60018160209295939554848601520191019290611461565b92949550505060ff19168252151560200201905f808061144b565b906114b19161141b565b90565b906114d46114cd926114c4610322565b938480926114a7565b0383610f26565b565b905f106114e9576114e6906114b4565b90565b6113b8565b611504906114ff6012915f926113a2565b6114d6565b90565b346115375761153361152261151d36600461070d565b6114ee565b61152a610322565b9182918261044e565b0390f35b610328565b90565b67ffffffffffffffff1690565b61156061155b6115659261153c565b61072b565b61153f565b90565b611572603c61154c565b90565b61157d611568565b90565b6115899061153f565b9052565b91906115a0905f60208501940190611580565b565b346115d2576115b23660046103ec565b6115ce6115bd611575565b6115c5610322565b9182918261158d565b0390f35b610328565b6115e360075f906105df565b90565b34611616576115f63660046103ec565b6116126116016115d7565b611609610322565b91829182610609565b0390f35b610328565b6116319061162c600d915f92610762565b610793565b90565b346116645761166061164f61164a36600461070d565b61161b565b611657610322565b918291826103a1565b0390f35b610328565b3461169a5761169661168561167f366004610c56565b90614135565b61168d610322565b918291826103a1565b0390f35b610328565b909182601f830112156116d95781359167ffffffffffffffff83116116d45760200192600183028401116116cf57565b61065b565b610657565b610653565b9160608383031261172b576116f5825f850161051f565b92611703836020830161034b565b92604082013567ffffffffffffffff811161172657611722920161169f565b9091565b610330565b61032c565b346117625761174c6117433660046116de565b9291909161476d565b611754610322565b8061175e816106d4565b0390f35b610328565b34611795576117773660046103ec565b61177f61487f565b611787610322565b80611791816106d4565b0390f35b610328565b91906040838203126117c257806117b66117bf925f860161034b565b9360200161051f565b90565b61032c565b346117f6576117e06117da36600461179a565b90614b5a565b6117e8610322565b806117f2816106d4565b0390f35b610328565b611805603c61154c565b90565b6118106117fb565b90565b34611843576118233660046103ec565b61183f61182e611808565b611836610322565b9182918261158d565b0390f35b610328565b5f80fd5b5f90565b90565b61186761186261186c92611850565b61072b565b610334565b90565b634e487b7160e01b5f52601160045260245ffd5b61189261189891939293610334565b92610334565b916118a4838202610334565b9281840414901517156118b357565b61186f565b6118c76118cd91939293610334565b92610334565b82018092116118d857565b61186f565b634e487b7160e01b5f52601260045260245ffd5b6118fd61190391610334565b91610334565b90811561190e570490565b6118dd565b91909161191e61184c565b508061193261192c5f611853565b91610334565b1480156119ce575b80156119b4575b611998576119526119589282611883565b926118b8565b8061196b6119655f611853565b91610334565b1461197c57611979916118f1565b90565b5f6323d359a360e01b815280611994600482016106d4565b0390fd5b5f63bb55fd2760e01b8152806119b0600482016106d4565b0390fd5b50816119c86119c25f611853565b91610334565b14611941565b50826119e26119dc5f611853565b91610334565b1461193a565b606090565b6119f6906114b4565b90565b611a016119e8565b50611a0c60046119ed565b90565b5f1c90565b611a20611a2591611a0f565b610778565b90565b611a329054611a14565b90565b611a3d61184c565b50611a4661184c565b50611a51600a611a28565b90611a5c600b611a28565b90565b5f90565b611a8091611a6f611a5f565b50611a78614b6a565b919091614b77565b600190565b6001611a919101610334565b90565b5090565b634e487b7160e01b5f52603260045260245ffd5b9190811015611abc576020020190565b611a98565b35611acb81610337565b90565b919091611ada5f611853565b5b80611af8611af2611aed858890611a94565b610334565b91610334565b1015611b2a57611b2590611b1e611b19611b1485888591611aac565b611ac1565b613f4a565b5050611a85565b611adb565b509091611b38903392611a94565b90611b78611b667ffa20c458aca8908e6686f0cd9643eb1cfe5423507ad2079e711216cbe062e22392610756565b92611b6f610322565b918291826103a1565b0390a2565b5f90565b63ffffffff1690565b611b96611b9b91611a0f565b611b81565b90565b611ba89054611b8a565b90565b611bb3611b7d565b50611bbe6011611b9e565b90565b611bc961184c565b50611bd46003611a28565b90565b5090565b5f7f4c656e677468206d69736d617463680000000000000000000000000000000000910152565b611c0f600f6020926103ff565b611c1881611bdb565b0190565b611c319060208101905f818303910152611c02565b90565b15611c3b57565b611c43610322565b62461bcd60e51b815280611c5960048201611c1c565b0390fd5b9190811015611c6d576020020190565b611a98565b35611c7c8161050b565b90565b9594929195611c8f818390611a94565b611cab611ca5611ca08a8790611bd7565b610334565b91610334565b1480611d96575b611cbb90611c34565b611cc45f611853565b5b80611ce2611cdc611cd7858790611a94565b610334565b91610334565b1015611d3e57611d3990611d33611d03611cfe85878591611aac565b611ac1565b611d17611d128c898691611c5d565b611c72565b611d2b611d268b8b8791611aac565b611ac1565b903392614b87565b50611a85565b611cc5565b50949550915050611d5191503392611a94565b90611d91611d7f7f1c49c07dbd2b561cbf364270c1f5c1d9084f6daf6739c64bbc8210c73e02e37a92610756565b92611d88610322565b918291826103a1565b0390a2565b50611cbb611da5888590611bd7565b611dc1611dbb611db6898990611a94565b610334565b91610334565b149050611cb2565b91611df392611dd6611a5f565b50611deb611de2614b6a565b82908491614de1565b919091614e6d565b600190565b5f90565b90565b611e13611e0e611e1892611dfc565b61072b565b610aa8565b90565b611e23611df8565b50611e2e6012611dff565b90565b93929193611e65611e43828490611a94565b611e5f611e59611e54898890611a94565b610334565b91610334565b14611c34565b611e6e5f611853565b5b80611e8c611e86611e81858790611a94565b610334565b91610334565b1015611ed357611ece90611ec8611ead611ea885878591611aac565b611ac1565b611ec1611ebc8a898691611aac565b611ac1565b339161366b565b50611a85565b611e6f565b50929350611ee391503392611a94565b90611f23611f117f8597cb5891021d98112671d46ff1a97950c8bccf47cc26fcdf2e982903d27d0492610756565b92611f1a610322565b918291826103a1565b0390a2565b611f34611f3991611a0f565b6105bc565b90565b611f469054611f28565b90565b5f7f4e6f7420676f7665726e616e6365000000000000000000000000000000000000910152565b611f7d600e6020926103ff565b611f8681611f49565b0190565b611f9f9060208101905f818303910152611f70565b90565b15611fa957565b611fb1610322565b62461bcd60e51b815280611fc760048201611f8a565b0390fd5b611ff033611fea611fe4611fdf6009611f3c565b6104ff565b916104ff565b14611fa2565b611ff8612044565b565b5f1b90565b9061200b60ff91611ffa565b9181191691161790565b61201e9061055b565b90565b90565b9061203961203461204092612015565b612021565b8254611fff565b9055565b61204f5f600e612024565b7fa45f47fdea8a1efdd9029a5691c7f759c32b7c698632b563573e155625d16933612078610322565b80612082816106d4565b0390a1565b61208f611fcb565b565b60a01c90565b6120a36120a891612091565b610893565b90565b6120b59054612097565b90565b5f7f416c726561647920696e697469616c697a656400000000000000000000000000910152565b6120ec60136020926103ff565b6120f5816120b8565b0190565b61210e9060208101905f8183039101526120df565b90565b1561211857565b612120610322565b62461bcd60e51b815280612136600482016120f9565b0390fd5b9061214b60018060a01b0391611ffa565b9181191691161790565b90565b9061216d61216861217492610756565b612155565b825461213a565b9055565b60a01b90565b9061218d60ff60a01b91612178565b9181191691161790565b906121ac6121a76121b392612015565b612021565b825461217e565b9055565b906121e16121e8926121da6121d56121cf60076120ab565b1561055b565b612111565b6006612158565b6007612158565b6121f460016007612197565b565b5f7f4e6f742074726561737572790000000000000000000000000000000000000000910152565b61222a600c6020926103ff565b612233816121f6565b0190565b61224c9060208101905f81830391015261221d565b90565b1561225657565b61225e610322565b62461bcd60e51b81528061227460048201612237565b0390fd5b5f7f4e6f206665657300000000000000000000000000000000000000000000000000910152565b6122ac60076020926103ff565b6122b581612278565b0190565b6122ce9060208101905f81830391015261229f565b90565b156122d857565b6122e0610322565b62461bcd60e51b8152806122f6600482016122b9565b0390fd5b906123065f1991611ffa565b9181191691161790565b61232461231f61232992610334565b61072b565b610334565b90565b90565b9061234461233f61234b92612310565b61232c565b82546122fa565b9055565b6123589061072e565b90565b6123649061234f565b90565b6123709061074a565b90565b60e01b90565b6123828161055b565b0361238957565b5f80fd5b9050519061239a82612379565b565b906020828203126123b5576123b2915f0161238d565b90565b61032c565b9160206123db9294936123d460408201965f8301906105fc565b0190610394565b565b6123e5610322565b3d5f823e3d90fd5b5f7f5472616e73666572206661696c65640000000000000000000000000000000000910152565b612421600f6020926103ff565b61242a816123ed565b0190565b6124439060208101905f818303910152612414565b90565b1561244d57565b612455610322565b62461bcd60e51b81528061246b6004820161242e565b0390fd5b6124943361248e6124886124836017611f3c565b6104ff565b916104ff565b1461224f565b61249e6018611a28565b6124ba816124b46124ae5f611853565b91610334565b116122d1565b6124cd6124c65f611853565b601861232f565b6124e76124e26124dd6006611f3c565b61235b565b612367565b602063a9059cbb916124f96017611f3c565b906125175f869561252261250b610322565b97889687958694612373565b8452600484016123ba565b03925af180156125b95761253d915f9161258b575b50612446565b6125476017611f3c565b6125866125747f0f7f5b155b0b0ac6890709a2c7bf1b8bb3f675fff1e7840b4dd3c9acde59048b92610756565b9261257d610322565b918291826103a1565b0390a2565b6125ac915060203d81116125b2575b6125a48183610f26565b81019061239c565b5f612537565b503d61259a565b6123dd565b6125c661184c565b506125d1600f611a28565b90565b6125dc61184c565b506125e76010611a28565b90565b612601612606916125f961184c565b506001610762565b611a28565b90565b9061263992916126343361262e6126286126236009611f3c565b6104ff565b916104ff565b14611fa2565b61285e565b565b5090565b601f602091010490565b1b90565b919060086126689102916126625f1984612649565b92612649565b9181191691161790565b919061268861268361269093612310565b61232c565b90835461264d565b9055565b6126a6916126a061184c565b91612672565b565b5b8181106126b4575050565b806126c15f600193612694565b016126a9565b9190601f81116126d7575b505050565b6126e361270893611412565b9060206126ef8461263f565b83019310612710575b6127019061263f565b01906126a8565b5f80806126d2565b9150612701819290506126f8565b9061272e905f19906008026105b8565b191690565b8161273d9161271e565b906002021790565b91612750908261263b565b9067ffffffffffffffff821161280f576127748261276e85546113df565b856126c7565b5f90601f83116001146127a757918091612796935f9261279b575b5050612733565b90555b565b90915001355f8061278f565b601f198316916127b685611412565b925f5b8181106127f7575091600293918560019694106127dd575b50505002019055612799565b6127ed910135601f84169061271e565b90555f80806127d1565b919360206001819287870135815501950192016127b9565b610f12565b9061281f9291612745565b565b919061283b8161283481612840956103ff565b8095610f87565b610413565b0190565b909161285b9260208301925f818503910152612821565b90565b612875828490612870601285906113a2565b612814565b90916128a17f3aef37e65dd9a1bdeaf86293131fd470f231e87f3c0426a1a43b3fa8a789f63592610756565b926128b66128ad610322565b92839283612844565b0390a2565b906128c69291612609565b565b5f90565b6128d59061072e565b90565b6128e1906128cc565b90565b6128ef6110086128d8565b90565b6128fb9061074a565b90565b67ffffffffffffffff81116129165760208091020190565b610f12565b5f80fd5b5f80fd5b9092919261293861293382610f64565b610f4f565b938185526020850190828401116129545761295292610408565b565b610f0e565b9080601f830112156129775781602061297493519101612923565b90565b610653565b61298581611020565b0361298c57565b5f80fd5b9050519061299d8261297c565b565b919091606081840312612a1c576129b66060610f4f565b925f82015167ffffffffffffffff8111612a1757816129d6918401612959565b5f85015260208201519167ffffffffffffffff8311612a12576129fe82612a0b948301612959565b6020860152604001612990565b6040830152565b61291f565b61291f565b61291b565b929190612a35612a30826128fe565b610f4f565b9381855260208086019202810191838311612a8c5781905b838210612a5b575050505050565b815167ffffffffffffffff8111612a8757602091612a7c878493870161299f565b815201910190612a4d565b610653565b61065b565b9080601f83011215612aaf57816020612aac93519101612a21565b90565b610653565b90602082820312612ae4575f82015167ffffffffffffffff8111612adf57612adc9201612a91565b90565b610330565b61032c565b5190565b90612af782612ae9565b811015612b08576020809102010190565b611a98565b905090565b612b37612b2e92602092612b25816103fb565b94858093612b0d565b93849101610408565b0190565b612b4491612b12565b90565b60200190565b5190565b90565b612b5e9051611020565b90565b612b75612b70612b7a92611850565b61072b565b611020565b90565b612b8561184c565b50612b8e6128c8565b50612bd45f612ba3612b9e6128e4565b6128f2565b63cd44a65890612bc9612bb4611568565b92612bbd610322565b95869485938493612373565b83526004830161158d565b03915afa908115612d31575f91612d0f575b5091612bf15f611853565b5b80612c0d612c07612c0287612ae9565b610334565b91610334565b1015612cf357612c3c612c4b5f612c25878590612aed565b510151612c30610322565b92839160208301612b3b565b60208201810382520382610f26565b612c5d612c5782612b4d565b91612b47565b20612cac612ca6612c7f612c8e87612c73610322565b92839160208301612b3b565b60208201810382520382610f26565b612ca0612c9a82612b4d565b91612b47565b20612b51565b91612b51565b14612cbf57612cba90611a85565b612bf2565b612cf0919250612ce9604091612ce36020612cdb888490612aed565b510151615036565b95612aed565b5101612b54565b90565b509150505f90612d0c612d065f93611853565b92612b61565b90565b612d2b91503d805f833e612d238183610f26565b810190612ab4565b5f612be6565b6123dd565b612d5b33612d55612d4f612d4a6009611f3c565b6104ff565b916104ff565b14611fa2565b612d63612d65565b565b612d716001600e612024565b7f9e87fac88ff661f02d44f95383c817fece4bce600a3dab7a54406878b965e752612d9a610322565b80612da4816106d4565b0390a1565b612db1612d36565b565b90612dc7939291612dc2615171565b612e75565b90612dd06151f3565b565b612dde612de391611a0f565b610893565b90565b612df09054612dd2565b90565b5f7f506f6f6c20706175736564000000000000000000000000000000000000000000910152565b612e27600b6020926103ff565b612e3081612df3565b0190565b612e499060208101905f818303910152612e1a565b90565b15612e5357565b612e5b610322565b62461bcd60e51b815280612e7160048201612e34565b0390fd5b90612ea6939291612ea1612e89600e612de6565b612e9b612e955f61055b565b9161055b565b14612e4c565b613128565b90565b90565b612ec0612ebb612ec592612ea9565b61072b565b610334565b90565b612ed36103e8612eac565b90565b5f7f496e697469616c206c697175696469747920746f6f206c6f7700000000000000910152565b612f0a60196020926103ff565b612f1381612ed6565b0190565b612f2c9060208101905f818303910152612efd565b90565b612f3e612f4491939293610334565b92610334565b8203918211612f4f57565b61186f565b612f5d9061074a565b90565b604090612f89612f909496959396612f7f60608401985f8501906105fc565b60208301906105fc565b0190610394565b565b5f7f7265736572766530206164646974696f6e000000000000000000000000000000910152565b612fc660116020926103ff565b612fcf81612f92565b0190565b612fe89060208101905f818303910152612fb9565b90565b5f7f7265736572766531206164646974696f6e000000000000000000000000000000910152565b61301f60116020926103ff565b61302881612feb565b0190565b6130419060208101905f818303910152613012565b90565b5f7f746f74616c4c6971756964697479206164646974696f6e000000000000000000910152565b61307860176020926103ff565b61308181613044565b0190565b61309a9060208101905f81830391015261306b565b90565b909594926130e8946130d76130e1926130cd6080966130c360a088019c5f890190610394565b6020870190610394565b6040850190610394565b6060830190610394565b0190610394565b565b61311f6131269461311560609498979561310b608086019a5f870190610394565b6020850190610394565b6040830190610394565b0190610394565b565b939293508061313f6131395f611853565b91610334565b148015613651575b61363557613155600a611a28565b61315f600b611a28565b8161317261316c5f611853565b91610334565b148061361b575b5f146135b057505061319461318f828490611883565b615225565b806131ae6131a86131a3612ec8565b610334565b91610334565b111561358d576131c6906131c0612ec8565b90612f2f565b935b6131e26131dd6131d86006611f3c565b61235b565b612367565b60206323b872dd9133906132125f6131f930612f54565b9561321d89613206610322565b98899788968795612373565b855260048501612f60565b03925af1801561358857613239915f9161355a575b501561055b565b61353e5761325761325261324d6007611f3c565b61235b565b612367565b60206323b872dd9133906132875f61326e30612f54565b956132928a61327b610322565b98899788968795612373565b855260048501612f60565b03925af18015613539576132ae915f9161350b575b501561055b565b6134ef576132c66132bf600a611a28565b83906118b8565b6132e16132db6132d6600a611a28565b610334565b91610334565b106134cc576132fa6132f3600b611a28565b84906118b8565b61331561330f61330a600b611a28565b610334565b91610334565b106134a95761332e613327600c611a28565b86906118b8565b61334961334361333e600c611a28565b610334565b91610334565b106134865761336b6133648361335f600a611a28565b6118b8565b600a61232f565b6133886133818461337c600b611a28565b6118b8565b600b61232f565b6133a561339e86613399600c611a28565b6118b8565b600c61232f565b6133b08186906152f1565b6133d8856133d26133c3600d8590610762565b916133cd83611a28565b6118b8565b9061232f565b6133e0615463565b80829084879261343a6133f3600a611a28565b6133fd600b611a28565b906134287f0103e5727ee41ce8741fbdf27e5e596deb21dbe5ae93901499306d10f28d1ef796610756565b96613431610322565b9586958661309d565b0390a2909184926134814361346f7f2ac2e9ebe02b4057201d2ef4b84b856c43b1c294f70a449124caf28fc885d90995610756565b95613478610322565b948594856130ea565b0390a2565b61348e610322565b6307a89c3760e11b8152806134a560048201613085565b0390fd5b6134b1610322565b6307a89c3760e11b8152806134c86004820161302c565b0390fd5b6134d4610322565b6307a89c3760e11b8152806134eb60048201612fd3565b0390fd5b5f6312171d8360e31b815280613507600482016106d4565b0390fd5b61352c915060203d8111613532575b6135248183610f26565b81019061239c565b5f6132a7565b503d61351a565b6123dd565b5f6312171d8360e31b815280613556600482016106d4565b0390fd5b61357b915060203d8111613581575b6135738183610f26565b81019061239c565b5f613232565b503d613569565b6123dd565b613595610322565b6307a89c3760e11b8152806135ac60048201612f17565b0390fd5b6135bd6135c49184611883565b82906118f1565b6135d76135d18592610334565b91610334565b106135ff576135f9906135f4836135ee600c611a28565b90611883565b6118f1565b936131c8565b5f63bb55fd2760e01b815280613617600482016106d4565b0390fd5b508061362f6136295f611853565b91610334565b14613179565b5f63bb55fd2760e01b81528061364d600482016106d4565b0390fd5b508161366561365f5f611853565b91610334565b14613147565b9061367e929161367961184c565b612db3565b90565b6136896119e8565b5061369460056119ed565b90565b90565b5f7f4e6f2064656e6f6d207365740000000000000000000000000000000000000000910152565b6136ce600c6020926103ff565b6136d78161369a565b0190565b6136f09060208101905f8183039101526136c1565b90565b156136fa57565b613702610322565b62461bcd60e51b815280613718600482016136db565b0390fd5b5f7f4e6f207072696365000000000000000000000000000000000000000000000000910152565b61375060086020926103ff565b6137598161371c565b0190565b6137729060208101905f818303910152613743565b90565b1561377c57565b613784610322565b62461bcd60e51b81528061379a6004820161375d565b0390fd5b6137b26137ad6137b792611020565b61072b565b61153f565b90565b6137ce6137c96137d39261153f565b61072b565b610334565b90565b5f7f5374616c65207072696365000000000000000000000000000000000000000000910152565b61380a600b6020926103ff565b613813816137d6565b0190565b61382c9060208101905f8183039101526137fd565b90565b1561383657565b61383e610322565b62461bcd60e51b81528061385460048201613817565b0390fd5b61388061387b6138b19261386a61184c565b506138736128c8565b5060126113a2565b6119ed565b6138ac61389461388f83613697565b612b4d565b6138a66138a05f611853565b91610334565b116136f3565b612b7d565b90916138cf836138c96138c35f611853565b91610334565b11613775565b61390d6138ed426138e76138e28661379e565b6137ba565b90612f2f565b6139066139006138fb6117fb565b6137ba565b91610334565b111561382f565b565b90613922929161391d615171565b61392e565b909161392c6151f3565b565b9061395e9291613959613941600e612de6565b61395361394d5f61055b565b9161055b565b14612e4c565b613ac6565b9091565b5f7f6c697175696469747942616c616e6365207375627472616374696f6e00000000910152565b613996601c6020926103ff565b61399f81613962565b0190565b6139b89060208101905f818303910152613989565b90565b5f7f746f74616c4c6971756964697479207375627472616374696f6e000000000000910152565b6139ef601a6020926103ff565b6139f8816139bb565b0190565b613a119060208101905f8183039101526139e2565b90565b5f7f7265736572766530207375627472616374696f6e000000000000000000000000910152565b613a4860146020926103ff565b613a5181613a14565b0190565b613a6a9060208101905f818303910152613a3b565b90565b5f7f7265736572766531207375627472616374696f6e000000000000000000000000910152565b613aa160146020926103ff565b613aaa81613a6d565b0190565b613ac39060208101905f818303910152613a94565b90565b505080613adb613ad55f611853565b91610334565b148015613f1d575b613f0157613b0e613afe82613af8600a611a28565b90611883565b613b08600c611a28565b906118f1565b91613b36613b2683613b20600b611a28565b90611883565b613b30600c611a28565b906118f1565b91613b4b613b46600d3390610762565b611a28565b613b5d613b5783610334565b91610334565b10613ede57613b6c600c611a28565b613b7e613b7883610334565b91610334565b10613ebb57613b8d600a611a28565b613b9f613b9986610334565b91610334565b10613e9857613bae600b611a28565b613bc0613bba85610334565b91610334565b10613e7557613bed81613be7613bd8600d3390610762565b91613be283611a28565b612f2f565b9061232f565b613c0a613c0382613bfe600c611a28565b612f2f565b600c61232f565b613c27613c2085613c1b600a611a28565b612f2f565b600a61232f565b613c44613c3d84613c38600b611a28565b612f2f565b600b61232f565b613c4f3382906155b1565b613c69613c64613c5f6006611f3c565b61235b565b612367565b602063a9059cbb913390613c905f8995613c9b613c84610322565b97889687958694612373565b8452600484016123ba565b03925af18015613e7057613cb7915f91613e42575b501561055b565b613e2657613cd5613cd0613ccb6007611f3c565b61235b565b612367565b602063a9059cbb913390613cfc5f8895613d07613cf0610322565b97889687958694612373565b8452600484016123ba565b03925af18015613e2157613d23915f91613df3575b501561055b565b613dd757613d2f615463565b338490848392613d89613d42600a611a28565b613d4c600b611a28565b90613d777f04f7e4f53152cb2cd0e424b2fc990199f0ed4255c7a97a848131f1eeff165f7b96610756565b96613d80610322565b9586958661309d565b0390a2338491849092613dd243613dc07f3b4e1de1310de1c39c0c67259d96e3ddf3c26194e7f7b19896205cd1f3eef93795610756565b95613dc9610322565b948594856130ea565b0390a2565b5f6312171d8360e31b815280613def600482016106d4565b0390fd5b613e14915060203d8111613e1a575b613e0c8183610f26565b81019061239c565b5f613d1c565b503d613e02565b6123dd565b5f6312171d8360e31b815280613e3e600482016106d4565b0390fd5b613e63915060203d8111613e69575b613e5b8183610f26565b81019061239c565b5f613cb0565b503d613e51565b6123dd565b613e7d610322565b6307a89c3760e11b815280613e9460048201613aae565b0390fd5b613ea0610322565b6307a89c3760e11b815280613eb760048201613a55565b0390fd5b613ec3610322565b6307a89c3760e11b815280613eda600482016139fc565b0390fd5b613ee6610322565b6307a89c3760e11b815280613efd600482016139a3565b0390fd5b5f63bb55fd2760e01b815280613f19600482016106d4565b0390fd5b50613f32613f2d600d3390610762565b611a28565b613f44613f3e83610334565b91610334565b10613ae3565b613f6490613f5661184c565b613f5e61184c565b9061390f565b9091565b90613f7d94939291613f78615171565b613f88565b90613f866151f3565b565b90613fba94939291613fb5613f9d600e612de6565b613faf613fa95f61055b565b9161055b565b14612e4c565b613fbd565b90565b90613fcf949293915092909192614b87565b90565b90613fe6939291613fe161184c565b613f68565b90565b61400691613ff5611a5f565b50613ffe614b6a565b919091614e6d565b600190565b61401f61401a61402492611850565b61072b565b6104f4565b90565b6140309061400b565b90565b5f7f4e6f7420616c6c6f776564000000000000000000000000000000000000000000910152565b614067600b6020926103ff565b61407081614033565b0190565b6140899060208101905f81830391015261405a565b90565b1561409357565b61409b610322565b62461bcd60e51b8152806140b160048201614074565b0390fd5b6140f5906140c36009611f3c565b6140dd6140d76140d25f614027565b6104ff565b916104ff565b1480156140f7575b6140ee9061408c565b6009612158565b565b506140ee3361411761411161410c6009611f3c565b6104ff565b916104ff565b1490506140e5565b9061412990610756565b5f5260205260405f2090565b61415a916141506141559261414861184c565b50600261411f565b610762565b611a28565b90565b9061417193929161416c615171565b614465565b6141796151f3565b565b5f7f496e76616c696420746f6b656e00000000000000000000000000000000000000910152565b6141af600d6020926103ff565b6141b88161417b565b0190565b6141d19060208101905f8183039101526141a2565b90565b156141db57565b6141e3610322565b62461bcd60e51b8152806141f9600482016141bc565b0390fd5b9050519061420a82610337565b565b9060208282031261422557614222915f016141fd565b90565b61032c565b5f7f496e73756666696369656e74206c697175696469747900000000000000000000910152565b61425e60166020926103ff565b6142678161422a565b0190565b6142809060208101905f818303910152614251565b90565b1561428a57565b614292610322565b62461bcd60e51b8152806142a86004820161426b565b0390fd5b90565b6142c36142be6142c8926142ac565b61072b565b610334565b90565b905090565b9091826142e0816142e7936142cb565b8093610f87565b0190565b90916142f6926142d0565b90565b67ffffffffffffffff811161431757614313602091610413565b0190565b610f12565b9061432e614329836142f9565b610f4f565b918252565b606090565b3d5f14614353576143483d61431c565b903d5f602084013e5b565b61435b614333565b90614351565b5f7f43616c6c6261636b206661696c65640000000000000000000000000000000000910152565b614395600f6020926103ff565b61439e81614361565b0190565b6143b79060208101905f818303910152614388565b90565b156143c157565b6143c9610322565b62461bcd60e51b8152806143df600482016143a2565b0390fd5b5f7f466c617368206c6f616e206e6f74207265706169640000000000000000000000910152565b61441760156020926103ff565b614420816143e3565b0190565b6144399060208101905f81830391015261440a565b90565b1561444357565b61444b610322565b62461bcd60e51b81528061446160048201614424565b0390fd5b90918161449361448d61448861448361447e6006611f3c565b61235b565b612367565b6104ff565b916104ff565b148015614735575b6144a4906141d4565b6144ec60206144ba6144b58561235b565b612367565b6370a08231906144e16144cc30612f54565b926144d5610322565b95869485938493612373565b835260048301610609565b03915afa908115614730575f91614702575b5061451c8161451561450f87610334565b91610334565b1015614283565b6145446145338561452d6013611a28565b90611883565b61453e6127106142af565b906118f1565b946145566145518561235b565b612367565b602063a9059cbb91339061457d5f8a95614588614571610322565b97889687958694612373565b8452600484016123ba565b03925af180156146fd57614612946145cd935f9384936146d1575b508233926145bb6145b2610322565b938492836142eb565b03925af16145c7614338565b506143ba565b60206145e06145db8561235b565b612367565b6370a08231906146076145f230612f54565b926145fb610322565b96879485938493612373565b835260048301610609565b03915afa9182156146cc5761464061463b61464d94614646935f9161469e575b509388906118b8565b610334565b91610334565b101561443c565b3390919261468461467e7f0d7d75e01ab95780d3cd1c8ec0dd6c2ce19e3a20427eec8bf53283b6fb8e95f093610756565b93610756565b93614699614690610322565b9283928361049b565b0390a3565b6146bf915060203d81116146c5575b6146b78183610f26565b81019061420c565b5f614632565b503d6146ad565b6123dd565b6146f19060203d81116146f6575b6146e98183610f26565b81019061239c565b6145a3565b503d6146df565b6123dd565b614723915060203d8111614729575b61471b8183610f26565b81019061420c565b5f6144fe565b503d614711565b6123dd565b506144a48261476561475f61475a6147556147506007611f3c565b61235b565b612367565b6104ff565b916104ff565b14905061449b565b9061477993929161415d565b565b5f7f4e6f207265776172640000000000000000000000000000000000000000000000910152565b6147af60096020926103ff565b6147b88161477b565b0190565b6147d19060208101905f8183039101526147a2565b90565b156147db57565b6147e3610322565b62461bcd60e51b8152806147f9600482016147bc565b0390fd5b5f7f526577617264207472616e73666572206661696c656400000000000000000000910152565b61483160166020926103ff565b61483a816147fd565b0190565b6148539060208101905f818303910152614824565b90565b1561485d57565b614865610322565b62461bcd60e51b81528061487b6004820161483e565b0390fd5b61489361488e60153390610762565b611a28565b6148af816148a96148a35f611853565b91610334565b116147d4565b6148cc6148bb5f611853565b6148c760153390610762565b61232f565b6148e66148e16148dc6006611f3c565b61235b565b612367565b602063a9059cbb91339061490d5f8695614918614901610322565b97889687958694612373565b8452600484016123ba565b03925af180156149a657614933915f91614978575b50614856565b336149736149617f48bd4abc164782b90453c75dca68259b451843daa67a638b16f37e45f4a9f20592610756565b9261496a610322565b918291826103a1565b0390a2565b614999915060203d811161499f575b6149918183610f26565b81019061239c565b5f61492d565b503d614987565b6123dd565b906149da916149d5336149cf6149c96149c46009611f3c565b6104ff565b916104ff565b14611fa2565b614aff565b565b90565b6149f36149ee6149f8926149dc565b61072b565b610334565b90565b5f7f46656520746f6f20686967680000000000000000000000000000000000000000910152565b614a2f600c6020926103ff565b614a38816149fb565b0190565b614a519060208101905f818303910152614a22565b90565b15614a5b57565b614a63610322565b62461bcd60e51b815280614a7960048201614a3c565b0390fd5b5f7f5a65726f20616464726573730000000000000000000000000000000000000000910152565b614ab1600c6020926103ff565b614aba81614a7d565b0190565b614ad39060208101905f818303910152614aa4565b90565b15614add57565b614ae5610322565b62461bcd60e51b815280614afb60048201614abe565b0390fd5b90614b51614b5892614b2581614b1e614b1860646149df565b91610334565b1115614a54565b614b4a83614b43614b3d614b385f614027565b6104ff565b916104ff565b1415614ad6565b601661232f565b6017612158565b565b90614b64916149ab565b565b5f90565b614b72614b66565b503390565b91614b859291600192615610565b565b93929193614b9361184c565b5080614ba7614ba15f611853565b91610334565b14614d855781614bd8614bd2614bcd614bc8614bc36006611f3c565b61235b565b612367565b6104ff565b916104ff565b141580614d51575b614d355781614c10614c0a614c05614c00614bfb6006611f3c565b61235b565b612367565b6104ff565b916104ff565b1491825f14614d1d57614c2b614c266006611f3c565b61235b565b505b825f14614d0357614c84614c49614c446007611f3c565b61235b565b5b9293614c5785879061571f565b815f14614cf457614c68600a611a28565b5b915f14614ce557614c7a600b611a28565b5b90919091611913565b95614c98614c928892610334565b91610334565b10614cc957614cc793614cad83828991615866565b614cb5615463565b92614cc1879293612367565b9361592f565b565b5f63428637bb60e11b815280614ce1600482016106d4565b0390fd5b614cef600a611a28565b614c7b565b614cfe600b611a28565b614c69565b614c84614d18614d136006611f3c565b61235b565b614c4a565b614d2f614d2a6007611f3c565b61235b565b50614c2d565b5f63c1ab6dc160e01b815280614d4d600482016106d4565b0390fd5b5081614d7e614d78614d73614d6e614d696007611f3c565b61235b565b612367565b6104ff565b916104ff565b1415614be0565b5f63bb55fd2760e01b815280614d9d600482016106d4565b0390fd5b604090614dca614dd19496959396614dc060608401985f8501906105fc565b6020830190610394565b0190610394565b565b90614dde9103610334565b90565b929192614def818390614135565b9081614e04614dfe5f19610334565b91610334565b10614e11575b5050509050565b81614e24614e1e87610334565b91610334565b10614e4a57614e419394614e39919392614dd3565b905f92615610565b805f8080614e0a565b50614e69849291925f938493637dc7a0d960e11b855260048501614da1565b0390fd5b9182614e89614e83614e7e5f614027565b6104ff565b916104ff565b14614ee35781614ea9614ea3614e9e5f614027565b6104ff565b916104ff565b14614ebc57614eba92919091615984565b565b614edf614ec85f614027565b5f91829163ec442f0560e01b835260048301610609565b0390fd5b614f06614eef5f614027565b5f918291634b637e8f60e11b835260048301610609565b0390fd5b90614f1482612b4d565b811015614f2657600160209102010190565b611a98565b60ff60f81b1690565b614f3e9051614f2b565b90565b90565b60f81b90565b614f5e614f59614f6392614f41565b614f44565b614f2b565b90565b90565b614f7d614f78614f8292614f66565b614f44565b614f2b565b90565b90565b614f9c614f97614fa192614f85565b61072b565b610334565b90565b60f81c90565b614fbe614fb9614fc392610aa8565b61072b565b610aa8565b90565b614fd2614fd791614fa4565b614faa565b90565b614fee614fe9614ff392614f41565b61072b565b610aa8565b90565b61500261500891610aa8565b91610aa8565b90039060ff821161501557565b61186f565b61502e61502961503392610aa8565b61072b565b610334565b90565b9061504861504261184c565b92613697565b6150515f611853565b5b8061506d61506761506285612b4d565b610334565b91610334565b101561514157615086615081838390614f0a565b614f34565b6150996150936030614f4a565b91614f2b565b101580615113575b6150b4575b6150af90611a85565b615052565b9261510b6150cf6150af926150c9600a614f88565b90611883565b6151056151006150f06150eb6150e6888b90614f0a565b614f34565b614fc6565b6150fa6030614fda565b90614ff6565b61501a565b906118b8565b9390506150a6565b50615127615122838390614f0a565b614f34565b61513a6151346039614f69565b91614f2b565b11156150a1565b5050565b90565b61515c61515761516192615145565b61072b565b610334565b90565b61516e6002615148565b90565b61517a5f611a28565b61519361518d615188615164565b610334565b91610334565b146151ab576151a96151a3615164565b5f61232f565b565b5f633ee5aeb560e01b8152806151c3600482016106d4565b0390fd5b90565b6151de6151d96151e3926151c7565b61072b565b610334565b90565b6151f060016151ca565b90565b6152046151fe6151e6565b5f61232f565b565b90565b61521d61521861522292615206565b61072b565b610334565b90565b61522d61184c565b8161524161523b6003615209565b91610334565b115f146152c3575080916152726152628361525c6002615148565b906118f1565b61526c60016151ca565b906118b8565b925b8361528761528183610334565b91610334565b10156152bb57506152b56152a5846152a08582906118f1565b6118b8565b6152af6002615148565b906118f1565b92615274565b915091505b90565b906152d66152d05f611853565b91610334565b036152e1575b6152c0565b506152ec60016151ca565b6152dc565b8061530c6153066153015f614027565b6104ff565b916104ff565b14615328576153269161531e5f614027565b919091615984565b565b61534b6153345f614027565b5f91829163ec442f0560e01b835260048301610609565b0390fd5b90565b61536661536161536b9261534f565b61072b565b610334565b90565b61537a61538091610334565b91610334565b90811561538b570690565b6118dd565b6153a461539f6153a992610334565b61072b565b6107ef565b90565b6153b86153be916107ef565b916107ef565b90039063ffffffff82116153ce57565b61186f565b6153e76153e26153ec92611850565b61072b565b6107ef565b90565b6154036153fe615408926107ef565b61072b565b610334565b90565b9061541a63ffffffff91611ffa565b9181191691161790565b61543861543361543d926107ef565b61072b565b6107ef565b90565b90565b9061545861545361545f92615424565b615440565b825461540b565b9055565b61548361547e42615478640100000000615352565b9061536e565b615390565b615497816154916011611b9e565b906153ac565b90816154ab6154a55f6153d3565b916107ef565b118061558d575b80615569575b6154c1575b5050565b61555b615554615545615562946155196155126155036154f46154e4600b611a28565b6154ee600a611a28565b906118f1565b6154fd856153ef565b90611883565b61550d600f611a28565b6118b8565b600f61232f565b61553f615539615529600a611a28565b615533600b611a28565b906118f1565b916153ef565b90611883565b61554f6010611a28565b6118b8565b601061232f565b6011615443565b5f806154bd565b50615574600b611a28565b6155866155805f611853565b91610334565b14156154b8565b50615598600a611a28565b6155aa6155a45f611853565b91610334565b14156154b2565b90816155cd6155c76155c25f614027565b6104ff565b916104ff565b146155e9576155e791906155e05f614027565b9091615984565b565b61560c6155f55f614027565b5f918291634b637e8f60e11b835260048301610609565b0390fd5b90928161562d6156276156225f614027565b6104ff565b916104ff565b146156f8578361564d6156476156425f614027565b6104ff565b916104ff565b146156d1576156718361566c6156656002869061411f565b8790610762565b61232f565b61567b575b505050565b9190916156c66156b46156ae7f8c5be1e5ebec7d5bd14f71427d1e84f3dd0314c0f7b2291e5b200ac8c7c3b92593610756565b93610756565b936156bd610322565b918291826103a1565b0390a35f8080615676565b6156f46156dd5f614027565b5f918291634a1406b160e11b835260048301610609565b0390fd5b61571b6157045f614027565b5f91829163e602df0560e01b835260048301610609565b0390fd5b9061585e6158639261572f61184c565b50615758615747826157416016611a28565b90611883565b6157526127106142af565b906118f1565b906157816157708261576a6014611a28565b90611883565b61577b6127106142af565b906118f1565b9361579f615798846157936018611a28565b6118b8565b601861232f565b6157c7856157c16157b260158590610762565b916157bc83611a28565b6118b8565b9061232f565b6157d16017611f3c565b83906158126158007f7ed908ff2e40b254ea911b86a8497222ab54394e5961796285735f1e6306179d92610756565b92615809610322565b918291826103a1565b0390a284906158566158447f0ca75b321f6e90d0db87a6ebff8f863f1515b32370e49cee4d3a305f0f9ab61392610756565b9261584d610322565b918291826103a1565b0390a2612f2f565b612f2f565b90565b9161587360209293612367565b6158965f63a9059cbb9593956158a161588a610322565b97889687958694612373565b8452600484016123ba565b03925af180156158ec576158bc915f916158be575b50612446565b565b6158df915060203d81116158e5575b6158d78183610f26565b81019061239c565b5f6158b6565b503d6158cd565b6123dd565b61592661592d9461591c606094989795615912608086019a5f870190610394565b6020850190610394565b60408301906105fc565b01906105fc565b565b61597190939461595f7f053d794b2310b8d186a24ae24a65ee066983a52a6efa6bd3df09a7601a3cb4f395610756565b95615968610322565b948594856158f1565b0390a2565b906159819101610334565b90565b919091806159a261599c6159975f614027565b6104ff565b916104ff565b145f14615a84576159c66159bf836159ba6003611a28565b6118b8565b600361232f565b5b826159e26159dc6159d75f614027565b6104ff565b916104ff565b145f14615a5757615a066159ff836159fa6003611a28565b614dd3565b600361232f565b5b919091615a52615a40615a3a7fddf252ad1be2c89b69c2b068fc378daa952ba7f163c4a11628f55a4df523b3ef93610756565b93610756565b93615a49610322565b918291826103a1565b0390a3565b615a7f82615a79615a6a60018790610762565b91615a7483611a28565b615976565b9061232f565b615a07565b615a98615a9360018390610762565b611a28565b80615aab615aa585610334565b91610334565b10615ad457615abe615acf918490614dd3565b615aca60018490610762565b61232f565b6159c7565b90615af29091925f93849363391434e360e21b855260048501614da1565b0390fdfea26469706673582212205f97c969966a0b42ef30612c20b740e0d00c6c42db6d271a4f6a1c8e2599af4a64736f6c634300081e0033","linkReferences":{}},"methodIdentifiers":{"PRICE_LOOKBACK_SECONDS()":"cd94deb0","PRICE_STALENESS_THRESHOLD()":"f25b9caa","addLiquidity(uint256,uint256,address)":"87b21efc","allowance(address,address)":"dd62ed3e","approve(address,uint256)":"095ea7b3","balanceOf(address)":"70a08231","batchAddLiquidity(uint256[],uint256[])":"34d62e3e","batchRemoveLiquidity(uint256[])":"0f393772","batchSwap(uint256[],address[],uint256[])":"223751a9","claimLPReward()":"e547bb91","claimProtocolFees()":"4a7d0369","decimals()":"313ce567","factory()":"c45a0155","flashLoan(address,uint256,bytes)":"e0232b42","flashLoanFeeBps()":"c0c7347e","getAmountOut(uint256,uint256,uint256)":"054d50d4","getReserves()":"0902f1ac","getTokenTwap(address)":"97cf739f","getTwap(string)":"80b67fe0","governance()":"5aa6e675","initialize(address,address)":"485cc955","initialized()":"158ef93e","lastUpdateTimestamp()":"14bcec9f","liquidityBalance(address)":"dd296480","lpFeeBps()":"3d5c5068","lpRewards(address)":"1391e1ad","name()":"06fdde03","pause()":"8456cb59","paused()":"5c975abb","price0CumulativeLast()":"5909c0d5","price1CumulativeLast()":"5a3d5493","protocolFeeBps()":"35659fb8","protocolFeesAccrued()":"b621e75a","protocolTreasury()":"803db96d","publicSwap(uint256,address,uint256,address)":"a4196d3c","removeLiquidity(uint256)":"9c8f9f23","setGovernance(address)":"ab033ea9","setProtocolFee(uint256,address)":"ea289d00","setTokenDenom(address,string)":"7b123e84","symbol()":"95d89b41","token0()":"0dfe1681","token1()":"d21220a7","tokenDenoms(address)":"ccdb987f","totalLiquidity()":"15770f92","totalSupply()":"18160ddd","transfer(address,uint256)":"a9059cbb","transferFrom(address,address,uint256)":"23b872dd","unpause()":"3f4ba83a"},"id":25}