{"abi":[{"type":"constructor","inputs":[{"name":"_factory","type":"address","internalType":"address"}],"stateMutability":"nonpayable"},{"type":"function","name":"addLiquidity","inputs":[{"name":"tokenA","type":"address","internalType":"address"},{"name":"tokenB","type":"address","internalType":"address"},{"name":"amountA","type":"uint256","internalType":"uint256"},{"name":"amountB","type":"uint256","internalType":"uint256"}],"outputs":[{"name":"pair","type":"address","internalType":"address"},{"name":"liquidity","type":"uint256","internalType":"uint256"}],"stateMutability":"nonpayable"},{"type":"function","name":"allPairs","inputs":[{"name":"","type":"uint256","internalType":"uint256"}],"outputs":[{"name":"","type":"address","internalType":"address"}],"stateMutability":"view"},{"type":"function","name":"allPairsLength","inputs":[],"outputs":[{"name":"","type":"uint256","internalType":"uint256"}],"stateMutability":"view"},{"type":"function","name":"createPair","inputs":[{"name":"tokenA","type":"address","internalType":"address"},{"name":"tokenB","type":"address","internalType":"address"}],"outputs":[{"name":"pair","type":"address","internalType":"address"}],"stateMutability":"nonpayable"},{"type":"function","name":"factory","inputs":[],"outputs":[{"name":"","type":"address","internalType":"contract IBarukFactory"}],"stateMutability":"view"},{"type":"function","name":"flashSwap","inputs":[{"name":"tokenA","type":"address","internalType":"address"},{"name":"tokenB","type":"address","internalType":"address"},{"name":"amount0Out","type":"uint256","internalType":"uint256"},{"name":"amount1Out","type":"uint256","internalType":"uint256"},{"name":"to","type":"address","internalType":"address"},{"name":"data","type":"bytes","internalType":"bytes"}],"outputs":[],"stateMutability":"nonpayable"},{"type":"function","name":"getPair","inputs":[{"name":"","type":"address","internalType":"address"},{"name":"","type":"address","internalType":"address"}],"outputs":[{"name":"","type":"address","internalType":"address"}],"stateMutability":"view"},{"type":"function","name":"governance","inputs":[],"outputs":[{"name":"","type":"address","internalType":"address"}],"stateMutability":"view"},{"type":"function","name":"pause","inputs":[],"outputs":[],"stateMutability":"nonpayable"},{"type":"function","name":"paused","inputs":[],"outputs":[{"name":"","type":"bool","internalType":"bool"}],"stateMutability":"view"},{"type":"function","name":"removeLiquidity","inputs":[{"name":"tokenA","type":"address","internalType":"address"},{"name":"tokenB","type":"address","internalType":"address"},{"name":"liquidity","type":"uint256","internalType":"uint256"}],"outputs":[{"name":"amountA","type":"uint256","internalType":"uint256"},{"name":"amountB","type":"uint256","internalType":"uint256"}],"stateMutability":"nonpayable"},{"type":"function","name":"setGovernance","inputs":[{"name":"newGovernance","type":"address","internalType":"address"}],"outputs":[],"stateMutability":"nonpayable"},{"type":"function","name":"swap","inputs":[{"name":"tokenIn","type":"address","internalType":"address"},{"name":"tokenOut","type":"address","internalType":"address"},{"name":"amountIn","type":"uint256","internalType":"uint256"},{"name":"minAmountOut","type":"uint256","internalType":"uint256"},{"name":"deadline","type":"uint256","internalType":"uint256"},{"name":"recipient","type":"address","internalType":"address"}],"outputs":[{"name":"amountOut","type":"uint256","internalType":"uint256"}],"stateMutability":"nonpayable"},{"type":"function","name":"unpause","inputs":[],"outputs":[],"stateMutability":"nonpayable"},{"type":"event","name":"FlashSwap","inputs":[{"name":"user","type":"address","indexed":true,"internalType":"address"},{"name":"pair","type":"address","indexed":true,"internalType":"address"},{"name":"amount0Out","type":"uint256","indexed":false,"internalType":"uint256"},{"name":"amount1Out","type":"uint256","indexed":false,"internalType":"uint256"},{"name":"reserve0","type":"uint256","indexed":false,"internalType":"uint256"},{"name":"reserve1","type":"uint256","indexed":false,"internalType":"uint256"}],"anonymous":false},{"type":"event","name":"GovernanceTransferred","inputs":[{"name":"previousGovernance","type":"address","indexed":true,"internalType":"address"},{"name":"newGovernance","type":"address","indexed":true,"internalType":"address"}],"anonymous":false},{"type":"event","name":"LiquidityAdded","inputs":[{"name":"provider","type":"address","indexed":true,"internalType":"address"},{"name":"pair","type":"address","indexed":true,"internalType":"address"},{"name":"amount0","type":"uint256","indexed":false,"internalType":"uint256"},{"name":"amount1","type":"uint256","indexed":false,"internalType":"uint256"},{"name":"liquidity","type":"uint256","indexed":false,"internalType":"uint256"}],"anonymous":false},{"type":"event","name":"LiquidityRemoved","inputs":[{"name":"provider","type":"address","indexed":true,"internalType":"address"},{"name":"pair","type":"address","indexed":true,"internalType":"address"},{"name":"amount0","type":"uint256","indexed":false,"internalType":"uint256"},{"name":"amount1","type":"uint256","indexed":false,"internalType":"uint256"},{"name":"liquidity","type":"uint256","indexed":false,"internalType":"uint256"}],"anonymous":false},{"type":"event","name":"PairCreated","inputs":[{"name":"token0","type":"address","indexed":true,"internalType":"address"},{"name":"token1","type":"address","indexed":true,"internalType":"address"},{"name":"pair","type":"address","indexed":false,"internalType":"address"},{"name":"","type":"uint256","indexed":false,"internalType":"uint256"}],"anonymous":false},{"type":"event","name":"Paused","inputs":[{"name":"by","type":"address","indexed":true,"internalType":"address"}],"anonymous":false},{"type":"event","name":"Swap","inputs":[{"name":"user","type":"address","indexed":true,"internalType":"address"},{"name":"pair","type":"address","indexed":true,"internalType":"address"},{"name":"amountIn","type":"uint256","indexed":false,"internalType":"uint256"},{"name":"amountOut","type":"uint256","indexed":false,"internalType":"uint256"},{"name":"tokenIn","type":"address","indexed":false,"internalType":"address"},{"name":"tokenOut","type":"address","indexed":false,"internalType":"address"}],"anonymous":false},{"type":"event","name":"Unpaused","inputs":[{"name":"by","type":"address","indexed":true,"internalType":"address"}],"anonymous":false},{"type":"error","name":"IdenticalAddresses","inputs":[]},{"type":"error","name":"InvalidToken","inputs":[]},{"type":"error","name":"PairExists","inputs":[]},{"type":"error","name":"PairNotFound","inputs":[]},{"type":"error","name":"ReentrancyGuardReentrantCall","inputs":[]},{"type":"error","name":"TransactionExpired","inputs":[]},{"type":"error","name":"TransferFailed","inputs":[]},{"type":"error","name":"ZeroAddress","inputs":[]}],"bytecode":{"object":"0x60806040523461002f576100196100146100f4565b6101d6565b610021610034565b6127dc61029682396127dc90f35b61003a565b60405190565b5f80fd5b601f801991011690565b634e487b7160e01b5f52604160045260245ffd5b906100669061003e565b810190811060018060401b0382111761007e57604052565b610048565b9061009661008f610034565b928361005c565b565b5f80fd5b60018060a01b031690565b6100b09061009c565b90565b6100bc816100a7565b036100c357565b5f80fd5b905051906100d4826100b3565b565b906020828203126100ef576100ec915f016100c7565b90565b610098565b610112612a728038038061010781610083565b9283398101906100d6565b90565b90565b61012c6101276101319261009c565b610115565b61009c565b90565b61013d90610118565b90565b61014990610134565b90565b5f1b90565b9061016260018060a01b039161014c565b9181191691161790565b61017590610134565b90565b90565b9061019061018b6101979261016c565b610178565b8254610151565b9055565b6101a490610118565b90565b6101b09061019b565b90565b90565b906101cb6101c66101d2926101a7565b6101b3565b8254610151565b9055565b6101ea6101f1916101e5610282565b610140565b600161017b565b6101fc3360026101b6565b565b90565b90565b61021861021361021d926101fe565b610115565b610201565b90565b61022a6001610204565b90565b906102395f199161014c565b9181191691161790565b61025761025261025c92610201565b610115565b610201565b90565b90565b9061027761027261027e92610243565b61025f565b825461022d565b9055565b61029361028d610220565b5f610262565b56fe60806040526004361015610013575b610929565b61001d5f356100fc565b80631e3dd18b146100f75780633f4ba83a146100f2578063574f2ba3146100ed57806359c9fde4146100e85780635aa6e675146100e35780635c975abb146100de5780636a33d28e146100d95780638456cb59146100d4578063ab033ea9146100cf578063c45a0155146100ca578063c9c65396146100c5578063cf6c62ea146100c0578063d752fab2146100bb5763e6a439050361000e576108f3565b610863565b6107cc565b61072d565b6106cb565b6105ff565b6105ae565b610572565b6104d9565b610441565b6103f8565b6102d9565b610284565b61023b565b60e01c90565b60405190565b5f80fd5b5f80fd5b5f80fd5b90565b61012081610114565b0361012757565b5f80fd5b9050359061013882610117565b565b9060208282031261015357610150915f0161012b565b90565b61010c565b634e487b7160e01b5f52603260045260245ffd5b5490565b5f5260205f2090565b6101828161016c565b82101561019c57610194600191610170565b910201905f90565b610158565b1c90565b60018060a01b031690565b6101c09060086101c593026101a1565b6101a5565b90565b906101d391546101b0565b90565b60046101e18161016c565b8210156101fe576101fb916101f591610179565b906101c8565b90565b5f80fd5b60018060a01b031690565b61021690610202565b90565b6102229061020d565b9052565b9190610239905f60208501940190610219565b565b3461026b5761026761025661025136600461013a565b6101d6565b61025e610102565b91829182610226565b0390f35b610108565b5f91031261027a57565b61010c565b5f0190565b346102b257610294366004610270565b61029c610b64565b6102a4610102565b806102ae8161027f565b0390f35b610108565b6102c090610114565b9052565b91906102d7905f602085019401906102b7565b565b34610309576102e9366004610270565b6103056102f4610b72565b6102fc610102565b918291826102c4565b0390f35b610108565b6103178161020d565b0361031e57565b5f80fd5b9050359061032f8261030e565b565b5f80fd5b5f80fd5b5f80fd5b909182601f830112156103775781359167ffffffffffffffff831161037257602001926001830284011161036d57565b610339565b610335565b610331565b9160c0838303126103f357610393825f8501610322565b926103a18360208301610322565b926103af816040840161012b565b926103bd826060850161012b565b926103cb8360808301610322565b9260a082013567ffffffffffffffff81116103ee576103ea920161033d565b9091565b610110565b61010c565b3461042d5761041761040b36600461037c565b95949094939193611678565b61041f610102565b806104298161027f565b0390f35b610108565b61043e60025f906101c8565b90565b3461047157610451366004610270565b61046d61045c610432565b610464610102565b91829182610226565b0390f35b610108565b60ff1690565b61048c90600861049193026101a1565b610476565b90565b9061049f915461047c565b90565b6104af6002601490610494565b90565b151590565b6104c0906104b2565b9052565b91906104d7905f602085019401906104b7565b565b34610509576104e9366004610270565b6105056104f46104a2565b6104fc610102565b918291826104c4565b0390f35b610108565b909160c08284031261056d57610526835f8401610322565b926105348160208501610322565b92610542826040830161012b565b9261056a610553846060850161012b565b93610561816080860161012b565b9360a001610322565b90565b61010c565b346105a9576105a561059461058836600461050e565b949390939291926119ba565b61059c610102565b918291826102c4565b0390f35b610108565b346105dc576105be366004610270565b6105c6611aee565b6105ce610102565b806105d88161027f565b0390f35b610108565b906020828203126105fa576105f7915f01610322565b90565b61010c565b3461062d576106176106123660046105e1565b611c73565b61061f610102565b806106298161027f565b0390f35b610108565b60018060a01b031690565b61064d90600861065293026101a1565b610632565b90565b90610660915461063d565b90565b61066f60015f90610655565b90565b90565b61068961068461068e92610202565b610672565b610202565b90565b61069a90610675565b90565b6106a690610691565b90565b6106b29061069d565b9052565b91906106c9905f602085019401906106a9565b565b346106fb576106db366004610270565b6106f76106e6610663565b6106ee610102565b918291826106b6565b0390f35b610108565b9190604083820312610728578061071c610725925f8601610322565b93602001610322565b90565b61010c565b3461075e5761075a610749610743366004610700565b90611f8e565b610751610102565b91829182610226565b0390f35b610108565b6080818303126107a457610779825f8301610322565b926107a161078a8460208501610322565b93610798816040860161012b565b9360600161012b565b90565b61010c565b9160206107ca9294936107c360408201965f830190610219565b01906102b7565b565b34610801576107e86107df366004610763565b9291909161242e565b906107fd6107f4610102565b928392836107a9565b0390f35b610108565b909160608284031261083b57610838610821845f8501610322565b9361082f8160208601610322565b9360400161012b565b90565b61010c565b91602061086192949361085a60408201965f8301906102b7565b01906102b7565b565b346108955761087c610876366004610806565b9161264c565b90610891610888610102565b92839283610840565b0390f35b610108565b6108a390610691565b90565b906108b09061089a565b5f5260205260405f2090565b906108c69061089a565b5f5260205260405f2090565b6108eb6108f0926108e66003935f946108a6565b6108bc565b6101c8565b90565b346109245761092061090f610909366004610700565b906108d2565b610917610102565b91829182610226565b0390f35b610108565b5f80fd5b5f1c90565b61093e6109439161092d565b6101a5565b90565b6109509054610932565b90565b60209181520190565b5f7f4e6f7420676f7665726e616e6365000000000000000000000000000000000000910152565b610990600e602092610953565b6109998161095c565b0190565b6109b29060208101905f818303910152610983565b90565b156109bc57565b6109c4610102565b62461bcd60e51b8152806109da6004820161099d565b0390fd5b610a03336109fd6109f76109f26002610946565b61020d565b9161020d565b146109b5565b610a0b610b04565b565b60a01c90565b610a1f610a2491610a0d565b610476565b90565b610a319054610a13565b90565b5f7f4e6f742070617573656400000000000000000000000000000000000000000000910152565b610a68600a602092610953565b610a7181610a34565b0190565b610a8a9060208101905f818303910152610a5b565b90565b15610a9457565b610a9c610102565b62461bcd60e51b815280610ab260048201610a75565b0390fd5b60a01b90565b90610acb60ff60a01b91610ab6565b9181191691161790565b610ade906104b2565b90565b90565b90610af9610af4610b0092610ad5565b610ae1565b8254610abc565b9055565b610b16610b116002610a27565b610a8d565b610b215f6002610ae4565b33610b4c7f5db9ee0a495bf2e6ff9c91a7834c1ba4fdd244a5e8aa4e537bd38aeae4b073aa9161089a565b90610b55610102565b80610b5f8161027f565b0390a2565b610b6c6109de565b565b5f90565b610b7a610b6e565b50610b85600461016c565b90565b90610b9f969594939291610b9a612711565b610c2b565b610ba7612793565b565b5f7f5061757365640000000000000000000000000000000000000000000000000000910152565b610bdd6006602092610953565b610be681610ba9565b0190565b610bff9060208101905f818303910152610bd0565b90565b15610c0957565b610c11610102565b62461bcd60e51b815280610c2760048201610bea565b0390fd5b90610c55969594939291610c50610c4b610c456002610a27565b156104b2565b610c02565b610f63565b565b610c63610c689161092d565b610632565b90565b610c759054610c57565b90565b5f80fd5b601f801991011690565b634e487b7160e01b5f52604160045260245ffd5b90610ca490610c7c565b810190811067ffffffffffffffff821117610cbe57604052565b610c86565b60e01b90565b90505190610cd68261030e565b565b90602082820312610cf157610cee915f01610cc9565b90565b61010c565b916020610d17929493610d1060408201965f830190610219565b0190610219565b565b610d21610102565b3d5f823e3d90fd5b90565b610d40610d3b610d4592610d29565b610672565b610202565b90565b610d5190610d2c565b90565b610d5d90610675565b90565b610d6990610d54565b90565b610d7590610691565b90565b610d8190610675565b90565b610d8d90610d78565b90565b610d9990610691565b90565b90505190610da982610117565b565b90602082820312610dc457610dc1915f01610d9c565b90565b61010c565b610ddd610dd8610de292610d29565b610672565b610114565b90565b610dee816104b2565b03610df557565b5f80fd5b90505190610e0682610de5565b565b90602082820312610e2157610e1e915f01610df9565b90565b61010c565b604090610e4f610e569496959396610e4560608401985f850190610219565b6020830190610219565b01906102b7565b565b610e6190610675565b90565b610e6d90610e58565b90565b610e7990610691565b90565b5f910312610e8657565b61010c565b60209181520190565b90825f939282370152565b9190610eb981610eb281610ebe95610e8b565b8095610e94565b610c7c565b0190565b610ee8610ef59593949294610ede60608401965f8501906102b7565b60208301906102b7565b6040818503910152610e9f565b90565b9190604083820312610f205780610f14610f1d925f8601610d9c565b93602001610d9c565b90565b61010c565b610f5a610f6194610f50606094989795610f46608086019a5f8701906102b7565b60208501906102b7565b60408301906102b7565b01906102b7565b565b90602090969496959295610f7f610f7a6001610c6b565b61069d565b610fa163e6a43905949294610fac610f95610102565b96879586948594610cc3565b845260048401610cf6565b03915afa908115611673575f91611645575b509283610fdb610fd5610fd05f610d48565b61020d565b9161020d565b146116295761100c6020610ff6610ff187610d60565b610d6c565b630dfe168190611004610102565b938492610cc3565b8252818061101c6004820161027f565b03915afa908115611624575f916115f6575b509161105c602061104661104188610d60565b610d6c565b63d21220a790611054610102565b938492610cc3565b8252818061106c6004820161027f565b03915afa9081156115f1575f916115c3575b50926110c0602061109661109184610d84565b610d90565b6370a08231906110b58a926110a9610102565b95869485938493610cc3565b835260048301610226565b03915afa9081156115be575f91611590575b509061111460206110ea6110e588610d84565b610d90565b6370a08231906111098b926110fd610102565b95869485938493610cc3565b835260048301610226565b03915afa90811561158b575f9161155d575b50938861113b6111355f610dc9565b91610114565b116114d3575b8661115461114e5f610dc9565b91610114565b11611449575b61116b6111668b610e64565b610e70565b9063949f5237918a91899690823b15611444575f946111a8869261119d94611191610102565b9b8c9889978896610cc3565b865260048601610ec2565b03925af192831561143f576111cc6020926111d1926111fb96611413575b50610d84565b610d90565b6370a08231906111f089926111e4610102565b96879485938493610cc3565b835260048301610226565b03915afa91821561140e575f926113d6575b5061121a61122091610114565b91610114565b1091821561132a575b505061130e5761125c90604061124661124185610d60565b610d6c565b630902f1ac90611254610102565b948592610cc3565b8252818061126c6004820161027f565b03915afa8015611309575f809390916112d6575b506112d190929593949192956112bf6112b97f1d8361a929bfa85ed8fc6641df753e05bd1d20a13ae22bddf5f88b7cfb4d1e909661089a565b9661089a565b966112c8610102565b94859485610f25565b0390a3565b6112d193506112fc915060403d8111611302575b6112f48183610c9a565b810190610ef8565b92611280565b503d6112ea565b610d19565b5f6312171d8360e31b8152806113266004820161027f565b0390fd5b61136c925061134261133d602092610d84565b610d90565b6370a08231906113618792611355610102565b96879485938493610cc3565b835260048301610226565b03915afa9182156113d1575f92611399575b5061138b61139191610114565b91610114565b105f80611229565b6113919192506113c261138b9160203d81116113ca575b6113ba8183610c9a565b810190610dab565b92915061137e565b503d6113b0565b610d19565b6112209192506113ff61121a9160203d8111611407575b6113f78183610c9a565b810190610dab565b92915061120d565b503d6113ed565b610d19565b611432905f3d8111611438575b61142a8183610c9a565b810190610e7c565b5f6111c6565b503d611420565b610d19565b610c78565b8660208b61145e6114598a610d84565b610d90565b6114825f8d61148d6323b872dd919597611476610102565b98899788968795610cc3565b855260048501610e26565b03925af180156114ce576114a2575b5061115a565b6114c29060203d81116114c7575b6114ba8183610c9a565b810190610e08565b61149c565b503d6114b0565b610d19565b8860208b6114e86114e386610d84565b610d90565b61150c5f8d6115176323b872dd919597611500610102565b98899788968795610cc3565b855260048501610e26565b03925af180156115585761152c575b50611141565b61154c9060203d8111611551575b6115448183610c9a565b810190610e08565b611526565b503d61153a565b610d19565b61157e915060203d8111611584575b6115768183610c9a565b810190610dab565b5f611126565b503d61156c565b610d19565b6115b1915060203d81116115b7575b6115a98183610c9a565b810190610dab565b5f6110d2565b503d61159f565b610d19565b6115e4915060203d81116115ea575b6115dc8183610c9a565b810190610cd8565b5f61107e565b503d6115d2565b610d19565b611617915060203d811161161d575b61160f8183610c9a565b810190610cd8565b5f61102e565b503d611605565b610d19565b5f63d719ab6960e01b8152806116416004820161027f565b0390fd5b611666915060203d811161166c575b61165e8183610c9a565b810190610cd8565b5f610fbe565b503d611654565b610d19565b90611687969594939291610b88565b565b906116a096959493929161169b612711565b6116ab565b906116a9612793565b565b906116d59695949392916116d06116cb6116c56002610a27565b156104b2565b610c02565b611754565b90565b61170d611714946117036060949897956116f9608086019a5f8701906102b7565b6020850190610219565b60408301906102b7565b0190610219565b565b61174b61175294611741606094989795611737608086019a5f8701906102b7565b60208501906102b7565b6040830190610219565b0190610219565b565b96959293919490965061177061176a4292610114565b91610114565b1161199e576117876117826001610c6b565b61069d565b602063e6a439059188906117ad88946117b86117a1610102565b96879586948594610cc3565b845260048401610cf6565b03915afa908115611999575f9161196b575b5091826117e76117e16117dc5f610d48565b61020d565b9161020d565b1461194f576117fd6117f888610d84565b610d90565b9060206323b872dd9233906118265f88966118318b61181a610102565b998a9788968795610cc3565b855260048501610e26565b03925af191821561194a5760209261191f575b5061185661185185610d60565b610d6c565b61187a5f63a4196d3c61188589958d9861186e610102565b998a9889978896610cc3565b8652600486016116d8565b03925af190811561191a575f916118ec575b50943391926118e78792956118d56118cf7f73adcdbf2d8fee0c1221daefef436a92c3c640e97ff2941e744bf5eef1ab346f9661089a565b9661089a565b966118de610102565b94859485611716565b0390a3565b61190d915060203d8111611913575b6119058183610c9a565b810190610dab565b5f611897565b503d6118fb565b610d19565b61193e90833d8111611943575b6119368183610c9a565b810190610e08565b611844565b503d61192c565b610d19565b5f63d719ab6960e01b8152806119676004820161027f565b0390fd5b61198c915060203d8111611992575b6119848183610c9a565b810190610cd8565b5f6117ca565b503d61197a565b610d19565b5f6338e5e54b60e21b8152806119b66004820161027f565b0390fd5b906119d095949392916119cb610b6e565b611689565b90565b6119f8336119f26119ec6119e76002610946565b61020d565b9161020d565b146109b5565b611a00611a84565b565b5f7f416c726561647920706175736564000000000000000000000000000000000000910152565b611a36600e602092610953565b611a3f81611a02565b0190565b611a589060208101905f818303910152611a29565b90565b15611a6257565b611a6a610102565b62461bcd60e51b815280611a8060048201611a43565b0390fd5b611a9f611a9a611a946002610a27565b156104b2565b611a5b565b611aab60016002610ae4565b33611ad67f62e78cea01bee320cd4e420270b5ea74000d11b0c9f74754ebdbfc544b05a2589161089a565b90611adf610102565b80611ae98161027f565b0390a2565b611af66119d3565b565b611b2690611b2133611b1b611b15611b106002610946565b61020d565b9161020d565b146109b5565b611bed565b565b5f7f5a65726f20616464726573730000000000000000000000000000000000000000910152565b611b5c600c602092610953565b611b6581611b28565b0190565b611b7e9060208101905f818303910152611b4f565b90565b15611b8857565b611b90610102565b62461bcd60e51b815280611ba660048201611b69565b0390fd5b5f1b90565b90611bc060018060a01b0391611baa565b9181191691161790565b90565b90611be2611bdd611be99261089a565b611bca565b8254611baf565b9055565b611c7190611c1681611c0f611c09611c045f610d48565b61020d565b9161020d565b1415611b81565b611c206002610946565b81611c54611c4e7f5f56bee8cffbe9a78652a74a60705edede02af10b0bbb888ca44b79a0d42ce809361089a565b9161089a565b91611c5d610102565b80611c678161027f565b0390a36002611bcd565b565b611c7c90611af8565b565b5f90565b90611ca89291611ca3611c9e611c986002610a27565b156104b2565b610c02565b611d68565b90565b90565b5f5260205f2090565b5490565b611cc481611cb7565b821015611cde57611cd6600191611cae565b910201905f90565b610158565b1b90565b91906008611d07910291611d0160018060a01b0384611ce3565b92611ce3565b9181191691161790565b9190611d27611d22611d2f9361089a565b611bca565b908354611ce7565b9055565b9081549168010000000000000000831015611d635782611d5b916001611d6195018155611cbb565b90611d11565b565b610c86565b9291925080611d7f611d798561020d565b9161020d565b14611f725780611d97611d918561020d565b9161020d565b105f14611f6c575b9182611dbb611db5611db05f610d48565b61020d565b9161020d565b14611f5057611dde611dd9611dd2600386906108a6565b83906108bc565b610946565b611df8611df2611ded5f610d48565b61020d565b9161020d565b03611f3457611e0f611e0a6001610c6b565b61069d565b602063c9c65396918590611e365f8695611e41611e2a610102565b97889687958694610cc3565b845260048401610cf6565b03925af1908115611f2f575f91611f01575b5092611e7484611e6f611e68600385906108a6565b85906108bc565b611bcd565b611e9384611e8e611e87600386906108a6565b84906108bc565b611bcd565b611ea7611ea06004611cab565b8590611d33565b908391611eb4600461016c565b611ee7611ee17f0d3648bd0f6ba80134a33ba9275ac585d9d315f0ad8355cddefde31afa28d0e99361089a565b9361089a565b93611efc611ef3610102565b928392836107a9565b0390a3565b611f22915060203d8111611f28575b611f1a8183610c9a565b810190610cd8565b5f611e53565b503d611f10565b610d19565b5f633d77e89160e01b815280611f4c6004820161027f565b0390fd5b5f63d92e233d60e01b815280611f686004820161027f565b0390fd5b91611d9f565b5f630bd969eb60e41b815280611f8a6004820161027f565b0390fd5b90611fa091611f9b611c7e565b611c82565b90565b90611fb99594939291611fb4612711565b611fc5565b9091611fc3612793565b565b90611fee9594939291611fe9611fe4611fde6002610a27565b156104b2565b610c02565b612062565b9091565b611ffb90610691565b90565b60409061202761202e949695939661201d60608401985f8501906102b7565b60208301906102b7565b0190610219565b565b604090612059612060949695939661204f60608401985f8501906102b7565b60208301906102b7565b01906102b7565b565b959394929195505061207c6120776001610c6b565b61069d565b602063e6a439059187906120a285946120ad612096610102565b96879586948594610cc3565b845260048401610cf6565b03915afa908115612429575f916123fb575b5094856120dc6120d66120d15f610d48565b61020d565b9161020d565b146123e8575b6120f36120ee82610d84565b610d90565b60206323b872dd9133906121235f61210a30611ff2565b9561212e8c612117610102565b98899788968795610cc3565b855260048501610e26565b03925af180156123e3576123b7575b5061214f61214a83610d84565b610d90565b9060206323b872dd9233906121805f61216730611ff2565b9661218b8a612174610102565b998a9788968795610cc3565b855260048501610e26565b03925af19081156123b2576121ae926121a992612386575b50610d84565b610d90565b90602063095ea7b39287906121d65f89966121e16121ca610102565b98899687958694610cc3565b8452600484016107a9565b03925af190811561238157612204926121ff92612355575b50610d84565b610d90565b602063095ea7b391869061222b5f869561223661221f610102565b97889687958694610cc3565b8452600484016107a9565b03925af1801561235057612324575b5061225761225285610d60565b610d6c565b60206387b21efc91859061227f5f869561228a33612273610102565b98899788968795610cc3565b855260048501611ffe565b03925af190811561231f575f916122f1575b50923385919285936122ec6122da6122d47f4a1a2a6176e9646d9e3157f7c2ab3c499f18337c0b0828cfb28e0a61de4a11f79561089a565b9561089a565b956122e3610102565b93849384612030565b0390a3565b612312915060203d8111612318575b61230a8183610c9a565b810190610dab565b5f61229c565b503d612300565b610d19565b6123449060203d8111612349575b61233c8183610c9a565b810190610e08565b612245565b503d612332565b610d19565b6123759060203d811161237a575b61236d8183610c9a565b810190610e08565b6121f9565b503d612363565b610d19565b6123a69060203d81116123ab575b61239e8183610c9a565b810190610e08565b6121a3565b503d612394565b610d19565b6123d79060203d81116123dc575b6123cf8183610c9a565b810190610e08565b61213d565b503d6123c5565b610d19565b94506123f5858290611f8e565b946120e2565b61241c915060203d8111612422575b6124148183610c9a565b810190610cd8565b5f6120bf565b503d61240a565b610d19565b9061244b93929161243d611c7e565b612445610b6e565b90611fa3565b9091565b906124649493929161245f612711565b612470565b909161246e612793565b565b906124989493929161249361248e6124886002610a27565b156104b2565b610c02565b61249c565b9091565b90602092939150506124b66124b16001610c6b565b61069d565b6124d863e6a439059492946124e36124cc610102565b96879586948594610cc3565b845260048401610cf6565b03915afa908115612647575f91612619575b50918261251261250c6125075f610d48565b61020d565b9161020d565b146125fd5761255991604061252e61252986610d60565b610d6c565b639c8f9f239061254e5f8593612542610102565b98899586948593610cc3565b8352600483016102c4565b03925af19283156125f8575f809190946125c4575b5092933385928590936125bf6125ad6125a77fbc7d19d505c7ec4db83f3b51f19fb98c4c8a99922e7839d1ee608dfbee29501b9561089a565b9561089a565b956125b6610102565b93849384612030565b0390a3565b90506125e891935060403d81116125f1575b6125e08183610c9a565b810190610ef8565b5f93919361256e565b503d6125d6565b610d19565b5f63d719ab6960e01b8152806126156004820161027f565b0390fd5b61263a915060203d8111612640575b6126328183610c9a565b810190610cd8565b5f6124f5565b503d612628565b610d19565b90612668929161265a610b6e565b612662610b6e565b9061244f565b9091565b90565b61267b6126809161092d565b61266c565b90565b61268d905461266f565b90565b90565b6126a76126a26126ac92612690565b610672565b610114565b90565b6126b96002612693565b90565b906126c85f1991611baa565b9181191691161790565b6126e66126e16126eb92610114565b610672565b610114565b90565b90565b9061270661270161270d926126d2565b6126ee565b82546126bc565b9055565b61271a5f612683565b61273361272d6127286126af565b610114565b91610114565b1461274b576127496127436126af565b5f6126f1565b565b5f633ee5aeb560e01b8152806127636004820161027f565b0390fd5b90565b61277e61277961278392612767565b610672565b610114565b90565b612790600161276a565b90565b6127a461279e612786565b5f6126f1565b56fea2646970667358221220514bf05403bc9c909ffd4410796514d20dbce044ee9a44e5a046dc78af14bba464736f6c634300081e0033","linkReferences":{}},"methodIdentifiers":{"addLiquidity(address,address,uint256,uint256)":"cf6c62ea","allPairs(uint256)":"1e3dd18b","allPairsLength()":"574f2ba3","createPair(address,address)":"c9c65396","factory()":"c45a0155","flashSwap(address,address,uint256,uint256,address,bytes)":"59c9fde4","getPair(address,address)":"e6a43905","governance()":"5aa6e675","pause()":"8456cb59","paused()":"5c975abb","removeLiquidity(address,address,uint256)":"d752fab2","setGovernance(address)":"ab033ea9","swap(address,address,uint256,uint256,uint256,address)":"6a33d28e","unpause()":"3f4ba83a"},"id":30}