{"abi":[{"type":"constructor","inputs":[{"name":"_implementation","type":"address","internalType":"address"}],"stateMutability":"nonpayable"},{"type":"function","name":"createPair","inputs":[{"name":"token0","type":"address","internalType":"address"},{"name":"token1","type":"address","internalType":"address"}],"outputs":[{"name":"pair","type":"address","internalType":"address"}],"stateMutability":"nonpayable"},{"type":"function","name":"getPair","inputs":[{"name":"","type":"address","internalType":"address"},{"name":"","type":"address","internalType":"address"}],"outputs":[{"name":"","type":"address","internalType":"address"}],"stateMutability":"view"},{"type":"function","name":"implementation","inputs":[],"outputs":[{"name":"","type":"address","internalType":"address"}],"stateMutability":"view"},{"type":"error","name":"FailedDeployment","inputs":[]},{"type":"error","name":"InsufficientBalance","inputs":[{"name":"balance","type":"uint256","internalType":"uint256"},{"name":"needed","type":"uint256","internalType":"uint256"}]}],"bytecode":{"object":"0x60a06040523461003e57610019610014610103565b610124565b610021610043565b6108f061012a8239608051818181607101526105ea01526108f090f35b610049565b60405190565b5f80fd5b601f801991011690565b634e487b7160e01b5f52604160045260245ffd5b906100759061004d565b810190811060018060401b0382111761008d57604052565b610057565b906100a561009e610043565b928361006b565b565b5f80fd5b60018060a01b031690565b6100bf906100ab565b90565b6100cb816100b6565b036100d257565b5f80fd5b905051906100e3826100c2565b565b906020828203126100fe576100fb915f016100d6565b90565b6100a7565b610121610a1a8038038061011681610092565b9283398101906100e5565b90565b60805256fe60806040526004361015610013575b610275565b61001d5f3561004c565b80635c60da1b14610047578063c9c65396146100425763e6a439050361000e5761023f565b610151565b6100cc565b60e01c90565b60405190565b5f80fd5b5f80fd5b5f91031261006a57565b61005c565b7f000000000000000000000000000000000000000000000000000000000000000090565b60018060a01b031690565b6100a790610093565b90565b6100b39061009e565b9052565b91906100ca905f602085019401906100aa565b565b346100fc576100dc366004610060565b6100f86100e761006f565b6100ef610052565b918291826100b7565b0390f35b610058565b61010a8161009e565b0361011157565b5f80fd5b9050359061012282610101565b565b919060408382031261014c5780610140610149925f8601610115565b93602001610115565b90565b61005c565b346101825761017e61016d610167366004610124565b90610557565b610175610052565b918291826100b7565b0390f35b610058565b90565b61019e6101996101a392610093565b610187565b610093565b90565b6101af9061018a565b90565b6101bb906101a6565b90565b906101c8906101b2565b5f5260205260405f2090565b906101de906101b2565b5f5260205260405f2090565b1c90565b60018060a01b031690565b61020990600861020e93026101ea565b6101ee565b90565b9061021c91546101f9565b90565b61023761023c926102325f935f946101be565b6101d4565b610211565b90565b346102705761026c61025b610255366004610124565b9061021f565b610263610052565b918291826100b7565b0390f35b610058565b5f80fd5b5f90565b60209181520190565b5f7f4964656e746963616c2061646472657373657300000000000000000000000000910152565b6102ba601360209261027d565b6102c381610286565b0190565b6102dc9060208101905f8183039101526102ad565b90565b156102e657565b6102ee610052565b62461bcd60e51b815280610304600482016102c7565b0390fd5b90565b61031f61031a61032492610308565b610187565b610093565b90565b6103309061030b565b90565b5f7f5a65726f20616464726573730000000000000000000000000000000000000000910152565b610367600c60209261027d565b61037081610333565b0190565b6103899060208101905f81830391015261035a565b90565b1561039357565b61039b610052565b62461bcd60e51b8152806103b160048201610374565b0390fd5b5f1c90565b6103c66103cb916103b5565b6101ee565b90565b6103d890546103ba565b90565b5f7f5061697220657869737473000000000000000000000000000000000000000000910152565b61040f600b60209261027d565b610418816103db565b0190565b6104319060208101905f818303910152610402565b90565b1561043b57565b610443610052565b62461bcd60e51b8152806104596004820161041c565b0390fd5b6104669061018a565b90565b6104729061045d565b90565b61047e906101a6565b90565b5f80fd5b601f801991011690565b634e487b7160e01b5f52604160045260245ffd5b906104ad90610485565b810190811067ffffffffffffffff8211176104c757604052565b61048f565b60e01b90565b5f9103126104dc57565b61005c565b9160206105029294936104fb60408201965f8301906100aa565b01906100aa565b565b61050c610052565b3d5f823e3d90fd5b5f1b90565b9061052a60018060a01b0391610514565b9181191691161790565b90565b9061054c610547610553926101b2565b610534565b8254610519565b9055565b919091610562610279565b50610580816105796105738661009e565b9161009e565b14156102df565b6105a58161059e6105986105935f610327565b61009e565b9161009e565b141561038c565b6105e56105c56105c06105b95f85906101be565b86906101d4565b6103ce565b6105df6105d96105d45f610327565b61009e565b9161009e565b14610434565b61060e7f0000000000000000000000000000000000000000000000000000000000000000610788565b9261062061061b85610469565b610475565b63485cc955838392803b156107645761064c5f8094610657610640610052565b978896879586946104cc565b8452600484016104e1565b03925af1801561075f57610733575b5061067861067385610469565b610475565b9163ab033ea933843b1561072e576106af946106a45f8094610698610052565b988995869485936104cc565b8352600483016100b7565b03925af1908115610729576106fb936106f6926106fd575b506106e6866106e16106da5f85906101be565b86906101d4565b610537565b6106f186935f6101be565b6101d4565b610537565b565b61071c905f3d8111610722575b61071481836104a3565b8101906104d2565b5f6106c7565b503d61070a565b610504565b610481565b610752905f3d8111610758575b61074a81836104a3565b8101906104d2565b5f610666565b503d610740565b610504565b610481565b90565b61078061077b61078592610308565b610187565b610769565b90565b6107a490610794610279565b5061079e5f61076c565b906107e8565b90565b6107b0906101a6565b90565b6107bc90610769565b9052565b9160206107e19294936107da60408201965f8301906107b3565b01906107b3565b565b5f0190565b6107f0610279565b506107fa306107a7565b3161080d61080784610769565b91610769565b10610891576037916e5af43d82803e903d91602b57fd5bf382763d602d80600a3d3981f3363d3d373d3d3d363d7300000060099460601b60e81c175f5260781b17602052f0908161086e6108686108635f610327565b61009e565b9161009e565b1461087557565b5f63b06ebf3d60e01b81528061088d600482016107e3565b0390fd5b5061089b306107a7565b316108b65f92839263cf47918160e01b8452600484016107c0565b0390fdfea2646970667358221220d5cbeeeafbc510b8f5f5a30ca621a4c5061067e13b16da46c955cebcecc8aafd64736f6c634300081e0033","linkReferences":{}},"methodIdentifiers":{"createPair(address,address)":"c9c65396","getPair(address,address)":"e6a43905","implementation()":"5c60da1b"},"id":26}