{"abi":[{"type":"constructor","inputs":[{"name":"_router","type":"address","internalType":"address"}],"stateMutability":"nonpayable"},{"type":"function","name":"cancelOrder","inputs":[{"name":"orderId","type":"uint256","internalType":"uint256"}],"outputs":[],"stateMutability":"nonpayable"},{"type":"function","name":"claimProtocolFees","inputs":[{"name":"token","type":"address","internalType":"address"}],"outputs":[],"stateMutability":"nonpayable"},{"type":"function","name":"executeOrder","inputs":[{"name":"orderId","type":"uint256","internalType":"uint256"},{"name":"amountOut","type":"uint256","internalType":"uint256"}],"outputs":[],"stateMutability":"nonpayable"},{"type":"function","name":"governance","inputs":[],"outputs":[{"name":"","type":"address","internalType":"address"}],"stateMutability":"view"},{"type":"function","name":"orders","inputs":[{"name":"","type":"uint256","internalType":"uint256"}],"outputs":[{"name":"user","type":"address","internalType":"address"},{"name":"tokenIn","type":"address","internalType":"address"},{"name":"tokenOut","type":"address","internalType":"address"},{"name":"amountIn","type":"uint256","internalType":"uint256"},{"name":"minAmountOut","type":"uint256","internalType":"uint256"},{"name":"active","type":"bool","internalType":"bool"}],"stateMutability":"view"},{"type":"function","name":"pause","inputs":[],"outputs":[],"stateMutability":"nonpayable"},{"type":"function","name":"paused","inputs":[],"outputs":[{"name":"","type":"bool","internalType":"bool"}],"stateMutability":"view"},{"type":"function","name":"placeOrder","inputs":[{"name":"tokenIn","type":"address","internalType":"address"},{"name":"tokenOut","type":"address","internalType":"address"},{"name":"amountIn","type":"uint256","internalType":"uint256"},{"name":"minAmountOut","type":"uint256","internalType":"uint256"}],"outputs":[{"name":"orderId","type":"uint256","internalType":"uint256"}],"stateMutability":"nonpayable"},{"type":"function","name":"protocolFeeBps","inputs":[],"outputs":[{"name":"","type":"uint256","internalType":"uint256"}],"stateMutability":"view"},{"type":"function","name":"protocolFeesAccrued","inputs":[{"name":"","type":"address","internalType":"address"}],"outputs":[{"name":"","type":"uint256","internalType":"uint256"}],"stateMutability":"view"},{"type":"function","name":"protocolTreasury","inputs":[],"outputs":[{"name":"","type":"address","internalType":"address"}],"stateMutability":"view"},{"type":"function","name":"router","inputs":[],"outputs":[{"name":"","type":"address","internalType":"address"}],"stateMutability":"view"},{"type":"function","name":"setGovernance","inputs":[{"name":"newGovernance","type":"address","internalType":"address"}],"outputs":[],"stateMutability":"nonpayable"},{"type":"function","name":"setProtocolFee","inputs":[{"name":"newFeeBps","type":"uint256","internalType":"uint256"},{"name":"newTreasury","type":"address","internalType":"address"}],"outputs":[],"stateMutability":"nonpayable"},{"type":"function","name":"unpause","inputs":[],"outputs":[],"stateMutability":"nonpayable"},{"type":"event","name":"GovernanceTransferred","inputs":[{"name":"previousGovernance","type":"address","indexed":true,"internalType":"address"},{"name":"newGovernance","type":"address","indexed":true,"internalType":"address"}],"anonymous":false},{"type":"event","name":"OrderCancelled","inputs":[{"name":"orderId","type":"uint256","indexed":true,"internalType":"uint256"},{"name":"user","type":"address","indexed":true,"internalType":"address"}],"anonymous":false},{"type":"event","name":"OrderExecuted","inputs":[{"name":"orderId","type":"uint256","indexed":true,"internalType":"uint256"},{"name":"user","type":"address","indexed":true,"internalType":"address"},{"name":"amountOut","type":"uint256","indexed":false,"internalType":"uint256"}],"anonymous":false},{"type":"event","name":"OrderPlaced","inputs":[{"name":"orderId","type":"uint256","indexed":true,"internalType":"uint256"},{"name":"user","type":"address","indexed":true,"internalType":"address"},{"name":"tokenIn","type":"address","indexed":false,"internalType":"address"},{"name":"tokenOut","type":"address","indexed":false,"internalType":"address"},{"name":"amountIn","type":"uint256","indexed":false,"internalType":"uint256"},{"name":"minAmountOut","type":"uint256","indexed":false,"internalType":"uint256"}],"anonymous":false},{"type":"event","name":"Paused","inputs":[{"name":"by","type":"address","indexed":true,"internalType":"address"}],"anonymous":false},{"type":"event","name":"ProtocolFeeAccrued","inputs":[{"name":"treasury","type":"address","indexed":true,"internalType":"address"},{"name":"amount","type":"uint256","indexed":false,"internalType":"uint256"}],"anonymous":false},{"type":"event","name":"ProtocolFeeClaimed","inputs":[{"name":"treasury","type":"address","indexed":true,"internalType":"address"},{"name":"amount","type":"uint256","indexed":false,"internalType":"uint256"}],"anonymous":false},{"type":"event","name":"ProtocolFeeSet","inputs":[{"name":"newFeeBps","type":"uint256","indexed":false,"internalType":"uint256"},{"name":"newTreasury","type":"address","indexed":false,"internalType":"address"}],"anonymous":false},{"type":"event","name":"Unpaused","inputs":[{"name":"by","type":"address","indexed":true,"internalType":"address"}],"anonymous":false}],"bytecode":{"object":"0x60806040523461002f576100196100146100f4565b6101ea565b610021610034565b6121e261020e82396121e290f35b61003a565b60405190565b5f80fd5b601f801991011690565b634e487b7160e01b5f52604160045260245ffd5b906100669061003e565b810190811060018060401b0382111761007e57604052565b610048565b9061009661008f610034565b928361005c565b565b5f80fd5b60018060a01b031690565b6100b09061009c565b90565b6100bc816100a7565b036100c357565b5f80fd5b905051906100d4826100b3565b565b906020828203126100ef576100ec915f016100c7565b90565b610098565b6101126123f08038038061010781610083565b9283398101906100d6565b90565b5f1b90565b906101265f1991610115565b9181191691161790565b90565b90565b90565b61014d61014861015292610130565b610136565b610133565b90565b90565b9061016d61016861017492610139565b610155565b825461011a565b9055565b9061018960018060a01b0391610115565b9181191691161790565b6101a76101a26101ac9261009c565b610136565b61009c565b90565b6101b890610193565b90565b6101c4906101af565b90565b90565b906101df6101da6101e6926101bb565b6101c7565b8254610178565b9055565b61020b906101fa60056003610158565b610204335f6101ca565b60016101ca565b56fe60806040526004361015610013575b6108ab565b61001d5f3561010c565b806335659fb8146101075780633f4ba83a14610102578063514fcac7146100fd578063559bf6fd146100f85780635aa6e675146100f35780635c975abb146100ee57806369ce6d47146100e9578063803db96d146100e45780638456cb59146100df57806397e8cd4e146100da578063a85c38ef146100d5578063ab033ea9146100d0578063ea289d00146100cb578063ef46e0ca146100c65763f887ea400361000e57610876565b610833565b6107d2565b610772565b610736565b610585565b6104ec565b6104b7565b610475565b610422565b61038b565b6102f1565b61023e565b6101ca565b610190565b60e01c90565b60405190565b5f80fd5b5f80fd5b5f91031261012a57565b61011c565b1c90565b90565b61014690600861014b930261012f565b610133565b90565b906101599154610136565b90565b61016860035f9061014e565b90565b90565b6101779061016b565b9052565b919061018e905f6020850194019061016e565b565b346101c0576101a0366004610120565b6101bc6101ab61015c565b6101b3610112565b9182918261017b565b0390f35b610118565b5f0190565b346101f8576101da366004610120565b6101e2610a94565b6101ea610112565b806101f4816101c5565b0390f35b610118565b6102068161016b565b0361020d57565b5f80fd5b9050359061021e826101fd565b565b9060208282031261023957610236915f01610211565b90565b61011c565b3461026c57610256610251366004610220565b610db8565b61025e610112565b80610268816101c5565b0390f35b610118565b60018060a01b031690565b61028590610271565b90565b6102918161027c565b0361029857565b5f80fd5b905035906102a982610288565b565b6080818303126102ec576102c1825f830161029c565b926102e96102d2846020850161029c565b936102e08160408601610211565b93606001610211565b90565b61011c565b34610325576103216103106103073660046102ab565b929190916113d1565b610318610112565b9182918261017b565b0390f35b610118565b60018060a01b031690565b61034590600861034a930261012f565b61032a565b90565b906103589154610335565b90565b6103665f5f9061034d565b90565b6103729061027c565b9052565b9190610389905f60208501940190610369565b565b346103bb5761039b366004610120565b6103b76103a661035b565b6103ae610112565b91829182610376565b0390f35b610118565b60ff1690565b6103d69060086103db930261012f565b6103c0565b90565b906103e991546103c6565b90565b6103f860065f906103de565b90565b151590565b610409906103fb565b9052565b9190610420905f60208501940190610400565b565b3461045257610432366004610120565b61044e61043d6103ec565b610445610112565b9182918261040d565b0390f35b610118565b906020828203126104705761046d915f0161029c565b90565b61011c565b346104a35761048d610488366004610457565b61150f565b610495610112565b8061049f816101c5565b0390f35b610118565b6104b460045f9061034d565b90565b346104e7576104c7366004610120565b6104e36104d26104a8565b6104da610112565b91829182610376565b0390f35b610118565b3461051a576104fc366004610120565b610504611776565b61050c610112565b80610516816101c5565b0390f35b610118565b90565b61053661053161053b92610271565b61051f565b610271565b90565b61054790610522565b90565b6105539061053e565b90565b906105609061054a565b5f5260205260405f2090565b6105829061057d6005915f92610556565b61014e565b90565b346105b5576105b16105a061059b366004610457565b61056c565b6105a8610112565b9182918261017b565b0390f35b610118565b634e487b7160e01b5f52603260045260245ffd5b5490565b5f5260205f2090565b6105e4816105ce565b8210156105fe576105f66006916105d2565b910201905f90565b6105ba565b5f1c90565b61061461061991610603565b61032a565b90565b6106269054610608565b90565b61063561063a91610603565b610133565b90565b6106479054610629565b90565b61065661065b91610603565b6103c0565b90565b610668905461064a565b90565b600290610677826105ce565b8110156106d757610687916105db565b50906106945f830161061c565b916106a16001820161061c565b916106ae6002830161061c565b916106bb6003820161063d565b916106d460056106cd6004850161063d565b930161065e565b90565b5f80fd5b919461072361072d9298979561071960a09661070f6107349a61070560c08a019e5f8b0190610369565b6020890190610369565b6040870190610369565b606085019061016e565b608083019061016e565b0190610400565b565b3461076d5761076961075161074c366004610220565b61066b565b92610760969496929192610112565b968796876106db565b0390f35b610118565b346107a05761078a610785366004610457565b6118dd565b610792610112565b8061079c816101c5565b0390f35b610118565b91906040838203126107cd57806107c16107ca925f8601610211565b9360200161029c565b90565b61011c565b34610801576107eb6107e53660046107a5565b90611a4c565b6107f3610112565b806107fd816101c5565b0390f35b610118565b919060408382031261082e578061082261082b925f8601610211565b93602001610211565b90565b61011c565b346108625761084c610846366004610806565b906121a0565b610854610112565b8061085e816101c5565b0390f35b610118565b61087360015f9061034d565b90565b346108a657610886366004610120565b6108a2610891610867565b610899610112565b91829182610376565b0390f35b610118565b5f80fd5b60209181520190565b5f7f4e6f7420676f7665726e616e6365000000000000000000000000000000000000910152565b6108ec600e6020926108af565b6108f5816108b8565b0190565b61090e9060208101905f8183039101526108df565b90565b1561091857565b610920610112565b62461bcd60e51b815280610936600482016108f9565b0390fd5b61095e3361095861095261094d5f61061c565b61027c565b9161027c565b14610911565b610966610a34565b565b5f7f4e6f742070617573656400000000000000000000000000000000000000000000910152565b61099c600a6020926108af565b6109a581610968565b0190565b6109be9060208101905f81830391015261098f565b90565b156109c857565b6109d0610112565b62461bcd60e51b8152806109e6600482016109a9565b0390fd5b5f1b90565b906109fb60ff916109ea565b9181191691161790565b610a0e906103fb565b90565b90565b90610a29610a24610a3092610a05565b610a11565b82546109ef565b9055565b610a46610a41600661065e565b6109c1565b610a515f6006610a14565b33610a7c7f5db9ee0a495bf2e6ff9c91a7834c1ba4fdd244a5e8aa4e537bd38aeae4b073aa9161054a565b90610a85610112565b80610a8f816101c5565b0390a2565b610a9c61093a565b565b5f7f5061757365640000000000000000000000000000000000000000000000000000910152565b610ad260066020926108af565b610adb81610a9e565b0190565b610af49060208101905f818303910152610ac5565b90565b15610afe57565b610b06610112565b62461bcd60e51b815280610b1c60048201610adf565b0390fd5b610b4490610b3f610b3a610b34600661065e565b156103fb565b610af7565b610ceb565b565b5f7f496e76616c6964206f7264657249640000000000000000000000000000000000910152565b610b7a600f6020926108af565b610b8381610b46565b0190565b610b9c9060208101905f818303910152610b6d565b90565b15610ba657565b610bae610112565b62461bcd60e51b815280610bc460048201610b87565b0390fd5b90565b5f7f4e6f74206f72646572206f776e65720000000000000000000000000000000000910152565b610bff600f6020926108af565b610c0881610bcb565b0190565b610c219060208101905f818303910152610bf2565b90565b15610c2b57565b610c33610112565b62461bcd60e51b815280610c4960048201610c0c565b0390fd5b5f7f4f72646572206e6f742061637469766500000000000000000000000000000000910152565b610c8160106020926108af565b610c8a81610c4d565b0190565b610ca39060208101905f818303910152610c74565b90565b15610cad57565b610cb5610112565b62461bcd60e51b815280610ccb60048201610c8e565b0390fd5b610ce3610cde610ce89261016b565b61051f565b61016b565b90565b610d1081610d0a610d04610cff60026105ce565b61016b565b9161016b565b10610b9f565b610d6c610d28610d22600284906105db565b50610bc8565b610d4e610d365f830161061c565b610d48610d423361027c565b9161027c565b14610c24565b610d62610d5d6005830161065e565b610ca6565b60055f9101610a14565b33610da0610d9a7fc0362da6f2ff36b382b34aec0814f6b3cdf89f5ef282a1d1f114d0c0b036d59693610ccf565b9161054a565b91610da9610112565b80610db3816101c5565b0390a3565b610dc190610b20565b565b5f90565b90610def94939291610dea610de5610ddf600661065e565b156103fb565b610af7565b611240565b90565b90565b610e09610e04610e0e92610df2565b61051f565b61016b565b90565b5f7f5a65726f20616d6f756e74000000000000000000000000000000000000000000910152565b610e45600b6020926108af565b610e4e81610e11565b0190565b610e679060208101905f818303910152610e38565b90565b15610e7157565b610e79610112565b62461bcd60e51b815280610e8f60048201610e52565b0390fd5b610e9c90610522565b90565b610ea890610e93565b90565b610eb49061053e565b90565b610ec09061053e565b90565b601f801991011690565b634e487b7160e01b5f52604160045260245ffd5b90610eeb90610ec3565b810190811067ffffffffffffffff821117610f0557604052565b610ecd565b60e01b90565b610f19816103fb565b03610f2057565b5f80fd5b90505190610f3182610f10565b565b90602082820312610f4c57610f49915f01610f24565b90565b61011c565b604090610f7a610f819496959396610f7060608401985f850190610369565b6020830190610369565b019061016e565b565b610f8b610112565b3d5f823e3d90fd5b90565b90610fa9610fa2610112565b9283610ee1565b565b610fb560c0610f96565b90565b90610fc29061027c565b9052565b90610fd09061016b565b9052565b90610fde906103fb565b9052565b5f5260205f2090565b5490565b610ff881610feb565b8210156110125761100a600691610fe2565b910201905f90565b6105ba565b634e487b7160e01b5f525f60045260245ffd5b611034905161027c565b90565b9061104860018060a01b03916109ea565b9181191691161790565b90565b9061106a6110656110719261054a565b611052565b8254611037565b9055565b61107f905161016b565b90565b9061108e5f19916109ea565b9181191691161790565b90565b906110b06110ab6110b792610ccf565b611098565b8254611082565b9055565b6110c590516103fb565b90565b9061115760a0600561115d946110eb5f82016110e55f880161102a565b90611055565b611104600182016110fe6020880161102a565b90611055565b61111d600282016111176040880161102a565b90611055565b6111366003820161113060608801611075565b9061109b565b61114f6004820161114960808801611075565b9061109b565b0192016110bb565b90610a14565b565b91906111705761116e916110c8565b565b611017565b90815491680100000000000000008310156111a5578261119d9160016111a395018155610fef565b9061115f565b565b610ecd565b90565b6111c16111bc6111c6926111aa565b61051f565b61016b565b90565b634e487b7160e01b5f52601160045260245ffd5b6111ec6111f29193929361016b565b9261016b565b82039182116111fd57565b6111c9565b61123761123e9461122d606094989795611223608086019a5f870190610369565b6020850190610369565b604083019061016e565b019061016e565b565b94939294919091506112648561125e6112585f610df5565b9161016b565b11610e6a565b61127561127083610e9f565b610eab565b60206323b872dd9133906112a55f61128c30610eb7565b956112b08c611299610112565b98899788968795610f0a565b855260048501610f51565b03925af180156113cc576113a0575b5061132e5f6112ce6002610f93565b611329336113208a6113178a61130e8b936113058c9193956112fc6001996112f4610fab565b9d8e01610fb8565b60208c01610fb8565b60408a01610fb8565b60608801610fc6565b60808601610fc6565b60a08401610fd4565b611175565b61134b61133b60026105ce565b61134560016111ad565b906111dd565b94859161139b33949192956113896113837f2da1ae6a26515607ae8c5f62b5490ae88aff22f4be4cb17e94217f06f060c9bc96610ccf565b9661054a565b96611392610112565b94859485611202565b0390a3565b6113c09060203d81116113c5575b6113b88183610ee1565b810190610f33565b6112bf565b503d6113ae565b610f83565b906113e59392916113e0610dc3565b610dc7565b90565b5f7f4e6f742074726561737572790000000000000000000000000000000000000000910152565b61141c600c6020926108af565b611425816113e8565b0190565b61143e9060208101905f81830391015261140f565b90565b1561144857565b611450610112565b62461bcd60e51b81528061146660048201611429565b0390fd5b5f7f4e6f206665657300000000000000000000000000000000000000000000000000910152565b61149e60076020926108af565b6114a78161146a565b0190565b6114c09060208101905f818303910152611491565b90565b156114ca57565b6114d2610112565b62461bcd60e51b8152806114e8600482016114ab565b0390fd5b91602061150d92949361150660408201965f830190610369565b019061016e565b565b6115343361152e611528611523600461061c565b61027c565b9161027c565b14611441565b61159261158d61154e61154960058590610556565b61063d565b9261156b8461156561155f5f610df5565b9161016b565b116114c3565b6115886115775f610df5565b61158360058490610556565b61109b565b610e9f565b610eab565b602063a9059cbb916115a4600461061c565b906115c25f86956115cd6115b6610112565b97889687958694610f0a565b8452600484016114ec565b03925af180156116575761162b575b506115e7600461061c565b6116266116147f0f7f5b155b0b0ac6890709a2c7bf1b8bb3f675fff1e7840b4dd3c9acde59048b9261054a565b9261161d610112565b9182918261017b565b0390a2565b61164b9060203d8111611650575b6116438183610ee1565b810190610f33565b6115dc565b503d611639565b610f83565b6116803361167a61167461166f5f61061c565b61027c565b9161027c565b14610911565b61168861170c565b565b5f7f416c726561647920706175736564000000000000000000000000000000000000910152565b6116be600e6020926108af565b6116c78161168a565b0190565b6116e09060208101905f8183039101526116b1565b90565b156116ea57565b6116f2610112565b62461bcd60e51b815280611708600482016116cb565b0390fd5b61172761172261171c600661065e565b156103fb565b6116e3565b61173360016006610a14565b3361175e7f62e78cea01bee320cd4e420270b5ea74000d11b0c9f74754ebdbfc544b05a2589161054a565b90611767610112565b80611771816101c5565b0390a2565b61177e61165c565b565b6117ad906117a8336117a261179c6117975f61061c565b61027c565b9161027c565b14610911565b611859565b565b6117c36117be6117c892610df2565b61051f565b610271565b90565b6117d4906117af565b90565b5f7f5a65726f20616464726573730000000000000000000000000000000000000000910152565b61180b600c6020926108af565b611814816117d7565b0190565b61182d9060208101905f8183039101526117fe565b90565b1561183757565b61183f610112565b62461bcd60e51b81528061185560048201611818565b0390fd5b6118db906118828161187b6118756118705f6117cb565b61027c565b9161027c565b1415611830565b61188b5f61061c565b816118bf6118b97f5f56bee8cffbe9a78652a74a60705edede02af10b0bbb888ca44b79a0d42ce809361054a565b9161054a565b916118c8610112565b806118d2816101c5565b0390a35f611055565b565b6118e690611780565b565b90611916916119113361190b6119056119005f61061c565b61027c565b9161027c565b14610911565b6119dc565b565b90565b61192f61192a61193492611918565b61051f565b61016b565b90565b5f7f46656520746f6f20686967680000000000000000000000000000000000000000910152565b61196b600c6020926108af565b61197481611937565b0190565b61198d9060208101905f81830391015261195e565b90565b1561199757565b61199f610112565b62461bcd60e51b8152806119b560048201611978565b0390fd5b9160206119da9294936119d360408201965f83019061016e565b0190610369565b565b6119fa816119f36119ed606461191b565b9161016b565b1115611990565b611a0581600361109b565b611a10826004611055565b907f644dd1c61188bb408757e77aa2a9eb9f05e0211bbaabda871801653333d1451d91611a47611a3e610112565b928392836119b9565b0390a1565b90611a56916118e8565b565b90611a8691611a8133611a7b611a75611a705f61061c565b61027c565b9161027c565b14610911565b611a88565b565b90611aad91611aa8611aa3611a9d600661065e565b156103fb565b610af7565b611d2d565b565b90505190611abc826101fd565b565b90602082820312611ad757611ad4915f01611aaf565b90565b61011c565b5f7f496e73756666696369656e7420746f6b656e496e000000000000000000000000910152565b611b1060146020926108af565b611b1981611adc565b0190565b611b329060208101905f818303910152611b03565b90565b15611b3c57565b611b44610112565b62461bcd60e51b815280611b5a60048201611b1d565b0390fd5b611b6790610522565b90565b611b7390611b5e565b90565b611b7f9061053e565b90565b90565b611b99611b94611b9e92611b82565b61051f565b61016b565b90565b611bb0611bb69193929361016b565b9261016b565b8201809211611bc157565b6111c9565b9194611c0e611c1892989795611c0460a096611bfa611c1f9a611bf060c08a019e5f8b0190610369565b6020890190610369565b604087019061016e565b606085019061016e565b608083019061016e565b0190610369565b565b5f7f536c697070616765000000000000000000000000000000000000000000000000910152565b611c5560086020926108af565b611c5e81611c21565b0190565b611c779060208101905f818303910152611c48565b90565b15611c8157565b611c89610112565b62461bcd60e51b815280611c9f60048201611c62565b0390fd5b611cb2611cb89193929361016b565b9261016b565b91611cc483820261016b565b928184041490151715611cd357565b6111c9565b90565b611cef611cea611cf492611cd8565b61051f565b61016b565b90565b634e487b7160e01b5f52601260045260245ffd5b611d17611d1d9161016b565b9161016b565b908115611d28570490565b611cf7565b9050611d5481611d4e611d48611d4360026105ce565b61016b565b9161016b565b10610b9f565b611d69611d63600283906105db565b50610bc8565b90611d7e611d796005840161065e565b610ca6565b611d8b5f60058401610a14565b611dde6020611dac611da7611da26001870161061c565b610e9f565b610eab565b6370a0823190611dd3611dbe30610eb7565b92611dc7610112565b95869485938493610f0a565b835260048301610376565b03915afa801561219b57611e18915f9161216d575b50611e11611e0b611e066003870161063d565b61016b565b9161016b565b1015611b35565b611e34611e2f611e2a6001850161061c565b610e9f565b610eab565b602063095ea7b391611e46600161061c565b90611e6f5f611e576003890161063d565b95611e7a611e63610112565b97889687958694610f0a565b8452600484016114ec565b03925af180156121685761213c575b50611ea4611e9f611e9a600161061c565b611b6a565b611b76565b6020636a33d28e91611eb86001860161061c565b90611f195f611ec96002890161061c565b95611f24611ed960038b0161063d565b611ee560048c0161063d565b611efa42611ef4610258611b85565b90611ba1565b90611f0430610eb7565b92611f0d610112565b9b8c9a8b998a98610f0a565b885260048801611bc6565b03925af1801561213757612011915f91612109575b50611f6281611f5b611f55611f506004890161063d565b61016b565b9161016b565b1015611c7a565b611f8a611f7982611f73600361063d565b90611ca3565b611f84612710611cdb565b90611d0b565b90611fbe82611fb8611fa96005611fa360028b0161061c565b90610556565b91611fb38361063d565b611ba1565b9061109b565b611fc8600461061c565b8290612009611ff77f7ed908ff2e40b254ea911b86a8497222ab54394e5961796285735f1e6306179d9261054a565b92612000610112565b9182918261017b565b0390a26111dd565b9061202e6120296120246002860161061c565b610e9f565b610eab565b90602063a9059cbb926120425f870161061c565b906120605f879661206b612054610112565b98899687958694610f0a565b8452600484016114ec565b03925af190811561210457612089925f926120d8575b50930161061c565b90916120d36120c16120bb7f9b32d7714729bdcd899b9c5460b1ec55a813e10e7a51271f146949e4e19f7b9993610ccf565b9361054a565b936120ca610112565b9182918261017b565b0390a3565b6120f89060203d81116120fd575b6120f08183610ee1565b810190610f33565b612081565b503d6120e6565b610f83565b61212a915060203d8111612130575b6121228183610ee1565b810190611abe565b5f611f39565b503d612118565b610f83565b61215c9060203d8111612161575b6121548183610ee1565b810190610f33565b611e89565b503d61214a565b610f83565b61218e915060203d8111612194575b6121868183610ee1565b810190611abe565b5f611df3565b503d61217c565b610f83565b906121aa91611a58565b56fea26469706673582212203d80d537ec701441315ecef4a16cf2bf7bcee8ab9e63ac3974141532e1328fe464736f6c634300081e0033","linkReferences":{}},"methodIdentifiers":{"cancelOrder(uint256)":"514fcac7","claimProtocolFees(address)":"69ce6d47","executeOrder(uint256,uint256)":"ef46e0ca","governance()":"5aa6e675","orders(uint256)":"a85c38ef","pause()":"8456cb59","paused()":"5c975abb","placeOrder(address,address,uint256,uint256)":"559bf6fd","protocolFeeBps()":"35659fb8","protocolFeesAccrued(address)":"97e8cd4e","protocolTreasury()":"803db96d","router()":"f887ea40","setGovernance(address)":"ab033ea9","setProtocolFee(uint256,address)":"ea289d00","unpause()":"3f4ba83a"},"id":28}